:020000040800F2
:100000001004002051010008CB0100089D010008E8
:10001000C901000899010008B502000800000000AD
:10002000000000000000000000000000CF010008F8
:100030009B01000800000000CD010008D10100086C
:100040006B0100086B0100086B0100086B010008E0
:100050006B0100086B0100086B0100086B010008D0
:100060006B0100086B0100086B0100086B010008C0
:100070006B0100086B0100086B0100086B010008B0
:100080006B0100086B0100086B0100086B010008A0
:100090006B0100086B0100086B0100086B01000890
:1000A0006B0100086B0100086B0100086B01000880
:1000B0006B0100086B0100086B0100086B01000870
:1000C0006B0100086B0100086B0100086B01000860
:1000D0006B0100086B0100086B0100086B01000850
:1000E0006B0100086B0100086B0100086B01000840
:1000F0006B0100086B0100086B0100086B01000830
:100100006B0100086B0100086B0100086B0100081F
:100110006B0100086B0100086B0100086B0100080F
:100120006B0100086B0100086B0100086B010008FF
:100130006B0100086B0100086B010008DFF80CD0B0
:1001400000F018F800480047B90200081004002029
:100150000648804706480047FEE7FEE7FEE7FEE761
:10016000FEE7FEE7FEE7FEE7FEE7FEE749020008DE
:100170003D010008064C074D06E0E06840F0010331
:1001800094E8070098471034AC42F6D3FFF7DAFF43
:10019000F802000818030008FEE77047FEE70000B9
:1001A0004FF47A71B0FBF1F0034901384860002048
:1001B000886005200860704710E000E00149086091
:1001C000704700BF08000020FEE770477047704787
:1001D0007047000010B54FF0B040016841F48071E5
:1001E000016001684905FCD52F480822016821F00B
:1001F000F0010160D0F8001162F307110122C0F88C
:100200000011016862F301010160016801F00C0155
:100210000429FAD1D0F800110A4C21F00F01C0F8DE
:100220000011016821F4E0610160016821F460516E
:1002300001602046FFF7B4FF2046BDE81040FFF7FD
:10024000BDBF00BF0024F40010B5164800214FF4D4
:10025000E023164C0160D0F8802042F47002C0F810
:1002600080204FF0B042106840F0010010600E484E
:100270000360136823401360D0F88C3023F005032B
:10028000C0F88C30D0F8903023F00103C0F89030E3
:10029000074B43608360136823F48023136001617C
:1002A00010BD00BF08ED00E008000058FBFEF6FAA4
:1002B00000100422FEE7000005484FF6FF02016827
:1002C0001140044A11430160FFF784FFFEE700BFBD
:1002D0000CED00E00003FA0502E008C8121F08C197
:1002E000002AFAD170477047002001E001C1121FB7
:1002F000002AFBD170470000180300080800002006
:1003000008000000D80200082003000810000020A8
:1003100000040000E802000800093D0000000000A1
:040000050800013DB1
:00000001FF
