:020000040800F2
:1000000080050020550100085D0100085F0100081F
:10001000610100086301000865010008000000009C
:100020000000000000000000000000005918000857
:100030006901000800000000791700085B1800083B
:100040006F0100086F0100086F0100086F010008D0
:100050006F0100086F0100086F0100086F010008C0
:100060006F0100086F0100088D0300086F01000890
:100070006F0100086F0100086F0100086F010008A0
:100080006F0100086F0100086F0100086F01000890
:100090006F0100086F0100086F0100086F01000880
:1000A0006F0100086F0100086F0100086F01000870
:1000B0006F0100086F0100086F0100086F01000860
:1000C0006F0100086F0100086F0100086F01000850
:1000D000852400086F0100086F0100086F01000807
:1000E0006F0100086F0100086F0100086F01000830
:1000F0006F0100086F0100086F0100086F01000820
:100100006F0100086F0100086F0100086F0100080F
:100110006F0100086F0100086F0100086F010008FF
:100120006F0100086F0100086F0100086F010008EF
:100130006F0100086F0100086F010008DFF810D0A0
:1001400000F07CF800480047D1240008AFF300809D
:10015000800500200648804706480047FEE7FEE786
:10016000FEE7FEE7FEE7FEE7FEE7FEE7FEE7FEE767
:10017000E91800083D0100082DE9F05F0546002060
:1001800092469B4688460646814640241BE0284608
:1001900041464746224600F041F853465A46C01AA7
:1001A000914110D311461846224600F028F82D1A26
:1001B00067EB01084F4622460120002100F01FF89E
:1001C00017EB00094E41201EA4F10104DFDC484674
:1001D00031462A464346BDE8F09FD2B201E000F81E
:1001E000012B491EFBD270470022F6E710B51346DB
:1001F0000A4604461946FFF7F0FF204610BD202AA4
:1002000004DB203A00FA02F1002070479140C2F16D
:10021000200320FA03F3194390407047202A04DB9F
:10022000203A21FA02F00021704721FA02F3D0406F
:10023000C2F120029140084319467047064C074D11
:1002400006E0E06840F0010394E8070098471034A6
:10025000AC42F6D3FFF776FF8C260008AC260008E8
:1002600070B586B0044614216846FFF7BDFF022032
:1002700001F004FA0C4E0D4D694636F8140000905A
:1002800001200190002002900220039055F82400E4
:1002900000F018F936F8141055F82400002200F088
:1002A00019FA06B070BD00008C2500086C00002013
:1002B0000449054A31F8101052F82000002200F0DD
:1002C00009BA00008C2500086C0000200449054A8A
:1002D00031F8101052F82000012200F0FBB90000A4
:1002E0008C2500086C0000200349044A31F81010E6
:1002F00052F8200000F0E6B98C2500086C000020C0
:1003000030B585B00D46044614216846FFF76CFFF2
:1003100024B1012C04D0022C02D004E0042000E01F
:10032000082001F0ABF91749174A0120CDB1012D82
:1003300015D131F8141002904FF40410CDE90010DB
:1003400052F82400694600F0BDF80E4D00220A3D27
:100350000F21285700F01CFA285700F00CFA05B0BE
:1003600030BD31F8141000910021CDE901100220B8
:10037000039052F82400694600F0A4F8012000F030
:100380007BF8ECE79225000878000020102000F0B0
:100390008DB80220FFF79AFFFEE710B540B190F844
:1003A00025100023022905D00421C16380F82430E0
:1003B000012010BD01680A6822F00E020A60816CFB
:1003C0000A6822F480720A6001680A6822F0010259
:1003D0000A6090F84410046C01F01C01012202FA3A
:1003E00001F16160D0E913144C60416D31B10C68CA
:1003F00024F480740C60D0E916144C6080F8252039
:1004000080F82430002010BD10B590F8251000248D
:10041000022903D00421C16301242BE001680A688A
:1004200022F00E020A6001680A6822F001020A60E6
:10043000816C0A6822F480720A6090F84410036CA0
:1004400001F01C01012202FA01F15960D0E91313F5
:100450004B60416D31B10B6823F480730B60D0E9C0
:1004600016134B6080F82520002180F82410816B42
:1004700001B18847204610BD70B5044600F030F940
:100480000546601C02D004480078044400F028F9B6
:10049000401BA042FAD370BD84000020102802D176
:1004A000014901204860704708000020044910B548
:1004B0000A68024202D00860FFF7F0FF10BD00009A
:1004C0000C0800582DE9F04FDFF8E0B1DFF8DC91BF
:1004D0000023012503240BF1800B85B00F2709F1C0
:1004E000040A0BF1040ED9E005FA03FC12EA0C022F
:1004F0007ED00E7906F00306012E01D0022E20D107
:10050000866800965E0004FA06F80496009E26EAC5
:1005100008060096D1F80C80049E08FA06F8009EA2
:1005200048EA0608C0F80880466826EA0C0691F8F2
:1005300004C0CCF3001C0CFA03FC4CEA060CC0F817
:1005400004C00E79F643B6070DD0D0F80CC04FEAC0
:10055000430804FA08F62CEA060C8E6806FA08F638
:1005600046EA0C06C6600E7906F00306022E15D187
:10057000DE0800EB86060296366A4FEA437C4FEAB5
:10058000DC6807FA08FC26EA0C06D1F810C00CFA61
:1005900008FC4CEA060C029EC6F820C0D0F800C049
:1005A0004FEA430804FA08F62CEA060C0E7906F026
:1005B000030606FA08F646EA0C0606604E6816F4CC
:1005C000403F6AD03A4E23F0030C66440296B66868
:1005D0004FEA837C4FEA1C7807FA08FC26EA0C06EF
:1005E000B0F1904F08D0DFF8CCC0604507D100E0F3
:1005F00053E04FF0010C19E04FF0000C16E0DFF86B
:10060000B8C0604502D14FF0020C0FE0DFF8ACC07B
:10061000604502D14FF0030C08E0DFF8A4C060454C
:1006200002D14FF0040C01E04FF0070C0CFA08FC6B
:100630004CEA060C029EC6F808C0D9F80060CC4609
:10064000D1F8048096435FEAC82800D51643CCF859
:100650000060DAF80060D446D1F8048096435FEA7F
:10066000882800D51643CCF80060DBF80060DC4633
:10067000D1F8048096435FEAC83800D51643CCF819
:100680000060DEF80060F446D1F8048096435FEA2B
:10069000883800D51643CCF800605B1C0A6832FA33
:1006A00003F67FF421AF05B0BDE8F08F00080058D5
:1006B000000001400004004800080048000C004809
:1006C00000100048426921EA02030A4043EA02415D
:1006D000816170470AB18161704781627047000093
:1006E000014880687047000084000020014840688D
:1006F000704700008400002002488168027811449D
:100700008160704784000020094810B5016800240A
:1007100041F480710160032000F05AF8002000F0DD
:1007200009F808B1012401E000F024F8204610BDCA
:100730000040005870B50E4E054600243078A0B138
:1007400000F064F931784FF47A72B2FBF1F1B0FB4A
:10075000F1F000F0A1FC40B9102D06D2002229468C
:10076000501E00F015F8756000E00124204670BDB1
:10077000840000207047002809DB00F01F020121DF
:1007800091404009800000F1E020C0F8001170475E
:10079000F0B40E4B1B680C46C3F30223C3F10705EC
:1007A000042D00D90425191D072901D2002300E0DA
:1007B000DB1E012606FA05F1491E214099409E40A4
:1007C000761E16403143F0BC01F062BE0CED00E035
:1007D000064900F0070208684FF6FF03184040EA98
:1007E0000220034A10430860704700000CED00E04F
:1007F0000000FA050248006800F4C060704700007D
:10080000000400580248016841F48071016070479B
:10081000000400582DE9F0410F46050077D0794ECD
:10082000306800F00700B84212D2306820F00700AC
:1008300038433060FFF754FF044604E0FFF750FFF1
:10084000001B02287DD8306800F00700B842F5D1BF
:1008500028784FF0B044800715D5A868A16821F02A
:10086000F0010143A160FFF73BFF804606E000BFB7
:10087000FFF736FFA0EB0800022862D8A068C0F39B
:1008800000400028F4D02878800617D56869D4F88D
:10089000081121F0F0010143C4F80811FFF720FF0F
:1008A000804605E0FFF71CFFA0EB0800022848D8AF
:1008B000D4F80801C0F340400028F3D0287840065F
:1008C00018D5A869D4F8081121F00F0141EA1010D9
:1008D000C4F80801FFF704FF804605E0FFF700FFBA
:1008E000A0EB080002287CD8D4F80801C0F300402F
:1008F0000028F3D02878400715D5E868A16821F4CE
:10090000E0610143A160FFF7EBFE804606E046E0B0
:10091000FFF7E6FEA0EB0800022862D8A068C0F34B
:1009200040400028F4D02878000716D52869A1682F
:1009300021F4605141EAC001A160FFF7D1FE804679
:1009400006E04EE0FFF7CCFEA0EB0800022848D8F6
:10095000A068C0F380400028F4D02878C0072CD0CD
:100960006868022805D0032806D0A8B100F09CFED4
:1009700005E000F093FE02E02068C0F3406070B133
:100980006868A16821F003010143A160FFF7A8FE98
:10099000044641F288380AE000F0A5FEEFE70120A6
:1009A000BDE8F081FFF79CFE011B414519D800F01E
:1009B0006FFE6968B0EB810FF4D1306800F007007A
:1009C000B84215D9306820F0070038433060FFF78F
:1009D00087FE044607E000BFFFF782FE001B0228E7
:1009E00001D90320DCE7306800F00700B842F3D1FA
:1009F00000F00CF804490860FFF778FEBDE8F0410C
:100A0000FFF798BE004000589000002010B500F09D
:100A100033F84FF0B0418968044A01F0F00102EB6D
:100A200091010968B0FBF1F010BD0000EC25000851
:100A300010B5FFF7EBFF4FF0B0418968044A01F4AD
:100A4000E06102EB9111097801F01F01C84010BD6F
:100A50006C26000810B5FFF7D9FF4FF0B041896848
:100A6000044A01F4605102EB5121097801F01F01A1
:100A7000C84010BD6C2600082DE9F04100F008FECA
:100A8000224F48B3224C04282ED0A6104FEA640807
:100A90004FF0B045082829D000F03CFE022808D0CD
:100AA00003282BD000F016FE00F0F00007EB9000BA
:100AB0000468E868E968C0F30620604301F070024A
:100AC000012101EB1212B0FBF2F2E86801EB507069
:100AD000B2FBF0F0BDE8F08100F0FCFD00F0F000AA
:100AE00007EB90000068F5E72046F3E72868C0F3BD
:100AF000005008B13046EDE74046EBE72868C0F308
:100B0000005008B13446D4E74446D2E72C2600080A
:100B10000024F4002DE9F04104007DD020784FF04E
:100B2000B045800661D500F0B3FD064600F0F2FD49
:100B300076B10C2E01D101280AD0E069002828687E
:100B400042D040F001002860FFF7CAFD064630E0C1
:100B500000F0C9FD10B1E0690028DED000F0BAFD58
:100B60000146606A81420AD200F050FE002853D14B
:100B7000606A00F0C7FD206A00F0BBFD09E000F0EC
:100B8000C1FD206A00F0B5FD606A00F03FFE00285C
:100B9000EDD1FFF73BFFF7490860F7480068FFF722
:100BA000C9FD0028E3D120E0FFF79AFD801B022851
:100BB00074D800F098FD0028F6D0606A00F0A2FD1D
:100BC000206A00F096FD10E020F001002860FFF799
:100BD00087FD064605E000BFFFF782FD801B022867
:100BE000E6D800F080FD0028F6D12078C0073CD080
:100BF00000F04EFD064600F08DFD082E13D00C2EA1
:100C000001D103280FD06068B0F5803F286811D06B
:100C100020F48030286000E008E26068C0B1FFF78F
:100C20005FFD06460FE000F039FDF0B16068002876
:100C300093D01AE040F48030ECE700BFFFF750FD9E
:100C4000801B6428B4D800F029FD0028F6D00CE001
:100C5000FFF746FD064604E0FFF742FD801B6428CF
:100C6000A6D800F01BFD0028F6D1207880073CD5DF
:100C700000F00EFD064600F04DFD042E0FD00C2EA8
:100C800001D102280BD0E068002828681CD040F46D
:100C900080702860FFF724FD064610E03AE100F07E
:100CA00003FD10B1E0680028C2D0206900F002FD09
:100CB0001BE000BFFFF714FD801B022890D800F056
:100CC000F3FC0028F6D0F0E720F480702860FFF7EE
:100CD00007FD064605E000BFFFF702FD801B022866
:100CE000B0D800F0E1FC0028F6D12068010701D45B
:100CF000C1064ED56169E1B3C0064BD500F0E3FCF7
:100D000098B9D5F8940040F00100C5F89400FFF7B9
:100D1000E7FC064605E000BFFFF7E2FC801B022867
:100D200090D800F0D0FC0028F6D0D5F8940040F020
:100D30000400C5F89400FFF7D3FC064605E000BFA9
:100D4000FFF7CEFC801B03288AD8D5F89400C0F3A7
:100D5000C0000028F4D0A069D5F8941021F4706187
:100D600041EA0020C5F89400D5F8940020F0010075
:100D700000E035E0C5F89400FFF7B2FC064604E059
:100D8000FFF7AEFC801B022898D800F09CFC0028DE
:100D9000F6D14EE0D5F8940040F00100C5F894007B
:100DA000FFF79EFC064604E0FFF79AFC801B022832
:100DB00084D800F088FC0028F6D0D5F8940020F004
:100DC0000400C5F8940004E0FFF78AFC801B0328A8
:100DD00086D8D5F89400C0F3C0000028F4D128E0EC
:100DE000D5F8940020F00400C5F89400FFF778FCD3
:100DF000064604E0FFF774FC801B032890D8D5F862
:100E00009400C0F3C0000028F4D1D5F8940020F07D
:100E10000100C5F89400FFF763FC064605E000BF3B
:100E2000FFF75EFC801B022874D800F04CFC002801
:100E3000F6D12078400750D5504F3868C0050DD402
:100E4000FFF7E0FCFFF74CFC064604E0FFF748FC28
:100E5000801B02285ED83868C005F7D5A068012835
:100E600016D00528D5F8900017D020F00100C5F85D
:100E70009000D5F8900020F0040000BFC5F8900065
:100E8000A06841F28836C8B1FFF72AFC07460EE099
:100E9000D5F8900040F00100F0E740F00400C5F8FC
:100EA0009000F5E7FFF71CFCC01BB04232D8D5F824
:100EB0009000C0F340000028F4D00EE0FFF710FCD3
:100EC000074604E0FFF70CFCC01BB04222D8D5F85F
:100ED0009000C0F340000028F4D1207840062ED5C1
:100EE000A06A0028D5F8980015D040F00100C5F898
:100EF0009800FFF7F5FB064605E000BFFFF7F0FBA3
:100F0000801B022806D8D5F89800C0F340000028BE
:100F1000F4D014E089E020F00100C5F89800FFF754
:100F2000DFFB064605E000BFFFF7DAFB801B022867
:100F30007BD8D5F89800C0F340000028F4D1E06ACF
:100F4000F0B300F0A5FB0146E868E26A022A19D076
:100F50000C296BD0286820F080702860E86820F0A9
:100F60000300E860E86806490840E860FFF7B8FB5E
:100F7000044687E09000002088000020000400580C
:100F8000FFFFFEEE236B00F003029A421AD1636B5F
:100F900000F070029A4215D1A26BC0F306239A4268
:100FA00010D1E36B00F478129A420BD1236C00F05D
:100FB00060629A4206D1626C00F06040904200E0AC
:100FC00056E03ED00C2962D0286840015FD42868E2
:100FD00020F080702860FFF783FB064605E000BF25
:100FE000FFF77EFB801B022849D828688001F7D4D0
:100FF000D4E90C010843D4E90E2141EA0221084357
:10100000216C0843616C0843E968224A1140084397
:10101000E860286840F080702860E86840F0805000
:10102000E860FFF75DFB044607E028E02FE000BF23
:10103000FFF756FB001B022821D828688001F7D54E
:1010400023E02868800120D4286840F08070286060
:10105000E86840F08050E860FFF742FB044604E097
:10106000FFF73EFB001B022809D828688001F7D54E
:101070000BE000BFFFF734FB001B022802D903205E
:10108000BDE8F08128688001F4D40020F8E7012051
:10109000F6E700008C80C11110B5401EB0F1807FD2
:1010A00001D3012010BD4FF0E02460610F216017D3
:1010B00001F0EEF90020A06107202061002010BDA2
:1010C00090F88010012918D0012180F88010242187
:1010D000C0F8841050F8641B0A680B6823F0010301
:1010E0000B6022F000510022026050F8643C19604D
:1010F0002021016202771046704702207047704736
:10110000704770B5044690F8800001281DD001207A
:1011100084F880002420C4F88400206805680268F0
:1011200022F0010202602068826822F060620A43B5
:101130008260204600F00AFC206805602020C4F888
:101140008400002084F8800070BD022070BD70B55E
:10115000044690F8800001281DD0012084F880000A
:101160002420C4F8840020680568026822F0010287
:1011700002602068826822F060420A438260204652
:1011800000F0E4FB206805602020C4F88400002003
:1011900084F8800070BD022070BD70477047FFF773
:1011A000F8F800002DE9F04103680446D869196891
:1011B0009A6840F60F0528424FF0000509D18606CF
:1011C0007ED501F0200602F080573E4378D0216F93
:1011D00027E1A94EA94F16400F40374370D0C707EB
:1011E00009D0CF0507D501271F62D4F88C3043F012
:1011F0000103C4F88C3083070AD5D30708D02768C9
:1012000002233B62D4F88C3043F00403C4F88C30E2
:1012100043070AD5D30708D0276804233B62D4F8D4
:101220008C3043F00203C4F88C3003070CD501F076
:101230002003334308D0266808233362D4F88C3067
:1012400043F00803C4F88C3003050BD54B0109D5D6
:1012500026684FF400633362D4F88C3043F02003E7
:10126000C4F88C30D4F88C30002B3AD0800609D5E5
:1012700001F0200002F08051084303D0216F09B132
:1012800020468847D4F88C0021688968490602D432
:1012900010F0280F27D0204600F018FC2068806846
:1012A00040061BD52068083050E8001F21F040019F
:1012B00040E80012002AF5D1E06F78B1704900E0F3
:1012C00017E08163E06FFFF79FF8002809D0E06F17
:1012D000816B00E02046BDE8F04108472046FFF75B
:1012E0005EFFBDE8F0812046FFF759FFC4F88C503F
:1012F000F7E7E76E2026012F7ED1C7067CD5CF0603
:101300007AD51020186220688068400642D5E16FC7
:10131000086840680004000CE3D0B4F85C20824206
:10132000DFD9A4F85E000868006880062BD4206826
:1013300050E8001F21F4807140E80012002AF6D125
:101340002068083050E8001F21F0010140E8001239
:10135000002AF5D12068083050E8001F21F0400134
:1013600040E80012002AF5D1C4F88860E5662168DB
:1013700051E8000F20F0100041E80002002AF6D1E9
:10138000E06FFFF70AF8B4F85C00B4F85E10401A9A
:1013900081B22CE0B4F85C00B4F85E10401A81B25F
:1013A000B4F85E0000289CD000299AD0226852E848
:1013B000000F20F4907042E80003002BF6D12E4B72
:1013C000DB432068083050E8002F1A4040E800272F
:1013D000002FF6D1C4F88860E5662567226852E8D8
:1013E000000F20F0100042E80003002BF6D1204649
:1013F000FFF785FE75E7FFE7C70209D5570207D556
:101400004FF4801018622046BDE8F041FFF7C6BED9
:1014100003060AD501F0800302F40002134304D04E
:10142000616F00297FF456AF5BE7420611D54A068B
:101430000FD52046016851E8002F22F0400241E814
:101440000023002BF6D1C0F88460456700F010F946
:1014500047E7020206D54A0004D52046BDE8F04120
:10146000FFF79BBEC001C5D50029C3DA2046BDE801
:10147000F041FFF745BE000001000010200100040C
:10148000B91A000810B5040003D0D4F8840010B1D4
:1014900007E0012010BD002084F88000204600F005
:1014A00027F82420C4F884002068016821F0010195
:1014B0000160204600F04CFD0128EBD0A06A10B17D
:1014C000204600F065FA2068416821F490414160AF
:1014D0002068816821F02A0181602068016841F05C
:1014E000010101602046BDE8104000F0B5BA0000DF
:1014F00010B586B0044614216846FEF775FE1749FC
:101500002068884227D14FF0B040016E41F48041FD
:101510000166016E01F480410591C16C41F0020148
:10152000C164C06C694600F002000590C0200090C4
:1015300002200190012002900020039007200490D7
:101540000748FEF7BFFF002211462420FFF720F9CD
:101550002420FFF710F906B010BD0000003801404C
:101560000004004830B4D0F88830202B20D1E1B1FD
:10157000DAB190F88030012B1AD0012380F8803046
:101580000023C3660B4C0368A3420BD05B681B02AD
:1015900008D5046854E8003F43F0806344E8003510
:1015A000002DF6D130BC00F0D3BD012030BC704717
:1015B0000220FBE7008000400149012008707047CD
:1015C00008000020D0F88430202B47D169B362B3E3
:1015D00090F88030012B41D0012380F880300165E4
:1015E000A0F85420A0F8562000214167C0F88C10C4
:1015F0002122C0F88420436E4FF48052B3F1005F83
:10160000836814D0934201D102692AB3144A426715
:1016100080F88010026852E8001F41F0800142E823
:101620000013002BF6D10020704701207047934231
:1016300001D1026972B10B4A426780F880100168DB
:10164000083151E8002F42F4000241E80023002B4A
:10165000F5D1E8E7044AEFE7044AD8E702207047EB
:101660000B23000859230008A12200084D2200087E
:1016700001490120087070470800002008B54FF0AC
:10168000B041CA6C0243CA64C96C0140009108BDF4
:101690004FF0B040806800F00C0070474FF0B04051
:1016A0000068C0F3404070474FF0B0400068C0F39E
:1016B000802070474FF0B0414A6822F0FE4242EA73
:1016C0000060486070474FF0B040D0F89400C0F31D
:1016D000400070474FF0B040006800F0F000B028C4
:1016E00000D9B02070474FF0B0400068C0F3400010
:1016F00070474FF0B0414A6822F47F4242EA00202E
:10170000486070474FF0B0410A6822F0F00202438F
:101710000A6070474FF0B040C06800F003007047A7
:10172000144810B5124901604FF416514160002170
:1017300081600C22C160C0E904128161C161016253
:1017400041628162FFF79EFE70B900210948FFF7F0
:10175000FEFC48B900210748FFF7D3FC20B9054833
:10176000FFF7AEFC002801D0FEF713FE10BD00000D
:1017700000380140940000207047000070B5214AF5
:101780008EB00DF1100C78CA8CE8780038CA08AE1B
:1017900086E838003CCA8DE83C000024B1F5007FA3
:1017A0006A46214607D008AB53F8215085420BD337
:1017B00052F821400BE004AB53F821508542F7D298
:1017C000491C0429F8D302E0491C0329ECD30E4E2E
:1017D000306820F0070020433060FEF781FF0546A7
:1017E00008E000BFFEF77CFF401B022802D903205F
:1017F0000EB070BD306800F00700A042F2D10020AA
:10180000F6E70000C02500080040005810B50F4959
:10181000B02801D9C86A03E03C2202EA90000858C7
:101820004FF0B041D1F80811094A01F00F0152F808
:101830002110B0FBF1F4FEF7DDFF01460548B4FBD3
:10184000F0F0BDE81040FFF799BF00002C2600081B
:10185000EC25000840420F007047FEF74DBF000026
:1018600010B59AB048216846FEF7BEFC1C2112A8AC
:10187000FEF7BAFC1B48016821F4C06141F4007115
:10188000016000680024602200F4C060CDE90842D5
:1018900019902020012107910090CDE90D4080038F
:1018A0000F90800211904FF0C06010900222CDE99D
:1018B0000B216846FFF72EF978B96F2012900320AC
:1018C000CDE913048020CDE916401594032112A818
:1018D0001894FEF79FFF002801D0FEF75AFD1AB0BA
:1018E00010BD000000040058154800210160144894
:1018F0008030026842F4700202604FF0B04002682B
:1019000042F0010202604FF4E022826002680D4B57
:101910001A400260D0F8942022F00502C0F894200A
:10192000D0F8982022F00102C0F89820064AC26040
:101930000261026822F48022026081617047000027
:1019400008ED00E0FBFEF6FA0010042230B5416E0F
:10195000B9B1026891689268C1F342610B4B520FB2
:101960009C5CE50003F10804A25CB5FBF2F2A0F870
:101970006A205A5C615CD200B2FBF1F1A0F86810F9
:1019800030BD0121A0F86A10F8E70000B02500087A
:1019900090F82810C90706D001684A68C36A22F483
:1019A00000321A434A6090F82810890706D501686A
:1019B0004A68036B22F480321A434A6090F8281078
:1019C000490706D501684A68436B22F480221A430E
:1019D0004A6090F82810090706D501684A68836BA9
:1019E00022F400421A434A6090F82810C90606D52E
:1019F00001688A68C36B22F480521A438A6090F8A7
:101A00002810890606D501688A68036C22F4005202
:101A10001A438A6090F82810490611D501684A686F
:101A2000436C22F480121A434A60416CB1F5801F66
:101A300006D101684A68836C22F4C0021A434A60E6
:101A400090F82810090606D501684A68C06C22F48F
:101A5000002202434A607047F8B500260446C0F8E9
:101A60008C60FEF73DFE0546206800686FF07E47FB
:101A7000000708D52B4600224FF40011204600979E
:101A800000F09DFC60B92068006840070AD52B462D
:101A900000224FF480012046009700F090FC08B12E
:101AA0000320F8BD2020C4F88400C4F8880044F85E
:101AB0006C6F00202675F8BD10B5806A0021A0F873
:101AC0005E10A0F85610FFF76AFB10BD10B5026853
:101AD00052E8001F21F4907142E80013002BF6D168
:101AE0000E4B0268083252E8001F194042E8001409
:101AF000002CF6D1C16E012908D1016851E8002FF0
:101B000022F0100241E80023002BF6D12021C0F87A
:101B100088100021C166016710BD0000FEFFFFEFC5
:101B200010B5B0F86020D0F888300168222B04D0BE
:101B3000886940F00800886110BD496A836D1140D2
:101B40001980816D891C8165B0F85E10491EA0F86E
:101B50005E10B0F85E100029EED1026852E8001F56
:101B600021F4907142E80013002BF6D1016808318E
:101B700051E8002F22F0010241E80023002BF5D1AB
:101B80002021C0F8881000210167C26E012A02D00E
:101B9000FFF712FD10BDC166026852E8001F21F078
:101BA000100142E80013002BF6D10168CA69D24344
:101BB000D20601D410220A62B0F85C10FFF79FFA37
:101BC00010BD00002DE9F0470446B0F860600068E1
:101BD000C569D0F800A0D0F80880D4F88810222970
:101BE00005D0816941F008018161BDE8F087B4F852
:101BF00068704FF0000963E02068406AA16D3040D2
:101C00000880A06D801CA065B4F85E00401EA4F89A
:101C10005E002068C569690730D0E9070AD05FEA2D
:101C2000CA5107D501210162D4F88C0040F00100AF
:101C3000C4F88C00A8070BD55FEAC87008D02168EB
:101C400002200862D4F88C0040F00400C4F88C0034
:101C500068070BD55FEAC87008D0216804200862C5
:101C6000D4F88C0040F00200C4F88C00D4F88C004A
:101C700020B12046FFF793FAC4F88C90B4F85E00C8
:101C8000F0B9216851E8000F20F4807041E80002AB
:101C9000002AF6D1264A2068083050E8001F11407B
:101CA00040E80013002BF6D12020C4F88800C4F8C7
:101CB0007090E16E4846012923D02046FFF77CFC56
:101CC0000FB1A80698D4B4F85E0000288DD0B4F8FF
:101CD0006810814289D92068083050E8001F21F03F
:101CE000805140E80012002AF5D112482067206890
:101CF00050E8001F41F0200140E80012002AF6D110
:101D000073E7E066216851E8000F20F0100041E819
:101D10000002002AF6D12068C169C943C90601D46E
:101D200010210162B4F85C102046FFF7E8F9C7E71C
:101D3000FEFFFFEF211B000810B5B0F86020D0F8BF
:101D400088300168222B04D0886940F0080088613F
:101D500010BD496A1140826D1170816D491C816509
:101D6000B0F85E10491EA0F85E10B0F85E100029B1
:101D7000EED1026852E8001F21F4907142E800138E
:101D8000002BF6D10168083151E8002F22F0010242
:101D900041E80023002BF5D12021C0F88810002154
:101DA0000167C26E012A02D0FFF706FC10BDC166B2
:101DB000026852E8001F21F0100142E80013002BD6
:101DC000F6D10168CA69D243D20601D410220A6250
:101DD000B0F85C10FFF793F910BD00002DE9F04753
:101DE0000446B0F860600068C569D0F800A0D0F87B
:101DF0000880D4F88810222905D0816941F00801B3
:101E00008161BDE8F087B4F868704FF0000963E0C5
:101E10002068406AA16D30400870A06D401CA0652C
:101E2000B4F85E00401EA4F85E002068C56969072A
:101E300030D0E9070AD05FEACA5107D50121016213
:101E4000D4F88C0040F00100C4F88C00A8070BD532
:101E50005FEAC87008D0216802200862D4F88C00BC
:101E600040F00400C4F88C0068070BD55FEAC87026
:101E700008D0216804200862D4F88C0040F00200E9
:101E8000C4F88C00D4F88C0020B12046FFF787F905
:101E9000C4F88C90B4F85E00F0B9216851E8000FE6
:101EA00020F4807041E80002002AF6D1264A20681A
:101EB000083050E8001F114040E80013002BF6D115
:101EC0002020C4F88800C4F87090E16E48460129CB
:101ED00023D02046FFF770FB0FB1A80698D4B4F8C2
:101EE0005E0000288DD0B4F86810814289D920683E
:101EF000083050E8001F21F0805140E80012002A0D
:101F0000F5D112482067216851E8000F40F0200009
:101F100041E80002002AF6D173E7E066216851E843
:101F2000000F20F0100041E80002002AF6D12068DE
:101F3000C169C943C90601D410210162B4F85C101B
:101F40002046FFF7DCF8C7E7FEFFFFEF391D00086A
:101F50002DE9F041044600682269A168E669114351
:101F60006269002532431143724B0268724E32405F
:101F70000A43026020684168E26821F4405111433D
:101F800041602168A069994201D0226A10438A68A1
:101F90006A4E324002438A602068C16A626A21F058
:101FA0000F011143C1626649D4F800C04FF0B04040
:101FB0008C450DD1D0F8880010F0030006D0012820
:101FC0001DD0022819D003281BD112E0012119E0ED
:101FD0009C4516D1D0F888004FF4406110F4406061
:101FE00009D0B0F5806F0AD0B0F5006F05D08842F7
:101FF00007D1082106E0002104E0022102E00421CB
:1020000000E010214F4A504F00264FF400409C45FD
:1020100031D131B1022907D0042907D008297AD15A
:1020200007E0FEF705FD03E0104602E0FEF724FDA1
:1020300078B3616A37F811206768B0FBF2F107EBFB
:1020400047038B4267D8B1EB073F64D8002319469A
:10205000FEF792F8090241EA1061020278081018AE
:1020600071413A460023FEF787F8384AA0F54071DF
:10207000914252D94FE0E3694FF6EF7883422AD17B
:10208000012907D0022908D0042908D0082942D103
:1020900008E041E0FEF7DEFC03E0104602E0FEF758
:1020A000EBFCC8B3616A37F81110B0FBF1F04100E6
:1020B000606801EB5001B1FBF0F080B2A0F11001BB
:1020C000414528D84FF6F0710140C0F3420001436A
:1020D0002068C16023E0012906D0022907D0042925
:1020E00007D0082917D107E0FEF7B4FC03E010463B
:1020F00002E0FEF7C1FC78B1616A37F81110B0FB5D
:10210000F1F1606801EB5001B1FBF0F080B2A0F199
:102110001001414501D9012501E02168C860012075
:10212000A4F86A0024F8680F2846A660E660BDE8B7
:10213000F081000000800040F369FFCFFFF4FF1141
:10214000003801400024F40098250008FFFC0F002F
:1021500070B58165A0F85C20A0F85E2000210167C1
:1021600083684FF48056FF24B34204D10369FBB95E
:1021700040F2FF1322E07F25C3B1B3F1805F1AD094
:10218000A0F86010C0F88C102223C0F888300368D3
:10219000083353E8004F44F0010443E80045002DA4
:1021A000F5D1436EB3F1005F0ED030E0036943B95F
:1021B000A0F86040E6E703691BB13F23A0F8603058
:1021C000E0E7A0F86050DDE7B0F8683093421ED831
:1021D0008268B24201D10269BAB1184A026780F836
:1021E0008010026852E8001F41F4807142E8001339
:1021F000002BF6D10168083151E8002F42F08052DF
:1022000041E80023002BF5D113E00D4AE6E7826890
:10221000B24201D1026972B10A4A026780F88010A5
:10222000026852E8001F41F4907142E80013002B4D
:10223000F6D1002070BD044AEFE70000DD1D000864
:10224000C51B0008391D0008211B0008D0F88410A8
:10225000212910D1B0F8561071B1016D02680988BA
:10226000C1F308019162016D891C0165B0F8561037
:10227000491EA0F856107047026852E8001F21F06E
:10228000800142E80013002BF6D1026852E8001FDB
:1022900041F0400142E80013002BF6D170470000E6
:1022A000D0F8841021291BD1B0F86A1016E000BFC5
:1022B000B0F85620AAB10268D3691B060CD5036D8D
:1022C0001B88C3F308039362026D921C0265B0F889
:1022D0005620521EA0F85620491E89B20029E7D187
:1022E00070470168083151E8002F22F4000241E8EC
:1022F0000023002BF5D1026852E8001F41F0400195
:1023000042E80013002BF6D17047D0F88410212941
:102310000ED1B0F8561061B1016D02680978916272
:10232000016D491C0165B0F85610491EA0F8561001
:102330007047016851E8002F22F0800241E8002335
:10234000002BF6D1026852E8001F41F0400142E83C
:102350000013002BF6D17047D0F88410212919D131
:10236000B0F86A1014E000BFB0F856209AB10268C5
:10237000D3691B060AD5036D1B789362026D521C4C
:102380000265B0F85620521EA0F85620491E89B2A8
:102390000029E9D170470168083151E8002F22F483
:1023A000000241E80023002BF5D1026852E8001F2B
:1023B00041F0400142E80013002BF6D170472DE9AF
:1023C000F0479A4617460E4604464FF000094FF074
:1023D0002008089D4AE0681C48D0FEF781F9A0EB70
:1023E0000A00A8422AD84DB32068016849073DD5A4
:1023F000C069C043000539D421684FF40060086209
:10240000206850E8001F21F4D07140E80012002A33
:10241000F6D12068083050E8001F21F0010140E8A3
:102420000012002AF5D144F8848FC4F80480C4F85F
:10243000088004F8049C0320BDE8F087216851E877
:10244000000F20F4D07041E80002002AF6D1206885
:10245000083050E8001F21F0010140E80012002A76
:10246000F5D144F8848FC4F80480E2E72068C0699D
:1024700036EA000004D00020B842ACD00020DBE7F0
:102480000120F9E70148FEF78DBE0000940000200E
:102490000907090E002804DB00F1E02080F8001491
:1024A000704700F00F0000F1E02080F8141D704725
:1024B00002E008C8121F08C1002AFAD1704770470D
:1024C000002001E001C1121F002AFBD1704700006B
:1024D00008B5FEF719F9FFF7C3F94FF0B040C16C2A
:1024E00041F00201C164C06C00F002000090FFF7EF
:1024F00017F90120FDF7B4FE0220FDF7B1FE01211E
:102500000020FDF7FDFE1E4C05E000BFFDF7ECFED0
:102510006420FDF7B1FF606800284FF00100F5D09E
:10252000FDF7C6FE16495A2208311648FFF74AF849
:10253000C8B920780128FCD10025257011495A22FC
:1025400090311048FFF70EF868B920780128FCD1C7
:1025500025700B490B480831903059220B780478CC
:10256000A34202D042B1FDF714FF521E92B200F115
:10257000010001F10101F1D20120FDF7A7FEFEE704
:1025800008000020940000200A0607002000010037
:102590000200100001000200010002000400060019
:1025A00008000A000C00100020004000800000011C
:1025B00001010103070100000804020408010101F0
:1025C000120000002400000036000000400000005F
:1025D000060000000C0000001000000000000000D9
:1025E00001000000020000000300000001000000E4
:1025F00003000000050000000100000001000000D1
:10260000060000000A000000200000000200000098
:10261000040000000800000010000000400000005E
:10262000800000000001000000020000A086010000
:10263000400D0300801A060000350C0040420F00D8
:1026400080841E0000093D0000127A000024F4007E
:1026500000366E010048E801006CDC02000000005A
:10266000000000000000000000000000000000006A
:102670000000000000000000000000000100000059
:10268000020000000300000004000000AC26000867
:10269000080000208C000000B02400083827000843
:1026A00094000020EC040000C0240008000000009A
:1026B00000000000202A2A2A2A554152545F5477EC
:1026C0006F426F617264735F436F6D49542A2A2AA7
:1026D0002A20202A2A2A2A554152545F54776F42D1
:1026E0006F617264735F436F6D49542A2A2A2A20EE
:1026F000202A2A2A2A554152545F54776F426F612B
:102700007264735F436F6D49542A2A2A2A2000009D
:102710000004004800040048000400480008004885
:10272000000C0048000C00480100000010000000F0
:082730000000000000093D005B
:040000050800013DB1
:00000001FF
