:020000040800F2
:10000000481F002055010008872A000827290008FA
:10001000852A000849030008D351000800000000A9
:10002000000000000000000000000000E12E0008B9
:100030008B05000800000000032E0008ED2E0008CC
:100040006F0100086F0100086F0100086F010008D0
:100050006F0100086F0100086F0100086F010008C0
:100060006F0100086F0100086F010008D904000843
:100070006F0100086F0100086F0100086F010008A0
:100080006F0100086F0100086F0100086F01000890
:10009000655100086F0100086F0100086F0100083A
:1000A0006F0100086F0100086F0100086F01000870
:1000B000912F00086F0100086F0100086F01000810
:1000C0006F0100086F0100086F0100086F01000850
:1000D000B13A00086F0100086F0100086F010008C5
:1000E0006F0100086F0100086F0100086F01000830
:1000F0006F0100086F0100086F0100086F01000820
:100100006F0100086F0100086F0100086F0100080F
:100110006F0100086F0100086F0100086F010008FF
:100120006F0100086F0100086F0100086F010008EF
:100130006F0100086F0100086F010008DFF810D0A0
:1001400000F08EF80048004759520008AFF30080D5
:10015000481F00200648804706480047FEE7FEE7A4
:10016000FEE7FEE7FEE7FEE7FEE7FEE7FEE7FEE767
:10017000792F00083D0100082DE9F05F05460020B9
:1001800092469B4688460646814640241BE0284608
:1001900041464746224600F053F853465A46C01A95
:1001A000914110D311461846224600F03AF82D1A14
:1001B00067EB01084F4622460120002100F031F88C
:1001C00017EB00094E41201EA4F10104DFDC484674
:1001D00031462A464346BDE8F09F40EA01039B07AB
:1001E00003D009E008C9121F08C0042AFAD203E0AC
:1001F00011F8013B00F8013B521EF9D27047D2B210
:1002000001E000F8012B491EFBD270470022F6E7FF
:1002100010B513460A4604461946FFF7F0FF20467C
:1002200010BD202A04DB203A00FA02F100207047BA
:100230009140C2F1200320FA03F319439040704724
:10024000202A04DB203A21FA02F00021704721FA2B
:1002500002F3D040C2F12002914008431946704792
:10026000064C074D06E0E06840F0010394E8070003
:1002700098471034AC42F6D3FFF764FF9853000858
:10028000B853000870B58C1810F8015B15F007031F
:1002900001D110F8013B2A1106D110F8012B03E01F
:1002A00010F8016B01F8016B5B1EF9D12B0705D427
:1002B0000023521E0DD401F8013BFAE710F8013B70
:1002C000CB1A921C03E013F8015B01F8015B521E8C
:1002D000F9D5A142D8D3002070BD000070B586B01A
:1002E000044614216846FFF791FF022002F04CFB00
:1002F0000C4E0D4D694636F8140000900120019017
:10030000002002900220039055F8240000F0AAFB80
:1003100036F8141055F82400002200F0A3FC06B0B3
:1003200070BD0000A8520008800000200449054A62
:1003300031F8101052F82000012200F093BC0000A8
:10034000A852000880000020FEE7000010B5042835
:1003500027DD154A202802D0212822D110E08B78F1
:10036000088863F31F40CB7840EA03601060087987
:100370001071487950718879907100F063F810E03D
:10038000107808701088000A48701068000C887097
:100390001068000EC8701079087150794871907912
:1003A0008871002010BD00006400002010B50448D2
:1003B00001F0D9FF08B100F0E9F8002010BD0000FD
:1003C00038170020144810B5124901604FF4E1318C
:1003D000416000218160C160016181610C21416146
:1003E00002F056F908B100F0D1F801220B490A4891
:1003F00002F002FA08B100F0C9F802F005FE00228E
:100400000649074803F0E3FC0649054803F0D6FC1B
:10041000002010BD0038014038170020380F0020A0
:10042000141800203807002010B509888AB2014648
:10043000024802F01FFA002010BD0000381700200B
:100440000020704710B5214801F08DFF08B100F081
:100450009DF81F4A1D48002113790BB1022B01D0D2
:10046000C16002E04FF40053C36053791BB1012B0C
:1004700003D0022B04D0016105E04FF4C06301E01A
:100480004FF4806303619379072B1DD0082B1BD198
:100490000369CBB14FF480538360126842600C2231
:1004A000C0E90521C161094802F0F2F808B100F085
:1004B0006DF8074907480C3901220968BDE810406A
:1004C0000144024802F098B98160E6E7381700203D
:1004D00064000020380F00200148806F00F01EB932
:1004E000381700200D4B416C026821F003019A423D
:1004F00001D20B4B01E00A4B1C3319448164D1B289
:1005000014220839B1FBF2F1054A8032C26401F0CD
:100510001F0201219140016570470000080402405C
:10052000000802400179084A01F03F0102EB810214
:100530004265054A4432491E826501F003020121E9
:100540009140C16570470000FC08024030B5D0E919
:1005500013456560446D14B1D0E91645656090F8A7
:10056000444004F01C050124AC40056C6C60046838
:1005700063608368102B036803D099600068C260D1
:1005800030BD9A600068C16030BD70470220FFF73F
:10059000CDFEFEE710B540B190F8251000230229EA
:1005A00005D00421C16380F82430012010BD01680A
:1005B0000A6822F00E020A60816C0A6822F48072D6
:1005C0000A6001680A6822F001020A6090F844108B
:1005D000046C01F01C01012202FA01F16160D0E912
:1005E00013144C60416D31B10C6824F480740C60BC
:1005F000D0E916144C6080F8252080F824300020C3
:1006000010BD10B590F825100024022903D0042154
:10061000C16301242BE001680A6822F00E020A601F
:1006200001680A6822F001020A60816C0A6822F4FB
:1006300080720A6090F84410036C01F01C010122E2
:1006400002FA01F15960D0E913134B60416D31B1E9
:100650000B6823F480730B60D0E916134B6080F8AD
:100660002520002180F82410816B01B188472046A5
:1006700010BD000070B5040011D02068016821F0A1
:1006800001010160224A20681421904209D2214AC6
:100690000244B2FBF1F1890061641F490AE00120C4
:1006A00070BD1B4A52420244B2FBF1F18900616401
:1006B0001749083900252164056094F8440000F0CA
:1006C0001C0101208840216C48602046FFF70AFF8A
:1006D000A06C0560D4E9130141606068401E0328E6
:1006E00007D82046FFF71EFF606D0560D4E91601AC
:1006F00041606565A565E565E56225636563A5639C
:10070000E56384F8255084F82450002070BD000073
:1007100008040240F8FFFDBF00000240F0B4016C85
:100720000C6801680D6890F8442002F01C06042251
:1007300002FA06F3234211D06B070FD50B689B0614
:1007400003D40B6823F004030B6090F8441001F00D
:100750001C018A40016C4A60016B1DE0022303FA10
:1007600006F727424FF0000C4FF0010218D0AF07F8
:1007700016D50C68A40605D40C6824F00A040C6095
:1007800080F8252090F8441001F01C018B40016C8A
:100790004B6080F824C0C16A00291AD0F0BC084719
:1007A0000823B340234214D02B0712D50B6823F043
:1007B0000E030B6090F84410036C01F01C0102FA68
:1007C00001F15960C26380F8252080F824C0416B94
:1007D000E2E7F0BC7047000070B504000CD02C4A72
:1007E00021681420914209D22A4A0A44B2FBF0F04F
:1007F0008000606428480AE0012070BD244A52420B
:100800000A44B2FBF0F0800060642148083820649C
:10081000022084F825000A6847F6F0708243D4E984
:1008200002031843D4E904352B431843A369184342
:10083000E3691843236A1843104308602046FFF712
:1008400051FEA0680025B0F5804F00D16560207989
:10085000A16C00F03F000860D4E9130141606068BA
:10086000401E032808D82046FFF75CFE606D056037
:10087000D4E91601416002E06565A565E565E563BB
:10088000012084F8250084F82450002070BD000069
:1008900008040240F8FFFDBF0000024070B50446A6
:1008A00090F82400002501280CD0012084F82400B1
:1008B00094F825600020012E06D084F8240002253B
:1008C000284670BD022070BD022684F82560E063D2
:1008D0002068066826F0010606602046FFF736FE0F
:1008E000206B00282068016802D041F00E0106E06C
:1008F00021F0040101602068016841F00A010160F3
:10090000A06C0168C90303D5016841F480710160DE
:10091000606D18B1016841F4807101602068016860
:1009200041F001010160CBE72DE9F84F00230126DA
:10093000DFF818C10F2782E006FA03F414EA010277
:100940007CD023F003056544AA46D5F808909D079E
:100950004FEA157E07FA0EF505EA090B0095B0F18E
:10096000904F05D03A4DA84205D14FF0010816E04E
:100970004FF0000813E0374DA84202D14FF00208B3
:100980000DE0354DA84202D14FF0030807E0334D8A
:10099000A84202D14FF0040801E04FF0070808FA1E
:1009A0000EF8D84526D1DFF8B880D8F8009029EAAB
:1009B0000209C8F8009008F10408D8F8009029EA64
:1009C0000209C8F80090DFF89880A8F18008D8F8EC
:1009D000009029EA0209C8F8009008F10408D8F844
:1009E00000509543C8F80050009DDAF80820AA434B
:1009F000CAF80820D0F800804FEA4309032202FA1F
:100A000009F248EA0208C0F80080DD0800EB85051D
:100A1000AA46D5F820804FEA43794FEAD96907FA08
:100A200009F528EA0508CAF82080C5689543C5601D
:100A30004568A54345608468944384605B1C31FA33
:100A400003F27FF479AFBDE8F88F000000000140A9
:100A50000004004800080048000C0048001000484E
:100A6000800800582DE9F04FDFF8E0B1DFF8DC91A5
:100A70000023012503240BF1800B85B00F2709F11A
:100A8000040A0BF1040ED9E005FA03FC12EA0C0289
:100A90007ED00E7906F00306012E01D0022E20D161
:100AA000866800965E0004FA06F80496009E26EA20
:100AB00008060096D1F80C80049E08FA06F8009EFD
:100AC00048EA0608C0F80880466826EA0C0691F84D
:100AD00004C0CCF3001C0CFA03FC4CEA060CC0F872
:100AE00004C00E79F643B6070DD0D0F80CC04FEA1B
:100AF000430804FA08F62CEA060C8E6806FA08F693
:100B000046EA0C06C6600E7906F00306022E15D1E1
:100B1000DE0800EB86060296366A4FEA437C4FEA0F
:100B2000DC6807FA08FC26EA0C06D1F810C00CFABB
:100B300008FC4CEA060C029EC6F820C0D0F800C0A3
:100B40004FEA430804FA08F62CEA060C0E7906F080
:100B5000030606FA08F646EA0C0606604E6816F426
:100B6000403F6AD03A4E23F0030C66440296B668C2
:100B70004FEA837C4FEA1C7807FA08FC26EA0C0649
:100B8000B0F1904F08D0DFF8CCC0604507D100E04D
:100B900053E04FF0010C19E04FF0000C16E0DFF8C5
:100BA000B8C0604502D14FF0020C0FE0DFF8ACC0D6
:100BB000604502D14FF0030C08E0DFF8A4C06045A7
:100BC00002D14FF0040C01E04FF0070C0CFA08FCC6
:100BD0004CEA060C029EC6F808C0D9F80060CC4664
:100BE000D1F8048096435FEAC82800D51643CCF8B4
:100BF0000060DAF80060D446D1F8048096435FEADA
:100C0000882800D51643CCF80060DBF80060DC468D
:100C1000D1F8048096435FEAC83800D51643CCF873
:100C20000060DEF80060F446D1F8048096435FEA85
:100C3000883800D51643CCF800605B1C0A6832FA8D
:100C400003F67FF421AF05B0BDE8F08F000800582F
:100C5000000001400004004800080048000C004863
:100C6000001000480AB1816170478162704700003E
:100C700001488068704700009800002001484068E3
:100C800070470000980000200248816802781144F3
:100C90008160704798000020094810B50168002461
:100CA00041F480710160032000F06CF8002000F036
:100CB00009F808B1012401E000F024F8204610BD35
:100CC0000040005870B50E4E054600243078A0B1A3
:100CD00000F08CFE31784FF47A72B2FBF1F1B0FB88
:100CE000F1F001F0C9F940B9102D06D200222946D1
:100CF000501E00F027F8756000E00124204670BD0A
:100D000098000020704700280DDB00F01F02012131
:100D100091404009800000F1E020C0F88011BFF34D
:100D20004F8FBFF36F8F7047002809DB00F01F0261
:100D3000012191404009800000F1E020C0F800113D
:100D400070470000F0B40E4B1B680C46C3F302233F
:100D5000C3F10705042D00D90425191D072901D267
:100D6000002300E0DB1E012606FA05F1491E2140A2
:100D700099409E40761E16403143F0BC04F032BAD2
:100D80000CED00E0064900F0070208684FF6FF038B
:100D9000184040EA0220034A1043086070470000F0
:100DA0000CED00E00000FA0501220168C0F8E8221D
:100DB000002280F8E02231F8540F40F00100088052
:100DC000088840F00200088010467047704710B550
:100DD0000C0607D501F0070101EB810100EBC10012
:100DE000283005E001EB810100EBC10000F5B47093
:100DF00099B232B1012202730181190C41810020A4
:100E000010BD00220273C180F9E701EB810200EB03
:100E1000C202D0F8F002D26B03F0ABB901EB810251
:100E200000EBC202D0F8F002D2F87C2103F0F5B951
:100E300070B504460B0601F0070000EB800104EBDF
:100E4000C1014FF001024FF0000503D581F82920C0
:100E5000283103E081F8695101F5B471087094F804
:100E6000A802012808D084F8A822206803F03AFEDE
:100E700084F8A852002070BD022070BD70B50446F1
:100E800001F00F006268904201D9012070BD0B068D
:100E900001F0070000EB800104EBC1014FF00102FB
:100EA0004FF0000503D581F82920283103E081F8AF
:100EB000695101F5B4718D70087094F8A802012889
:100EC00008D084F8A822206803F0ABFE84F8A8526A
:100ED000002070BD022070BD2DE9F04704685FEA74
:100EE00042480B788D69B4F850804FF0000C4BF6F7
:100EF0008F7748F2800648F68F7948F2C00A44445A
:100F000028D540F2024808EBC30834F80840C4F37F
:100F10000904A54203D32D1B8D6102D00BE0C1F85B
:100F200018C0D0F800C03CF823503D4085F400556F
:100F300035432CF82350520609D50B78056835F84F
:100F4000232002EA090242EA0A0225F8232074B3A8
:100F50000A8927E040F2064808EBC30834F8084045
:100F6000C4F30904A54203D32D1B8D6102D00BE00D
:100F7000C1F818C0D0F800C03CF823503D4085F4BB
:100F8000005535432CF82350520609D40D780368D8
:100F900033F8252002EA090242EA0A0223F8252052
:100FA0002CB14A8949690068234604F0E4F82046D8
:100FB000BDE8F0872DE9F047054600680C465FEA7A
:100FC00042681646D1F818C02278B0F8508048F62A
:100FD0008F774CF280094FF400434FF6FF7A4FF0C1
:100FE000000140447BD540F2024808EBC20830F8CB
:100FF0000800C0F30900844514D9BCEB000CC4F808
:1010000018C010D0760408D5D5F800C03CF822608E
:101010003E4046EA09062CF8226094F82420012A72
:1010200050D04EE1A161607810B1012813D01AE0D0
:101030002868B0F85030184400EBC200B0F8022421
:1010400022F4F842A0F80224B0F8022442F400424C
:10105000A0F8022407E02868B0F85030184400EBEC
:10106000C200A0F802146278286812B1012A11D0D7
:1010700018E0B0F850100844217800EBC100B0F837
:10108000061421F4F841A0F80614B0F8061441F44F
:10109000004105E0B0F850201044227800EBC20077
:1010A000A0F8061421782846FFF7AFFE7004B8D5E3
:1010B00021782A6832F82100384040EA090022F8F5
:1010C0002100FEE0626902446261E2690244E26179
:1010D0002669226AB24203D33046111A04E038E08E
:1010E00084F824100AB110462162617811B10129F7
:1010F00023D02BE02968B1F850203E2811442278F3
:1011000001EBC20101F2024106D94209C60600D133
:10111000521E43EA82220EE030B14208C30700D0DB
:10112000521C0AEA822206E00A8822F4F8420A8067
:101130000A8842F400420A8008E02968B1F8502089
:101140001144227801EBC201A1F8020483B2228982
:10115000B3E040F2064808EBC20830F80800C0F3DC
:101160000900844514D3BCEB000CC4F818C010D09F
:10117000760408D4D5F800C03CF822603E4046EA28
:1011800009062CF8226094F82420012A50D098E017
:10119000A161607810B1012813D01AE02868B0F876
:1011A0005030184400EBC200B0F8022422F4F84298
:1011B000A0F80224B0F8022442F40042A0F802246D
:1011C00007E02868B0F85030184400EBC200A0F8DF
:1011D00002146278286812B1012A11D018E0B0F820
:1011E00050100844217800EBC100B0F8061421F437
:1011F000F841A0F80614B0F8061441F4004105E0E7
:10120000B0F850201044227800EBC200A0F8061479
:1012100021782846FFF7F9FD700452D42278296816
:1012200031F82200384040EA090021F8220048E065
:10123000626902446261E2690244E2612669226AEB
:10124000B24203D33046111A216204E00AB11046BB
:10125000216284F824106278296812B1012A22D010
:1012600029E0B1F850203E281144227801EBC20158
:1012700001F2064106D94209C60600D1521E43EAD0
:1012800082220EE030B14208C30700D0521C0AEAA5
:10129000822206E00A8822F4F8420A800A8842F490
:1012A00000420A8007E0B1F850201144227801EB97
:1012B000C201A1F80604628983B26169286803F05B
:1012C00075FF2278296831F8220048F6BF7318406C
:1012D00080F0300048F28003184321F822000020FB
:1012E000BDE8F08701F0070101EB810100EBC100CF
:1012F000D0F8840170472DE9F04104460F0601F053
:10130000070000EB800104EBC1014FF001064FF034
:10131000000503D581F82960283103E081F869517F
:1013200001F5B47108700A61CB704A7802B1C881C6
:10133000022B00D10D7194F8A802012809D084F87D
:10134000A862206803F09AFA284684F8A852BDE8FB
:10135000F0810220FBE770B50C4601F0070505EBB4
:10136000850100EBC101C1E95F230022C1F884219E
:1013700081F8692181F8685101F5B471620700684C
:1013800003F0A4FC002070BD70B5044601F0070016
:101390006268904201D9012070BD0B064FF0000534
:1013A0004FF0010207D500EB800104EBC10181F889
:1013B0002920283107E001EB810104EBC10181F80C
:1013C000695101F5B4718A70087094F8A802012877
:1013D00008D084F8A822206803F05FFC84F8A852A3
:1013E000002070BD022070BD70B50C4601F00705ED
:1013F00005EB850100EBC101C1E90F23012281F852
:101400004C208B6400234B6481F8292001F8285F6D
:101410006207006803F05AFC002070BD10B5044656
:10142000006803F0A5FE010404D52046BDE8104085
:1014300001F02ABB41050ED5206830F8441F21F485
:1014400080610180204600F021F92046BDE810406F
:10145000002100F049B9410405D5206830F8441F47
:1014600021F480417DE0810405D5206830F8441FD7
:1014700021F4005175E0C1041FD5206830F8401FE9
:1014800021F004010180206830F8401F21F008019C
:10149000018094F8E002012806D1002084F8E002DF
:1014A00001462046FFF792FC204600F003F9206831
:1014B00030F8441F21F4805153E0010512D5206813
:1014C00030F8401F41F008010180206830F8441FC7
:1014D00021F400610180206830F8401F41F00401D0
:1014E00001800AE0010629D5206830F8441F21F068
:1014F0008001018094F8E00218B1204600F024F940
:1015000010BD206830F8401F41F0040101802068C0
:1015100030F8401F41F008010180012084F8E0020A
:101520002068B0F854003C2101EA9000C4F8E402BD
:101530002046BDE810400121FFF748BC810509D5D0
:10154000206830F8441F21F400710180204600F02B
:10155000C7F810BDC005FCD5206830F8441F21F441
:101560008071018010BD70B586B0040004D094F87D
:10157000A902002518B107E0012006B070BD84F86B
:10158000A852204600F048F8032084F8A9022068F9
:1015900003F03FFB002001260EE000EB800104EB8E
:1015A000C10181F8296001F8280FC881CD700D6153
:1015B0004D61401CC0B28D6161688142EDD8002050
:1015C00011E000EB800104EBC10181F8695181F861
:1015D000680181F86B51C1F87851C1F87C51401C09
:1015E000C0B2C1F8805161688142EAD8142204F186
:1015F00010016846FEF7F1FD94E80F0003F000FBD0
:1016000084F8245084F8A962E069012802D12046B8
:10161000FFF7CAFB0020B0E710B586B004461421DE
:101620006846FEF7F3FD18492068884229D14FF03B
:10163000B044E06C40F00100E064E06C694600F00A
:10164000010005904FF4C05000900220019000204E
:101650000290032003900A2004904FF09040FFF77F
:1016600001FAA06D40F08060A065A06D002200F03E
:101670008060059006211420FFF764FB1420FFF71B
:1016800053FB06B010BD00000068004070B5044672
:1016900080680125022801D0FEF778FF2946D4F89A
:1016A000F00202F0A1FED4F8F002BDE8704002F0B2
:1016B00054BE000010B50446806940B10748016877
:1016C00021F00601016001F013FC02F005FCD4F8E2
:1016D000F002BDE8104002F06DBE000010ED00E029
:1016E000D0F8F00202F070BE10B5044690F8A802DF
:1016F00001280BD0012084F8A80284F82410206867
:1017000003F04DFD002084F8A80210BD022010BD9A
:10171000D0F8F02200F52C71104602F071BE10B521
:10172000044690F8A80201280CD0012084F8A802F1
:10173000206803F00EFD206803F05BFA002084F8B7
:10174000A80210BD022010BD10B50446D0F8F0026A
:1017500002F098FEA069002804D00348016841F017
:101760000601016010BD000010ED00E002480168B4
:1017700041F4806101607047040400580248006829
:1017800000F4C0607047000000040058024801687F
:1017900041F4807101607047000400584FF0B0417F
:1017A0008A6B42F080728A638A6B22F080728A634D
:1017B000D0E90012114382681143C2680A43018ACA
:1017C00042EA014206494A600A68406922F47C52B2
:1017D00042EA00200860086840F060000860704736
:1017E000006000404FF0B040016841F0040101602A
:1017F000704700002DE9F0410F46050077D0794E83
:10180000306800F00700B84212D2306820F00700BC
:1018100038433060FFF72CFA044604E0FFF728FA5B
:10182000001B02287DD8306800F00700B842F5D1CF
:1018300028784FF0B044800715D5A868A16821F03A
:10184000F0010143A160FFF713FA804606E000BFF4
:10185000FFF70EFAA0EB0800022862D8A068C0F3D8
:1018600000400028F4D02878800617D56869D4F89D
:10187000081121F0F0010143C4F80811FFF7F8F94D
:10188000804605E0FFF7F4F9A0EB0800022848D8ED
:10189000D4F80801C0F340400028F3D0287840066F
:1018A00018D5A869D4F8081121F00F0141EA1010E9
:1018B000C4F80801FFF7DCF9804605E0FFF7D8F926
:1018C000A0EB080002287CD8D4F80801C0F300403F
:1018D0000028F3D02878400715D5E868A16821F4DE
:1018E000E0610143A160FFF7C3F9804606E046E0EE
:1018F000FFF7BEF9A0EB0800022862D8A068C0F389
:1019000040400028F4D02878000716D52869A1683F
:1019100021F4605141EAC001A160FFF7A9F98046B6
:1019200006E04EE0FFF7A4F9A0EB0800022848D833
:10193000A068C0F380400028F4D02878C0072CD0DD
:101940006868022805D0032806D0A8B101F032F853
:1019500005E001F029F802E02068C0F3406070B1B2
:101960006868A16821F003010143A160FFF780F9D5
:10197000044641F288380AE001F03BF8EFE7012025
:10198000BDE8F081FFF774F9011B414519D801F05A
:1019900005F86968B0EB810FF4D1306800F00700FA
:1019A000B84215D9306820F0070038433060FFF79F
:1019B0005FF9044607E000BFFFF75AF9001B022851
:1019C00001D90320DCE7306800F00700B842F3D10A
:1019D00000F00CF804490860FFF750F9BDE8F04149
:1019E000FFF770B900400058A400002010B500F0C7
:1019F00033F84FF0B0418968044A01F0F00102EB7E
:101A000091010968B0FBF1F010BD0000F852000828
:101A100010B5FFF7EBFF4FF0B0418968044A01F4BD
:101A2000E06102EB9111097801F01F01C84010BD7F
:101A30007853000810B5FFF7D9FF4FF0B04189681F
:101A4000044A01F4605102EB5121097801F01F01B1
:101A5000C84010BD785300082DE9F04100F09EFF0A
:101A6000224F48B3224C04282ED0A6104FEA640817
:101A70004FF0B045082829D000F0D2FF022808D046
:101A800003282BD000F0ACFF00F0F00007EB900033
:101A90000468E868E968C0F30620604301F070025A
:101AA000012101EB1212B0FBF2F2E86801EB507079
:101AB000B2FBF0F0BDE8F08100F092FF00F0F00022
:101AC00007EB90000068F5E72046F3E72868C0F3CD
:101AD000005008B13046EDE74046EBE72868C0F318
:101AE000005008B13446D4E74446D2E738530008E2
:101AF0000024F4002DE9F04104007DD020784FF05F
:101B0000B045800661D500F049FF064600F088FF29
:101B100076B10C2E01D101280AD0E069002828688E
:101B200042D040F001002860FFF7A2F8064630E0FE
:101B300000F05FFF10B1E0690028DED000F050FF38
:101B40000146606A81420AD201F0A4F9002853D10B
:101B5000606A00F05DFF206A00F051FF09E000F0CC
:101B600057FF206A00F04BFF606A01F093F90028EC
:101B7000EDD1FFF73BFFF7490860F7480068FFF732
:101B8000A1F80028E3D120E0FFF772F8801B0228BB
:101B900074D800F02EFF0028F6D0606A00F038FFFD
:101BA000206A00F02CFF10E020F001002860FFF711
:101BB0005FF8064605E000BFFFF75AF8801B0228D1
:101BC000E6D800F016FF0028F6D12078C0073CD0F8
:101BD00000F0E4FE064600F023FF082E13D00C2E82
:101BE00001D103280FD06068B0F5803F286811D07C
:101BF00020F48030286000E008E26068C0B1FFF7A0
:101C000037F806460FE000F0CFFEF0B1606800281C
:101C100093D01AE040F48030ECE700BFFFF728F8DB
:101C2000801B6428B4D800F0BFFE0028F6D00CE07A
:101C3000FFF71EF8064604E0FFF71AF8801B642839
:101C4000A6D800F0B1FE0028F6D1207880073CD558
:101C500000F0A4FE064600F0E3FE042E0FD00C2E8A
:101C600001D102280BD0E068002828681CD040F47D
:101C700080702860FEF7FCFF064610E03AE100F0B5
:101C800099FE10B1E0680028C2D0206900F098FEEB
:101C90001BE000BFFEF7ECFF801B022890D800F08D
:101CA00089FE0028F6D0F0E720F480702860FEF767
:101CB000DFFF064605E000BFFEF7DAFF801B0228C3
:101CC000B0D800F077FE0028F6D12068010701D4D3
:101CD000C1064ED56169E1B3C0064BD500F079FE6F
:101CE00098B9D5F8940040F00100C5F89400FEF7CB
:101CF000BFFF064605E000BFFEF7BAFF801B0228C3
:101D000090D800F066FE0028F6D0D5F8940040F098
:101D10000400C5F89400FEF7ABFF064605E000BFDF
:101D2000FEF7A6FF801B03288AD8D5F89400C0F3DD
:101D3000C0000028F4D0A069D5F8941021F4706197
:101D400041EA0020C5F89400D5F8940020F0010085
:101D500000E035E0C5F89400FEF78AFF064604E08F
:101D6000FEF786FF801B022898D800F032FE00287C
:101D7000F6D14EE0D5F8940040F00100C5F894008B
:101D8000FEF776FF064604E0FEF772FF801B02288E
:101D900084D800F01EFE0028F6D0D5F8940020F07C
:101DA0000400C5F8940004E0FEF762FF801B0328DE
:101DB00086D8D5F89400C0F3C0000028F4D128E0FC
:101DC000D5F8940020F00400C5F89400FEF750FF09
:101DD000064604E0FEF74CFF801B032890D8D5F898
:101DE0009400C0F3C0000028F4D1D5F8940020F08E
:101DF0000100C5F89400FEF73BFF064605E000BF72
:101E0000FEF736FF801B022874D800F0E2FD0028A0
:101E1000F6D12078400750D5504F3868C0050DD412
:101E2000FFF7B4FCFEF724FF064604E0FEF720FFB0
:101E3000801B02285ED83868C005F7D5A068012845
:101E400016D00528D5F8900017D020F00100C5F86D
:101E50009000D5F8900020F0040000BFC5F8900075
:101E6000A06841F28836C8B1FEF702FF07460EE0CF
:101E7000D5F8900040F00100F0E740F00400C5F80C
:101E80009000F5E7FEF7F4FEC01BB04232D8D5F85B
:101E90009000C0F340000028F4D00EE0FEF7E8FE0A
:101EA000074604E0FEF7E4FEC01BB04222D8D5F896
:101EB0009000C0F340000028F4D1207840062ED5D1
:101EC000A06A0028D5F8980015D040F00100C5F8A8
:101ED0009800FEF7CDFE064605E000BFFEF7C8FEFF
:101EE000801B022806D8D5F89800C0F340000028CF
:101EF000F4D014E089E020F00100C5F89800FEF766
:101F0000B7FE064605E000BFFEF7B2FE801B0228C2
:101F10007BD8D5F89800C0F340000028F4D1E06ADF
:101F2000F0B300F03BFD0146E868E26A022A19D0EE
:101F30000C296BD0286820F080702860E86820F0B9
:101F40000300E860E86806490840E860FEF790FE94
:101F5000044687E0A40000209C00002000040058F4
:101F6000FFFFFEEE236B00F003029A421AD1636B6F
:101F700000F070029A4215D1A26BC0F306239A4278
:101F800010D1E36B00F478129A420BD1236C00F06D
:101F900060629A4206D1626C00F06040904200E0BC
:101FA00056E03ED00C2962D0286840015FD42868F2
:101FB00020F080702860FEF75BFE064605E000BF5B
:101FC000FEF756FE801B022849D828688001F7D406
:101FD000D4E90C010843D4E90E2141EA0221084367
:101FE000216C0843616C0843E968224A11400843A8
:101FF000E860286840F080702860E86840F0805011
:10200000E860FEF735FE044607E028E02FE000BF59
:10201000FEF72EFE001B022821D828688001F7D584
:1020200023E02868800120D4286840F08070286070
:10203000E86840F08050E860FEF71AFE044604E0CD
:10204000FEF716FE001B022809D828688001F7D584
:102050000BE000BFFEF70CFE001B022802D9032094
:10206000BDE8F08128688001F4D40020F8E7012061
:10207000F6E700008C80C11110B5401EB0F1807FE2
:1020800001D3012010BD4FF0E02460610F216017E3
:1020900003F0A8F80020A06107202061002010BDF7
:1020A00070477047704710B5040003D094F83D00A6
:1020B00010B107E0012010BD002084F83C0020464C
:1020C00000F022F8022084F83D00211D206800F075
:1020D00065FF012084F8480084F83E0084F83F0042
:1020E00084F8400084F8410084F8420084F84300FA
:1020F00084F8440084F8450084F8460084F84700DA
:1021000084F83D00002010BD08B54FF0B040816D4F
:1021100041F001018165806D002200F00100009016
:1021200003211C20FEF70EFEBDE808401C20FEF730
:10213000FBBD000090F83D10012901D0012070473F
:10214000022180F83D100168CA6842F00102CA60AD
:1021500000680A49884202D0B0F1804F07D18168F7
:10216000074A1140062906D0B1F5803F03D0016827
:1021700041F001010160002070470000002C014087
:1021800007000100704770B50446006801694FF010
:102190000005C943890715D4C168C943890711D40B
:1021A000E91E0161012020772068806980072046B0
:1021B00002D0FFF7E7FF04E000F0A7F8204600F0A8
:1021C000A5F8257720680169C943490717D4C16874
:1021D000C943490713D46FF004010161022020773D
:1021E0002068806910F4407F204602D0FFF7CAFFC4
:1021F00004E000F08AF8204600F088F8257720688F
:102200000169C943090716D4C168C943090712D433
:102210006FF008010161042020772068C069800701
:10222000204602D0FFF7AEFF04E000F06EF8204633
:1022300000F06CF8257720680169C943C90617D4F6
:10224000C168C943C90613D46FF0100101610820A9
:1022500020772068C06910F4407F204602D0FFF745
:1022600091FF04E000F051F8204600F04FF8257788
:1022700020680169C943C90708D1C168C943C907B2
:1022800004D1891E0161204600F042F820680169EE
:10229000C943090609D4C168C943090605D46FF0CA
:1022A000800101612046FFF7FCFE20680169C943F7
:1022B000C90509D4C168C943090605D46FF4807102
:1022C00001612046FFF7ECFE20680169C943490619
:1022D00009D4C168C943490605D46FF040010161C2
:1022E000204600F03BF820680169C94389060BD4F9
:1022F000C168C943890607D46FF0200101612046F7
:10230000BDE87040FFF7CEBE70BD7047704700005B
:1023100070B50F4CD4E90010884218D002D9C0F52E
:10232000006501E0A1EB00050A492A4601440A487C
:1023300001F04DFD084801F0B4FD002807D16068A8
:1023400028446060B0F5006F01D10020606070BD6E
:1023500058000020380F00201418002070477047E4
:1023600070477047704770B504001CD02420C4F833
:1023700084002068016821F00101016020680025C7
:1023800005602068456020688560204600F0B6F949
:10239000C4F88C50C4F88450C4F8885044F86C5F7A
:1023A0000020257570BD012070BDFEF7EFB800005C
:1023B0002DE9F04103680446D86919689A6840F627
:1023C0000F0528424FF0000509D186067ED501F0A1
:1023D000200602F080573E4378D0216F27E1A94EB6
:1023E000A94F16400F40374370D0C70709D0CF051B
:1023F00007D501271F62D4F88C3043F00103C4F8DD
:102400008C3083070AD5D30708D0276802233B62A4
:10241000D4F88C3043F00403C4F88C3043070AD559
:10242000D30708D0276804233B62D4F88C3043F0EC
:102430000203C4F88C3003070CD501F020033343AA
:1024400008D0266808233362D4F88C3043F00803A0
:10245000C4F88C3003050BD54B0109D526684FF421
:1024600000633362D4F88C3043F02003C4F88C301E
:10247000D4F88C30002B3AD0800609D501F020002A
:1024800002F08051084303D0216F09B120468847EC
:10249000D4F88C0021688968490602D410F0280F0E
:1024A00027D0204600F0CAFE2068806840061BD571
:1024B0002068083050E8001F21F0400140E8001279
:1024C000002AF5D1E06F78B1704900E017E0816330
:1024D000E06FFEF796F8002809D0E06F816B00E00E
:1024E0002046BDE8F04108472046FFF75EFFBDE803
:1024F000F0812046FFF759FFC4F88C50F7E7E76EEC
:102500002026012F7ED1C7067CD5CF067AD5102094
:10251000186220688068400642D5E16F086840680C
:102520000004000CE3D0B4F85C208242DFD9A4F8A8
:102530005E000868006880062BD4206850E8001F01
:1025400021F4807140E80012002AF6D1206808309A
:1025500050E8001F21F0010140E80012002AF5D1E7
:102560002068083050E8001F21F0400140E80012C8
:10257000002AF5D1C4F88860E566216851E8000FAB
:1025800020F0100041E80002002AF6D1E06FFEF7CB
:1025900001F8B4F85C00B4F85E10401A81B22CE087
:1025A000B4F85C00B4F85E10401A81B2B4F85E0072
:1025B00000289CD000299AD0226852E8000F20F40D
:1025C000907042E80003002BF6D12E4BDB432068CD
:1025D000083050E8002F1A4040E80027002FF6D1BD
:1025E000C4F88860E5662567226852E8000F20F08D
:1025F000100042E80003002BF6D12046FFF7AFFEA3
:1026000075E7FFE7C70209D5570207D54FF48010D9
:1026100018622046BDE8F041FFF7A4BE03060AD5C4
:1026200001F0800302F40002134304D0616F00291B
:102630007FF456AF5BE7420611D54A060FD5204618
:10264000016851E8002F22F0400241E80023002BEE
:10265000F6D1C0F88460456700F05EF947E70202F2
:1026600006D54A0004D52046BDE8F041FFF779BE03
:10267000C001C5D50029C3DA2046BDE8F041FFF707
:102680006FBE000001000010200100048D31000821
:1026900010B5040003D0D4F8840010B107E0012085
:1026A00010BD002084F88000204600F04BF8242064
:1026B000C4F884002068016821F00101016020460F
:1026C00001F014F80128EBD0A06A10B1204600F008
:1026D000C9FC2068416821F490414160206881680C
:1026E00021F02A0181602068016841F00101016048
:1026F0002046BDE8104000F019BD000010B54FF0B5
:10270000B040016C41F480410164016C21F48041CE
:1027100001640A4C40212046FEF706F9802120463C
:10272000FEF702F90648FDF7A5FF0B20FEF7EBFACE
:10273000BDE810400C20FEF7E6BA00000004004897
:10274000E41A0020F0B5054687B0022000F012F927
:10275000022000F00FF94FF0B040016E41F48041CB
:102760000166006E00F480400590012000F0F8F84A
:10277000042000F0F5F84020009002200190012094
:10278000029003200724CDE90304184F6946384618
:10279000FEF768F980266946384600960494FEF7ED
:1027A00061F9002205212420FEF7CCFA2420FEF74F
:1027B000BBFA104C0E48002144F8080B102043C40B
:1027C0000F2044F81419A161E16121626060094899
:1027D000FEF702F8AC67002206210B20A562FEF787
:1027E000B1FA0B20FEF7A0FA07B0F0BD00040048D4
:1027F00008000240E41A002030B4D0F88830202BC2
:1028000020D1E1B1DAB190F88030012B1AD0012348
:1028100080F880300023C3660B4C0368A3420BD0C2
:102820005B681B0208D5046854E8003F43F08063EE
:1028300044E80035002DF6D130BC01F057B8012036
:1028400030BC70470220FBE700800040074A116857
:10285000491C1160B1F5006F01D1002111600449DC
:10286000126811440122FFF7C7BF00005800002082
:10287000380F002070B50446D0F88400202842D1DB
:1028800071B36AB394F8800001283CD0012084F829
:1028900080002165A4F85420A4F856200025C4F82F
:1028A0008C502120C4F88400A06FD8B11749C162B0
:1028B000A16F174813460863A16F16484863A06FBD
:1028C00085632668216D06F12802A06FFDF7E6FFFB
:1028D00040B11020C4F88C0004F8805F20206060B4
:1028E000012070BD21684020086284F88050206873
:1028F000083050E8001F41F0800140E80012002A33
:10290000F5D1002070BD022070BD0000F13100083B
:1029100033320008A1310008014801F017BA000065
:10292000141800207047FEE7F0B500230A24302574
:1029300037261F4611E000BFB4EB107F02D905EB2C
:10294000107C01E006EB107C01F813C001EB430C96
:1029500000015B1C8CF80170DBB29342ECD3F0BD3C
:1029600008B54FF0B0418A6C02438A64896C01401B
:10297000009108BD08B54FF0B041CA6C0243CA646B
:10298000C96C0140009108BD08B54FF0B041CA6C58
:102990000243CA64C96C0140009108BD4FF0B040C9
:1029A000806800F00C0070474FF0B0400068C0F342
:1029B000404070474FF0B0400068C0F3802070473F
:1029C0004FF0B0414A6822F0FE4242EA006048609F
:1029D00070474FF0B040D0F89400C0F3400070470B
:1029E0004FF0B040006800F0F000B02800D9B020EF
:1029F00070474FF0B0400068C0F3400070474FF0A0
:102A0000B0414A6822F47F4242EA002048607047A1
:102A10004FF0B0410A6822F0F00202430A607047AA
:102A20004FF0B040C06800F00300704710B501F0EF
:102A300053FA00220F49104801F076FB08B1FDF768
:102A4000A5FD0E490C4801F045FD08B1FDF79EFDBE
:102A50000B49094801F08EF908B1FDF797FD0648CA
:102A600001F0B2FD002803D0BDE81040FDF78EBD97
:102A700010BD000008000020141800208401002070
:102A80006C000020FEE7FEE72DE9F84F044640F613
:102A90008F7A40F2064B48F60F784FF00009A7E115
:102AA000B0F8441011F00F0539D030F8256031042A
:102AB0007ED530F8251001EA0A0141F0800120F8A6
:102AC000251005EB850004EBC00797F8740107F5A6
:102AD000B47700286DD0F87802286BD03A78216856
:102AE00031F8220048F68F73184048F2C0031843AB
:102AF00021F822003978206830F821205204B0F8FB
:102B0000502002EB00037DD540F2024202EBC101EE
:102B1000595A8905890D009175D03A89C7E0C906CF
:102B20002CD4018801EA080141F4004101802068A9
:102B300004F12805B0F850102A78014440F2024010
:102B400000EBC200085AC0F309006064E16B014465
:102B5000E16300212046FEF758F994F8240000288C
:102B60009DD0A86900289AD194F8240040F08001F3
:102B70002068A0F84C1084F8249039E1018804F50D
:102B8000B4750A051ED5B0F850102A7801440BEB35
:102B9000C200085A04F52C71C0F30903EB61EA88FE
:102BA000206802F0E8FA2168088800EA0A0002E0DA
:102BB00098E05FE06CE040F0800008802046FEF77F
:102BC000A7FD15E10904D8D5018801EA0A0141F001
:102BD000800101802068B0F850102A7801440BEB86
:102BE000C200085A83059B0DEB6110D0696971B171
:102BF000EA88206802F0BFFAE969686908440021A0
:102C0000686101E04BE049E02046FEF707F92068E3
:102C100001880905B1D4B0F850100844296900F2C0
:102C200006403E2908D94A09C90600D1521E4FF470
:102C3000004141EA822108E0A1B14A08C90700D059
:102C4000521C4FF6FF7101EA822101802168088839
:102C50004BF68F72104080F4405048F280021043CF
:102C60000880C5E0018821F4F8410180018841F421
:102C70000041EAE72068B0F850103B780A180BEBE7
:102C8000C301515A8905890D009114D0FA880EE0CC
:102C9000324639462046FEF71FF900900BE00BEB59
:102CA000C101595A8905890D009104D07A89796941
:102CB000009B02F060FAF96900980844F8617969AC
:102CC000009808447861B86918B139690098814260
:102CD00004D939782046FEF7A1F803E03946206888
:102CE00001F0F4FF300677D505EB850004EBC00159
:102CF000206830F8252002EA080242F4004220F859
:102D0000252091F82B002831022848D0C1F81890CE
:102D1000087B4A4608B3700620D5487810B10128D0
:102D200012D03AE02068B0F8502010440A7800EB46
:102D3000C200B0F8022422F4F842A0F80224B0F84D
:102D4000022442F4004206E02068B0F850301844F3
:102D50000B7800EBC300A0F802241EE04B7820683B
:102D600013B1012B11D018E0B0F8502010440A78AC
:102D700000EBC200B0F8062422F4F842A0F80624C2
:102D8000B0F8062442F4004205E0B0F85030184490
:102D90000B7800EBC300A0F80624097820E0F005CA
:102DA00022D42068B0F850200B78104440F2024240
:102DB00002EBC302805A8A69C0F3090082420CD92F
:102DC000121A8A610BD04A6902444A61CA691044E6
:102DD000C861206801F07AFF0AE0C1F81890D9B202
:102DE0002046FEF712F803E032462046FEF7E2F8EE
:102DF0002068B0F8441009043FF552AE0020BDE849
:102E0000F88F704770B5214A8EB00DF1100C78CA5A
:102E10008CE8780038CA08AE86E838003CCA8DE8ED
:102E20003C000024B1F5007F6A46214607D008AB7C
:102E300053F8215085420BD352F821400BE004ABEC
:102E400053F821508542F7D2491C0429F8D302E0F7
:102E5000491C0329ECD30E4E306820F007002043B4
:102E60003060FDF705FF054608E000BFFDF700FFF5
:102E7000401B022802D903200EB070BD306800F05C
:102E80000700A042F2D10020F6E70000CC52000873
:102E90000040005810B50F49B02801D9C86A03E0B6
:102EA0003C2202EA900008584FF0B041D1F80811D6
:102EB000094A01F00F0152F82110B0FBF1F4FEF7BE
:102EC0005DFC01460548B4FBF0F0BDE81040FFF79B
:102ED00099BF000038530008F852000840420F0024
:102EE00070470178407841EA00207047FDF7CCBE7A
:102EF00010B59AB048216846FDF788F91C2112A840
:102F0000FDF784F91B48016821F4C06141F40071A8
:102F1000016000680024602200F4C060CDE908422E
:102F200019902020012107910090CDE90D408003E8
:102F30000F90800211904FF0C06010900222CDE9F6
:102F40000B216846FEF7D6FD70B96F201290032062
:102F5000CDE913048020CDE916401594032112A871
:102F60001894FEF747FC08B1FDF710FBFEF73AFC9A
:102F70001AB010BD0004005804490020086003483E
:102F80008030016841F470010160704708ED00E095
:102F90000148FFF7F8B80000C817002070B50268B4
:102FA000164B4FF08046984201D0B04203D122F038
:102FB00070044A682243124C124D984205D0B04228
:102FC00003D0A04201D0A84203D122F44076CA68BF
:102FD00032434E6922F08002324302608A68C26244
:102FE0000A688262984203D0A04201D0A84201D16F
:102FF000096901630121416170BD0000002C01409D
:103000000044014000480140134810B5006842F2F6
:103010001071B0FBF1F01149401E886010484FF06C
:103020008042026042F20F72C260896841600021F2
:103030000161816041618161FFF735F808B1FDF7F9
:10304000A5FA0748FFF776F8002803D0BDE810403E
:10305000FDF79CBA10BD0000A4000020580000201D
:10306000C817002090F82810C90706D001684A68E0
:10307000C36A22F400321A434A6090F82810890784
:1030800006D501684A68036B22F480321A434A600D
:1030900090F82810490706D501684A68436B22F466
:1030A00080221A434A6090F82810090706D5016863
:1030B0004A68836B22F400421A434A6090F8281051
:1030C000C90606D501688A68C36B22F480521A4388
:1030D0008A6090F82810890606D501688A68036C12
:1030E00022F400521A438A6090F82810490611D53C
:1030F00001684A68436C22F480121A434A60416CAA
:10310000B1F5801F06D101684A68836C22F4C002C1
:103110001A434A6090F82810090606D501684A68E3
:10312000C06C22F4002202434A607047F8B50026C2
:103130000446C0F88C60FDF79BFD054620680068DA
:103140006FF07E47000708D52B4600224FF4001190
:103150002046009700F048FC60B9206800684007EE
:103160000AD52B4600224FF480012046009700F03C
:103170003BFC08B10320F8BD2020C4F88400C4F84B
:10318000880044F86C6F00202675F8BD10B5806A81
:103190000021A0F85E10A0F85610FFF706F910BD48
:1031A00070B5846AD4F88400D4F88850216889689E
:1031B0004FF00006090606D5212804D1A4F8566070
:1031C000204600F065F820688068400606D5222D6C
:1031D00004D1A4F85E60204600F030F8D4F88C00EA
:1031E00040F01000C4F88C002046FFF7DEF870BDF8
:1031F00010B50146806A09680968890616D400215D
:10320000A0F856100168083151E8002F22F0800222
:1032100041E80023002BF5D1026852E8001F41F07D
:10322000400142E80013002BF6D110BDFFF774FBFC
:1032300010BD10B5806AFFF775FB10BD10B50268B0
:1032400052E8001F21F4907142E80013002BF6D1E0
:103250000E4B0268083252E8001F194042E8001481
:10326000002CF6D1C16E012908D1016851E8002F68
:1032700022F0100241E80023002BF6D12021C0F8F3
:1032800088100021C166016710BD0000FEFFFFEF3E
:10329000026852E8001F21F0C00142E80013002B31
:1032A000F6D10168083151E8002F22F4000241E80C
:1032B0000023002BF5D12021C0F88410704710B5F1
:1032C000B0F86020D0F888300168222B04D08869DB
:1032D00040F00800886110BD496A836D1140198073
:1032E000816D891C8165B0F85E10491EA0F85E10E2
:1032F000B0F85E100029EED1026852E8001F21F4F8
:10330000907142E80013002BF6D10168083151E8B2
:10331000002F22F0010241E80023002BF5D12021EB
:10332000C0F8881000210167C26E012A02D0FFF7A1
:103330008DFA10BDC166026852E8001F21F010012D
:1033400042E80013002BF6D10168CA69D243D206C5
:1033500001D410220A62B0F85C10FFF700F810BD2B
:103360002DE9F0470446B0F860600068C569D0F800
:1033700000A0D0F80880D4F88810222905D08169EF
:1033800041F008018161BDE8F087B4F868704FF042
:10339000000963E02068406AA16D30400880A06D9C
:1033A000801CA065B4F85E00401EA4F85E00206892
:1033B000C569690730D0E9070AD05FEACA5107D565
:1033C00001210162D4F88C0040F00100C4F88C00A7
:1033D000A8070BD55FEAC87008D0216802200862F0
:1033E000D4F88C0040F00400C4F88C0068070BD5BA
:1033F0005FEAC87008D0216804200862D4F88C0005
:1034000040F00200C4F88C00D4F88C0020B12046B3
:10341000FEF7CBFFC4F88C90B4F85E00F0B92168D9
:1034200051E8000F20F4807041E80002002AF6D134
:10343000264A2068083050E8001F114040E8001379
:10344000002BF6D12020C4F88800C4F87090E16EFB
:103450004846012923D02046FFF7F8F90FB1A80606
:1034600098D4B4F85E0000288DD0B4F8681081427A
:1034700089D92068083050E8001F21F0805140E8C9
:103480000012002AF5D112482067206850E8001F7A
:1034900041F0200140E80012002AF6D173E7E0660F
:1034A000216851E8000F20F0100041E80002002AD6
:1034B000F6D12068C169C943C90601D4102101624F
:1034C000B4F85C102046FEF74AFFC7E7FEFFFFEFA7
:1034D000BF32000810B5B0F86020D0F8883001681D
:1034E000222B04D0886940F00800886110BD496A29
:1034F0001140826D1170816D491C8165B0F85E10BC
:10350000491EA0F85E10B0F85E100029EED10268E6
:1035100052E8001F21F4907142E80013002BF6D10D
:103520000168083151E8002F22F0010241E8002330
:10353000002BF5D12021C0F8881000210167C26E50
:10354000012A02D0FFF782F910BDC166026852E875
:10355000001F21F0100142E80013002BF6D1016892
:10356000CA69D243D20601D410220A62B0F85C10B4
:10357000FEF7F5FE10BD00002DE9F0470446B0F857
:1035800060600068C569D0F800A0D0F80880D4F861
:103590008810222905D0816941F008018161BDE8C8
:1035A000F087B4F868704FF0000963E02068406A63
:1035B000A16D30400870A06D401CA065B4F85E009D
:1035C000401EA4F85E002068C569690730D0E9078D
:1035D0000AD05FEACA5107D501210162D4F88C00F4
:1035E00040F00100C4F88C00A8070BD55FEAC87052
:1035F00008D0216802200862D4F88C0040F0040052
:10360000C4F88C0068070BD55FEAC87008D0216841
:1036100004200862D4F88C0040F00200C4F88C004A
:10362000D4F88C0020B12046FEF7BFFEC4F88C9081
:10363000B4F85E00F0B9216851E8000F20F4807002
:1036400041E80002002AF6D1264A2068083050E8F6
:10365000001F114040E80013002BF6D12020C4F8D1
:103660008800C4F87090E16E4846012923D02046B6
:10367000FFF7ECF80FB1A80698D4B4F85E00002864
:103680008DD0B4F86810814289D92068083050E89C
:10369000001F21F0805140E80012002AF5D11248A5
:1036A0002067216851E8000F40F0200041E8000247
:1036B000002AF6D173E7E066216851E8000F20F098
:1036C000100041E80002002AF6D12068C169C94310
:1036D000C90601D410210162B4F85C102046FEF73F
:1036E0003EFEC7E7FEFFFFEFD53400082DE9F041AD
:1036F000044600682269A168E669114362690025F1
:1037000032431143724B0268724E32400A430260E8
:1037100020684168E26821F440511143416021680A
:10372000A069994201D0226A10438A686A4E3240E9
:1037300002438A602068C16A626A21F00F01114366
:10374000C1626649D4F800C04FF0B0408C450DD13D
:10375000D0F8880010F0030006D001281DD0022800
:1037600019D003281BD112E0012119E09C4516D184
:10377000D0F888004FF4406110F4406009D0B0F5F3
:10378000806F0AD0B0F5006F05D0884207D10821BC
:1037900006E0002104E0022102E0042100E0102103
:1037A0004F4A504F00264FF400409C4531D131B173
:1037B000022907D0042907D008297AD107E0FEF7AB
:1037C00027F903E0104602E0FEF746F978B3616A94
:1037D00037F811206768B0FBF2F107EB47038B4223
:1037E00067D8B1EB073F64D800231946FCF7C4FC47
:1037F000090241EA106102027808101871413A4644
:103800000023FCF7B9FC384AA0F54071914252D927
:103810004FE0E3694FF6EF7883422AD1012907D0C0
:10382000022908D0042908D0082942D108E041E043
:10383000FEF700F903E0104602E0FEF70DF9C8B309
:10384000616A37F81110B0FBF1F04100606801EBDC
:103850005001B1FBF0F080B2A0F11001414528D831
:103860004FF6F0710140C0F3420001432068C1608F
:1038700023E0012906D0022907D0042907D008290E
:1038800017D107E0FEF7D6F803E0104602E0FEF796
:10389000E3F878B1616A37F81110B0FBF1F16068B4
:1038A00001EB5001B1FBF0F080B2A0F110014145F5
:1038B00001D9012501E02168C8600120A4F86A004F
:1038C00024F8680F2846A660E660BDE8F081000095
:1038D00000800040F369FFCFFFF4FF110038014082
:1038E0000024F400B4520008FFFC0F0070B581659D
:1038F000A0F85C20A0F85E200021016783684FF4E7
:103900008056FF24B34204D10369FBB940F2FF1390
:1039100022E07F25C3B1B3F1805F1AD0A0F8601018
:10392000C0F88C102223C0F888300368083353E8AD
:10393000004F44F0010443E80045002DF5D1436EEB
:10394000B3F1005F0ED030E0036943B9A0F86040E6
:10395000E6E703691BB13F23A0F86030E0E7A0F879
:103960006050DDE7B0F8683093421ED88268B242FA
:1039700001D10269BAB1184A026780F88010026862
:1039800052E8001F41F4807142E80013002BF6D189
:103990000168083151E8002F42F0805241E80023CD
:1039A000002BF5D113E00D4AE6E78268B24201D15F
:1039B000026972B10A4A026780F88010026852E810
:1039C000001F41F4907142E80013002BF6D1002053
:1039D00070BD044AEFE70000793500086133000844
:1039E000D5340008BF3200082DE9F0479A46174643
:1039F0000E4604464FF000094FF02008089D4AE0AB
:103A0000681C48D0FDF734F9A0EB0A00A8422AD878
:103A10004DB32068016849073DD5C069C043000522
:103A200039D421684FF400600862206850E8001F14
:103A300021F4D07140E80012002AF6D12068083045
:103A400050E8001F21F0010140E80012002AF5D1E2
:103A500044F8848FC4F80480C4F8088004F8049CF7
:103A60000320BDE8F087216851E8000F20F4D070F2
:103A700041E80002002AF6D12068083050E8001F13
:103A800021F0010140E80012002AF5D144F8848FAA
:103A9000C4F80480E2E72068C06936EA000004D078
:103AA0000020B842ACD00020DBE70120F9E700009D
:103AB0000148FEF77DBC00003817002010B50A460B
:103AC000024903A000F000FB004810BDD40600200E
:103AD00043444320436F6E66696700002DE9F0415F
:103AE0000C46D0F8C422D0F8BC12E9B104EB84062D
:103AF00000EB86050027AB693BB102EBC602926B77
:103B0000B3FBF2F602FB163282B1C1F81472D0F8A0
:103B1000C00203692BB1D1F80802224601F50471F5
:103B200098470020BDE8F0810320FBE700231A46F8
:103B30002146AF6100F0AFFCF3E770B5D0F8BC42AE
:103B400005466CB100F09FFBC4F80C02D5F8C0121A
:103B5000D4F80402CA6804F503719047002070BDD0
:103B6000032070BD70B50446812100F0F9FA0025EC
:103B700025870121204600F0F3FAA4F8785182212C
:103B8000204600F0EDFAA4F84C50A4F84E50D4F8BA
:103B9000BC0248B1D4F8C00204F52F7440688047D5
:103BA000206800F066FE2560002070BD12200880AD
:103BB000004870472800002010B5D0F8BC4284B1FE
:103BC000D0F8C01259B194F80002FF2807D08B68D2
:103BD00094F8012221469847FF2084F80002002033
:103BE00010BD032010BD00000A210180004870476D
:103BF000AC0000204321018000487047FC000020F9
:103C00004321018000487047B80000204321018013
:103C100000487047400100202DE9F04704464FF46A
:103C2000077000F027FE05004FF0000735D0C4F8FC
:103C3000BC52207C4FF010084FF40079012680B36D
:103C4000402302228121204600F072FB2687402378
:103C500002220121204600F06BFBA4F87861A4F851
:103C60004E80082303228221204600F061FBA4F845
:103C70004C60D4F8C00200688047C5F81472C5F8DB
:103C80001872207CD5F80422A8B1402301212046D7
:103C900000F05AFB0020BDE8F0870220C4F8BC7297
:103CA000F9E7FFE74B4602228121204600F040FB66
:103CB00026874B46CCE74B46E8E7000010B50A469E
:103CC000024903A000F000FA004810BDD40600200D
:103CD00043444320496E7465726661636500000069
:103CE00004200880004870472400002010B50A46D0
:103CF000024903A000F0E8F9004810BDD4060020F6
:103D000053544D6963726F656C656374726F6E694D
:103D10006373000010B50A46024903A000F0D4F90D
:103D2000004810BDD406002053544D33322056694C
:103D3000727475616C20436F6D506F727420696E80
:103D4000204653204D6F64650000000010B5D0F888
:103D5000BC1251B1027C002AD1F8042207D04023C2
:103D6000012100F0F1FA002010BD032010BD4FF436
:103D70000073F5E719B1C0F8C012002070470320A6
:103D80007047000010B51A2008800A480168001D1D
:103D90000468001D0068081809D008220649FEF7CB
:103DA000C3FD0549042210312046FEF7BDFD02483F
:103DB000801E10BD9075FF1F3E000020D0F8BC0291
:103DC00018B1C0F804120020704703207047D0F8E3
:103DD000BC0228B1C0F81022C0F8081200207047B9
:103DE000032070472DE9FC410646D0F8BC72002044
:103DF0000C468DF80000ADF80400054637B1207878
:103E000010F0600128D0202944D102E00320BDE851
:103E1000FC81E288C2B1000660780AD5D6F8C012EB
:103E20008B6839469847E288072A00D90722394625
:103E300028E087F80002A07987F80102E288394675
:103E4000304600F09CF82AE0D6F8C01260780022D4
:103E50008B682146984722E0607830B101281ED057
:103E60000A2809D00B2815D110E096F89C020328E7
:103E700010D1022201A905E096F89C02032809D17D
:103E800001226946304600F094F808E096F89C025A
:103E9000032804D02146304600F066F80325284662
:103EA000B5E710B5D0F8BC12012219B1D1F814321F
:103EB00013B10FE0032010BD0122C1F81422D1F884
:103EC0001022C262D1F81032D1F80822812100F00C
:103ED000E2FA0022104610BD10B59AB0482168469B
:103EE000FCF794F9182112A8FCF790F940200090F3
:103EF00001200024CDE90A046846FDF7FBFD08B166
:103F0000FCF744FB4FF0B040816D41F0807181655A
:103F1000806D00F0807018904FF00050CDE9124095
:103F20004BF67F301590222016902020179012A873
:103F3000FDF734FC1AB010BD10B5D0F8B8220AB1A4
:103F400052689047002010BD134610B50A46002164
:103F500000F0FAF9002010BD134610B50A46002102
:103F600000F099FA002010BD10B50446802100F041
:103F700077FA2046BDE81040002100F071BA10B574
:103F80000323C0F89432C0F858211346C0F85C21CE
:103F90000A46002100F0D8F9002010BD10B5052117
:103FA000C0F8941200231A46194600F0CDF90020FB
:103FB00010BD10B50223C0F8943282611346C2616D
:103FC0000A46002100F067FA002010BD10B5042158
:103FD000C0F8941200231A46194600F05CFA00203B
:103FE00010BDF8B504460020ADF8000048880D4625
:103FF000010A08295FD2DFE801F05E0409175E5E5E
:104000003C45D4F8B412207C0A6819E0207C0226D2
:104010000028D4F8B80205D0C16A6846884701462E
:10402000467039E0816AF8E7C0B2062843D2DFE87B
:1040300000F0030A1014181CD4F8B402426805E01A
:10404000694690471CE0D4F8B402826892B3207CA1
:10405000F6E7D4F8B402C268F8E7D4F8B40202690B
:10406000F4E7D4F8B4024269F0E7D4F8B402826904
:10407000ECE7207CF0B9D4F8B802416B6846884779
:10408000014609E0207CA8B9D4F8B802016B684663
:104090008847014607204870EA888AB1BDF80000C9
:1040A00040B1824200D90246ADF800202046FFF719
:1040B00080FFF8BDFFE729462046FFF755FFF8E7E8
:1040C0002046FFF783FFF4E770B5002300281ED0D9
:1040D0000025044602E06D1CEDB2641C2678002E1B
:1040E000F9D1022404EB450414801278CA545B1CF5
:1040F0000322CA5400245B1C06E0CA545B1CDAB2DB
:104100008C54521CD3B2401C0278002AF5D170BDE9
:1041100001004FF0000004D0012901D0022901D094
:10412000032070470120704778B10023C0F8B832EF
:10413000C0F8C032C0F8CC3209B1C0F8B4120121C5
:1041400080F89C12027000F0A3B80320704710B5ED
:10415000D0F8C402FCF792FEBDE81040FFF7D8BFCC
:1041600010B5D0F8C402FCF763FEBDE81040FFF7BD
:10417000CFBF70B51646044621B194F89C020328BF
:1041800041D048E0D4F8941204F11400002502292B
:1041900032D1D0E902318B4206D95A1A82603146B7
:1041A0002046FFF7D9FE0FE0994214D140688842BB
:1041B00011D3D4F8981288420DD20022114620461D
:1041C000FFF7CAFEC4F8985200231A461946204643
:1041D00000F0BAF810E094F89C02032805D1D4F856
:1041E000B802C16809B1204688478021204600F006
:1041F00037F92046FFF7D2FE94F8A00201280AD131
:1042000084F8A05207E0D4F8B80242691AB12046F7
:104210009047002800D1002070BD10B51346044619
:1042200021B194F89C02032823D02AE0D4F89412F8
:1042300004F5AA70032924D1D0E9021291420AD9C7
:104240008A1A8260C068824200D30246194620461C
:10425000FFF77AFE15E094F89C02032805D1D4F804
:10426000B802016909B1204688472046FFF7AEFE33
:1042700007E0D4F8B80282691AB1204690470028B6
:1042800000D1002010BDD0F8C402FDF72BB800000B
:1042900010B51D4CC4F8F002C0F8C442FDF766FA30
:1042A0001A482060082060600220A0602061002081
:1042B0006061A061E06120622046FDF754F908B119
:1042C000FCF764F90022142311460F48FCF77FFD28
:1042D0005423002280210C48FCF779FD942300220E
:1042E00081210948FCF773FDD423002201210648EF
:1042F000FCF76DFD4FF48A73002282210248FCF71F
:1043000066FD002010BD0000E003002000680040B2
:104310000A0601F07F01D0F8C40201EB810100EB35
:10432000C10002D590F82A00704790F86A017047E2
:1043300010B51C461346D0F8C4022246FCF7DBFF3A
:10434000BDE81040FFF7E4BE10B5D0F8C402FDF799
:1043500002F8BDE81040FFF7DBBE70B5012504464A
:1043600080F89C520020C4F894026060C4F8A40253
:10437000D4F8B802E0B1D4F8BC1221B1426812B14D
:104380000021204690470022402311462046FFF797
:10439000CFFF4026A4F864513346002280212046F6
:1043A000C4F86061FFF7C4FFA5840020266270BDD9
:1043B000032070BD90F89C12042903D190F89D123F
:1043C00080F89C120020704710B5D0F8B81221B1C7
:1043D00090F89C22032A02D004E0032010BDC96992
:1043E00001B18847002010BD01740020704710B54E
:1043F000D0F8C402FDF778F9BDE81040FFF788BE99
:1044000070B5044600F2AA20054600F04DF80120E0
:10441000C4F89402B4F8B002C4F8980294F8AA025E
:1044200010F01F010AD001290ED0022912D000F08D
:1044300080012046BDE8704000F012B829462046B1
:10444000BDE8704000F0C2B829462046BDE8704083
:1044500000F0E6B929462046BDE8704000F040B9BA
:1044600010B5D0F8C402FCF78FFFBDE81040FFF78D
:104470004FBE10B5D0F8C402FDF751F9BDE81040A9
:10448000FFF746BE90F89C1280F89D12042180F838
:104490009C120020704710B5D0F8C402FCF7A4FFAE
:1044A000BDE81040FFF734BE70B5054611F8010BAA
:1044B0002870087868704C1C2046FEF712FD688052
:1044C000A41C2046FEF70DFDA880A01CFEF709FDE8
:1044D000E88070BD38B504460020ADF8000049B151
:1044E000C4F8B812C96A19B168468847C4F8CC0242
:1044F000002038BD032038BD02460320D2F8B83270
:10450000002B02D01B681046184770472DE9F04178
:104510000F462C4E8978002504463170012906D9B2
:1045200039462046FFF720FD0320BDE8F08194F8CE
:104530009C0202280CD003281DD039462046FFF7E4
:1045400013FD31782046FFF7F7FC03252846ECE7FA
:1045500099B320466160FFF7CFFF050004D03946CC
:104560002046FFF701FDF1E72046FFF72FFD03206E
:1045700084F89C02EAE74FF00208C1B16068884203
:104580001BD0C1B22046FFF7D7FC317820466160CE
:10459000FFF7B2FF050010D039462046FFF7E4FCD4
:1045A00021792046FFF7C8FC84F89C82CEE784F886
:1045B0009C8220466160FFF7BFFC2046FFF706FDA6
:1045C000C4E70000A8000020FFF753BF2DE9F04129
:1045D0000A78002512F0600208D0202A01D0402A73
:1045E00071D1D0F8B8229268904731E04B78002220
:1045F00001260A2B67D2DFE803F0415E66586608A1
:1046000005662D29FFF7EDFC5FE004468888D8B9E0
:10461000C888C8B94888802816D200F07F0794F867
:104620009C02032810D084F89E7239462046FFF77A
:10463000DEFE2046FFF7CAFC1FB1022084F89C0270
:1046400043E084F89C6240E020463CE0FFF75EFFD8
:1046500005463AE0CB88012B35D190F89C32012BEE
:1046600004D0022B02D0032B2DD104E08260012262
:1046700000F1080116E00122011D13E090F89C22D0
:10468000012A03D0022A01D0032A1CD1CA88022A97
:1046900019D1C660D0F8A41209B10321C160022269
:1046A00000F10C01FFF785FC0FE0498801290CD1CE
:1046B000C0F8A46211E090F89C32012B08D0022BC4
:1046C00006D0032B04D0FFF74FFC2846BDE8F0814D
:1046D00049880129F9D1C0F8A422FFF777FCF4E753
:1046E0002DE9F0410D46044628780026097910F09E
:1046F00060000BD0202801D040286DD1D4F8B8023A
:104700002946826820469047064686E06878A8B326
:10471000012822D003287CD194F89C02022802D0E0
:10472000032876D10BE0002973D0802971D0204670
:10473000FFF796FE80212046FFF792FE6DE0688825
:1047400038B931B1802904D0E88810B92046FFF784
:1047500087FE2046FFF73AFC5FE094F89C020228AF
:10476000E1D0032855D16888A8BB480602D020466E
:10477000FFF7EDFC2046FFF729FCBFE7FFE794F8C1
:104780009C020027022802D0032842D111E009B17F
:1047900080293ED1080601F07F0000EB800004EB89
:1047A000800101D5143101E001F5AA7102220F60E8
:1047B0002BE0080601F00F0000EB800004EB800006
:1047C0000BD5808C40B101F07F0000EB800004EB42
:1047D000800514350CE020E01BE0B0F86401C0B1A6
:1047E00001F07F0000EB800004EB800505F5AA7561
:1047F00041B1802906D02046FFF78AFD10B1012083
:10480000286000E02F60022229462046FFF7D1FBF6
:1048100003E029462046FFF7A7FB3046BDE8F081BC
:1048200070B50646087800240D4610F0600003D0ED
:10483000202801D0402817D196F89C02012803D0E7
:10484000022801D003280FD1287901280CD8D6F8E6
:10485000B8028268304690470446E888204306D173
:104860003046FFF7B3FB02E03046FFF77DFB204602
:1048700070BD704700487047C00100202DE9F04727
:104880000C78002630F8243048F68F121340CA788E
:10489000002A7DD0012A7CD0022A02D0032A79D0B6
:1048A000012648F28002134320F824300D7830F8B6
:1048B000254048F68F731C402C43144320F82540B4
:1048C0000D7B48F2C00748F6BF744CF2800C4BF6E3
:1048D0008F79E5B3CD7891F80080022DC24630F88B
:1048E00028507CD048F68F6805EA080555EA02058D
:1048F00020F82A50B0F8505091F80080054405EB9C
:10490000C805B1F8088028F00108A5F80084B0F8BF
:10491000505091F80080054405EBC805B1F80A80B5
:1049200028F00108A5F804844D7891F80080002D46
:1049300030F828504FEA45457ED0002D06DA30F891
:1049400028501D4045EA0C0520F8285000E030E0D2
:1049500091F800C030F82C506D0605D530F82C5079
:104960001D403D4320F82C50CB780D78012B30F8BA
:10497000253003EA040301D083F02003134320F819
:1049800025300B7830F8231001EA0901114302E0C9
:1049900006E00BE007E020F823103046BDE8F08782
:1049A00043F400737DE743F4C0637AE743F4806324
:1049B00077E74D784DB3B0F8505091F800C00544FA
:1049C00005EBCC05B1F806C02CF0010CA5F800C42D
:1049D00091F800C030F82C506D0607D500E05BE080
:1049E00030F82C501D403D4320F82C50CB78012B43
:1049F00006D00B7830F82310214081F02001C5E764
:104A00000B7830F823102140C0E7B0F850400D7803
:104A1000044404EBC504CD8825F00105A4F8045432
:104A2000B0F850400D78044404EBC5040D6904F25D
:104A300006443E2D0AD900E034E06F09ED0600D1AE
:104A40007F1E4FF4004545EA872508E0E5B16F0871
:104A5000ED0700D07F1C4FF6FF7505EA87252580FE
:104A60000D7830F82540640406D530F825401C4008
:104A700044EA0C0420F825400B7830F8231001EAB2
:104A8000090181F4405181E7258825F4F845258006
:104A9000258845F40045E2E71D4048F2801845EAC4
:104AA000080525E7002D06DA30F828501D4045EAB4
:104AB0000C0520F8285091F800C030F82C506D06F5
:104AC00005D530F82C501D403D4320F82C500D7872
:104AD00030F8253003EA090383F44053134320F8E8
:104AE00025308DE72DE9F04391F80C804F780A7856
:104AF00048F6BF7C4BF68F7948F2800348F2C00538
:104B00004CF2800648F68F74B8F1000F28D0002FC1
:104B100030F822704FEA474748D0002F05DA30F8C6
:104B200022702740374320F822700A7830F822702C
:104B30007F0605D530F8227027402F4320F82270D9
:104B40000D7830F825202240324320F825200C78BB
:104B500030F8242002EA0C021A4320F824201AE03C
:104B60007FB130F82260760605D530F82260264005
:104B70002E4320F822600A7830F8221001EA0C0156
:104B80000EE030F822506D0405D530F82250254053
:104B9000354320F822500A7830F8221001EA090142
:104BA000194320F822100020BDE8F083002F05DA19
:104BB00030F822702740374320F822700A7830F806
:104BC0002260760605D530F8226026402E4320F874
:104BD00022600E7830F8262022402A4320F8262032
:104BE0000C7830F8242002EA09021A4320F8242025
:104BF000C1E730F8581F41F40041018000207047A0
:104C0000012120F8401F0021018081800182084697
:104C1000704730F8401F4BF68072914301800020AE
:104C2000704730B50A7BB2BB4A7848F68F7548F2B8
:104C30008004C2B10B7830F82320520607D530F833
:104C400023202A4048F2C0052A4320F82320CA78AE
:104C5000012A20D00A7830F8221048F6BF73194094
:104C600081F0200114E00A7830F822305B0407D587
:104C700030F822302B404CF280052B4320F82230B4
:104C80000A7830F822104BF68F73194081F44051A6
:104C9000214320F82210002030BD10B54A78097851
:104CA000002A48F2800330F8212005D048F6BF746E
:104CB000224082F0100204E04BF68F74224082F40E
:104CC00080521A4320F82120002010BD2DE9F04722
:104CD0000D464B78097B04464FF0000948F68F7269
:104CE00048F2800A4FF400474FF6FF78012B09D0B5
:104CF00000297DD0E87802287BD001287AD00120D5
:104D0000BDE8F087AE692869864200D9064691B1B0
:104D1000E97802291ED0286A801B2862287834F896
:104D200020104906B4F85010214401EBC0006ED5A4
:104D3000A0F80664FFE0B3B2EA882046696900F093
:104D400035FAB4F850002978204400EBC100A0F8EF
:104D50000264F6E0296A814273D9297834F8210087
:104D6000104048F28012104324F82100286A801B6A
:104D70002862287834F820104906697876D511B170
:104D8000012921D027E0B4F850103E2E214401EB38
:104D9000C00000F2064006D97109F20600D1491E92
:104DA00047EA81210EE036B17108F20700D0491CB4
:104DB00008EA812106E0018821F4F8410180018898
:104DC00041F40041018006E0B4F85020111901EBD4
:104DD000C000A0F806646A89B3B22046696900F091
:104DE000E5F96869304468612969286A884202E007
:104DF000CCE0EBE054E102D9801B286202E00646D9
:104E0000C5F82090687818B1012824D02BE028E05C
:104E1000B4F850002978204400EBC10000F20240B1
:104E20003E2E06D97109F20600D1491E47EA8121BA
:104E30000FE03EB17108F20700D0491C08EA812159
:104E400007E08EE0018821F4F8410180018841F4F7
:104E50000041018007E0B4F850002978204400EBBD
:104E6000C100A0F802642A8966E0FFE711B10129B8
:104E700021D027E0B4F850103E2E214401EBC000B1
:104E800000F2024006D97109F20600D1491E47EA34
:104E900081210EE036B17108F20700D0491C08EA02
:104EA000812106E0018821F4F8410180018841F464
:104EB0000041018006E0B4F85010214401EBC0002D
:104EC000A0F802642A89B3B22046696900F06EF93D
:104ED0006869304468612969286A884202D9801B60
:104EE000286202E00646C5F82090687810B10128D3
:104EF00030D020E0B4F850002978204400EBC10005
:104F000000F206403E2E06D97109F20600D1491E74
:104F100047EA81210EE036B17108F20700D0491C42
:104F200008EA812106E0018821F4F8410180018826
:104F300041F4004101806A89B3B22046696900F0FA
:104F400035F9297834F8210048F6BF72104080F016
:104F50003000F8E0B4F850100819297800EBC100CF
:104F6000E6E62A7834F8220048F68F63184040EAD3
:104F70000A0024F82200B4F850002A78204400EBFC
:104F8000C2008BB2A0F802342A89D6E7A969286941
:104F9000814202D9091AA961B4E00846C5F81890FF
:104FA000B0E000BF47EA82200EE030B14208C007FF
:104FB00000D0521C08EA822006E0088820F4F8405D
:104FC0000880088840F400400880B4E00BBBB4F8C7
:104FD00050002978204400EBC100296900F202400A
:104FE0003E2906D94B09C90600D15B1E47EA832139
:104FF0000EE031B14B08C90700D05B1C08EA8321E1
:1050000006E0018821F4F8410180018841F4004163
:105010000180687810B1012823D02BE0B4F850004B
:105020002978204400EBC100296900F206403E299E
:1050300006D94B09C90600D15B1E47EA83210EE061
:1050400031B14B08C90700D05B1C08EA832106E098
:10505000018821F4F8410180018841F40041018078
:1050600008E0B4F850100819297800EBC100298A2B
:10507000A0F80614E86978B3297834F821004304CD
:1050800001D5430603D444F24003184253D134F807
:105090002100104048F2C002104324F821004AE0E9
:1050A000A9692869814202D9091AA96102E0084662
:1050B000C5F818900BBBB4F850102A78214401EBC6
:1050C000C20101F202413E2807D94209C30600D1BC
:1050D000521E47EA82220FE02DE030B14208C3079A
:1050E00000D0521C08EA822206E00A8822F4F84224
:1050F0000A800A8842F400420A80697811B10129C5
:1051000011D018E0B4F850102A78214401EBC20104
:1051100001F206413E287FF648AF4209C0067FF4FF
:1051200041AF521E3EE7B4F8502011192A7801EB26
:10513000C201A1F80604297834F821004BF68F72D9
:10514000104080F4405040EA0A0024F8210000207A
:10515000D6E50021A0F844104BF68071A0F840106D
:10516000002070470148FCF759B90000E003002017
:10517000B0F84400704710B510445C0800F580603A
:1051800008D030F8022B01F8012B120A01F8012B8C
:10519000641EF6D1DA0701D00088087010BD11B97D
:1051A0008021A0F84C1000207047000010B55B1C57
:1051B00010445B0800F580600AD000BF11F8012B95
:1051C00011F8014B42EA042220F8022B5B1EF5D1B4
:1051D00010BDFEE7014A024900F023B8455200081D
:1051E000BC0100200907090E002804DB00F1E020C3
:1051F00080F80014704700F00F0000F1E02080F804
:10520000141D704702E008C8121F08C1002AFAD115
:1052100070477047002001E001C1121F002AFBD136
:1052200070472DE9F04116460F460446002503E07D
:105230003946B047641C6D1C20780028F8D12846F8
:10524000BDE8F08138B504468DF8000069460320BA
:10525000ABBE204638BD000008B5FBF71DFDFDF7CD
:1052600047FE4FF0B040C16C41F00101C164C06C19
:1052700000F001000090FDF7D9FB0220FBF72EF8AB
:1052800001A0FFF7A7FFFBE748656C6C6F206D7905
:10529000206E616D6520697320416E6E6162656C80
:1052A0006C6100000A0607002000010002001000E7
:1052B00001000200010002000400060008000A00CC
:1052C0000C001000200040008000000112000000CF
:1052D000240000003600000040000000060000002E
:1052E0000C000000100000000000000001000000A1
:1052F00002000000030000000100000003000000A5
:105300000500000001000000010000000600000090
:105310000A0000002000000002000000040000005D
:1053200008000000100000004000000080000000A5
:105330000001000000020000A0860100400D0300F3
:10534000801A060000350C0040420F0080841E00C9
:1053500000093D0000127A000024F40000366E01BE
:105360000048E801006CDC020000000000000000C2
:10537000000000000000000000000000000000002D
:10538000000000000000000001000000020000001A
:105390000300000004000000B853000808000020CB
:1053A000B80100008402000890540008C0010020E9
:1053B000881D00001452000813AD3B1408E13C1B8B
:1053C00008ED0413153D1B0885041BBD3A04191094
:1053D0001704030904120114020202164083044058
:1053E0005726020102030103271A031AC22D1112C4
:1053F0000813C5031B08AD041A4D041329041B0828
:1054000041041112047A48041A08044A0C0429328F
:10541000821053093D130A0632022A401C1C09025D
:1054200043871125C03209041B01020B1305241602
:1054300010010524011009010424020205240617A5
:105440000107058203081C100904BD320A1D070567
:105450000102432C070581070938442A40072A81A5
:1054600007112B0907440A3B044413193C1408652F
:105470003B1408E53D42081AB90C13DD3A1B083B02
:1054800008C11A01281AF5141A0D085AE91C00005F
:040000050800013DB1
:00000001FF
