:020000040800F2
:10000000B0050020550100083F1C0008AF1A000889
:100010003D1C00087D020008712600080000000059
:10002000000000000000000000000000B91E0008F1
:100030003303000800000000411C0008FD1E0008FA
:100040006F0100086F0100086F0100086F010008D0
:100050006F0100086F0100086F0100086F010008C0
:100060006F0100086F0100086F0100086F010008B0
:100070006F0100086F0100086F010008810200088D
:100080006F0100086F0100086F0100086F01000890
:100090006F0100086F0100086F0100086F01000880
:1000A0006F0100086F0100086F0100086F01000870
:1000B0006F0100086F0100086F0100086F01000860
:1000C0006F0100086F0100086F0100086F01000850
:1000D000512600086F0100086F0100086F01000839
:1000E0006F0100086F0100086F0100086F01000830
:1000F0006F0100086F0100086F0100086F01000820
:100100006F0100086F0100086F0100086F0100080F
:100110006F0100086F0100086F0100086F010008FF
:100120006F0100086F0100086F0100086F010008EF
:100130006F0100086F0100086F010008DFF810D0A0
:1001400000F07CF800480047CF260008AFF300809D
:10015000B00500200648804706480047FEE7FEE756
:10016000FEE7FEE7FEE7FEE7FEE7FEE7FEE7FEE767
:10017000911F00083D0100082DE9F05F05460020B1
:1001800092469B4688460646814640241BE0284608
:1001900041464746224600F041F853465A46C01AA7
:1001A000914110D311461846224600F028F82D1A26
:1001B00067EB01084F4622460120002100F01FF89E
:1001C00017EB00094E41201EA4F10104DFDC484674
:1001D00031462A464346BDE8F09FD2B201E000F81E
:1001E000012B491EFBD270470022F6E710B51346DB
:1001F0000A4604461946FFF7F0FF204610BD202AA4
:1002000004DB203A00FA02F1002070479140C2F16D
:10021000200320FA03F3194390407047202A04DB9F
:10022000203A21FA02F00021704721FA02F3D0406F
:10023000C2F120029140084319467047064C074D11
:1002400006E0E06840F0010394E8070098471034A6
:10025000AC42F6D3FFF776FF1828000838280008CC
:100260000449054A31F8101052F82000012200F02C
:10027000D9BA00001627000858000020FEE7000049
:10028000014800F0CAB800004C0100200D4B416C41
:10029000026821F003019A4201D20B4B01E00A4BA4
:1002A0001C3319448164D1B214220839B1FBF2F134
:1002B000054A8032C26401F01F02012191400165AC
:1002C0007047000008040240000802400179084A13
:1002D00001F03F0102EB81024265054A4432491EAA
:1002E000826501F0030201219140C1657047000061
:1002F000FC08024030B5D0E913456560446D14B187
:10030000D0E91645656090F8444004F01C050124CE
:10031000AC40056C6C60046863608368102B0368F4
:1003200003D099600068C26030BD9A600068C16007
:1003300030BD70470220FFF793FFFEE710B540B1D4
:1003400090F825100023022905D00421C16380F80C
:100350002430012010BD01680A6822F00E020A60F4
:10036000816C0A6822F480720A6001680A6822F0CF
:1003700001020A6090F84410046C01F01C01012293
:1003800002FA01F16160D0E913144C60416D31B1A2
:100390000C6824F480740C60D0E916144C6080F86A
:1003A000252080F82430002010BD10B590F82510CD
:1003B0000024022903D00421C16301242BE0016839
:1003C0000A6822F00E020A6001680A6822F001023F
:1003D0000A60816C0A6822F480720A6090F8441006
:1003E000036C01F01C01012202FA01F15960D0E90D
:1003F00013134B60416D31B10B6823F480730B60B4
:10040000D0E916134B6080F82520002180F82410D5
:10041000816B01B18847204610BDF0B4016C0C68B7
:1004200001680D6890F8442002F01C06042202FACC
:1004300006F3234211D06B070FD50B689B0603D43C
:100440000B6823F004030B6090F8441001F01C01CA
:100450008A40016C4A60016B1DE0022303FA06F733
:1004600027424FF0000C4FF0010218D0AF0716D50D
:100470000C68A40605D40C6824F00A040C6080F80B
:10048000252090F8441001F01C018B40016C4B605A
:1004900080F824C0C16A00291AD0F0BC084708239C
:1004A000B340234214D02B0712D50B6823F00E0360
:1004B0000B6090F84410036C01F01C0102FA01F18A
:1004C0005960C26380F8252080F824C0416BE2E7C0
:1004D000F0BC704770B504000CD02C4A2168142081
:1004E000914209D22A4A0A44B2FBF0F080006064CB
:1004F00028480AE0012070BD244A52420A44B2FB57
:10050000F0F080006064214808382064022084F8FC
:1005100025000A6847F6F0708243D4E902031843C5
:10052000D4E904352B431843A3691843E3691843FE
:10053000236A1843104308602046FFF7A7FEA0680F
:100540000025B0F5804F00D165602079A16C00F0E6
:100550003F000860D4E9130141606068401E032831
:1005600008D82046FFF7B2FE606D0560D4E9160199
:10057000416002E06565A565E565E563012084F8F5
:10058000250084F82450002070BD000008040240BB
:10059000F8FFFDBF0000024070B5044690F824004B
:1005A000002501280CD0012084F8240094F825604F
:1005B0000020012E06D084F824000225284670BDB4
:1005C000022070BD022684F82560E063206806687A
:1005D00026F0010606602046FFF78CFE206B0028FF
:1005E0002068016802D041F00E0106E021F004010C
:1005F00001602068016841F00A010160A06C016897
:10060000C90303D5016841F480710160606D18B1C0
:10061000016841F4807101602068016841F00101C6
:100620000160CBE72DE9F04FDFF8E0B1DFF8DC91B6
:100630000023012503240BF1800B85B00F2709F15E
:10064000040A0BF1040ED9E005FA03FC12EA0C02CD
:100650007ED00E7906F00306012E01D0022E20D1A5
:10066000866800965E0004FA06F80496009E26EA64
:1006700008060096D1F80C80049E08FA06F8009E41
:1006800048EA0608C0F80880466826EA0C0691F891
:1006900004C0CCF3001C0CFA03FC4CEA060CC0F8B6
:1006A00004C00E79F643B6070DD0D0F80CC04FEA5F
:1006B000430804FA08F62CEA060C8E6806FA08F6D7
:1006C00046EA0C06C6600E7906F00306022E15D126
:1006D000DE0800EB86060296366A4FEA437C4FEA54
:1006E000DC6807FA08FC26EA0C06D1F810C00CFA00
:1006F00008FC4CEA060C029EC6F820C0D0F800C0E8
:100700004FEA430804FA08F62CEA060C0E7906F0C4
:10071000030606FA08F646EA0C0606604E6816F46A
:10072000403F6AD03A4E23F0030C66440296B66806
:100730004FEA837C4FEA1C7807FA08FC26EA0C068D
:10074000B0F1904F08D0DFF8CCC0604507D100E091
:1007500053E04FF0010C19E04FF0000C16E0DFF809
:10076000B8C0604502D14FF0020C0FE0DFF8ACC01A
:10077000604502D14FF0030C08E0DFF8A4C06045EB
:1007800002D14FF0040C01E04FF0070C0CFA08FC0A
:100790004CEA060C029EC6F808C0D9F80060CC46A8
:1007A000D1F8048096435FEAC82800D51643CCF8F8
:1007B0000060DAF80060D446D1F8048096435FEA1E
:1007C000882800D51643CCF80060DBF80060DC46D2
:1007D000D1F8048096435FEAC83800D51643CCF8B8
:1007E0000060DEF80060F446D1F8048096435FEACA
:1007F000883800D51643CCF800605B1C0A6832FAD2
:1008000003F67FF421AF05B0BDE8F08F0008005873
:10081000000001400004004800080048000C0048A7
:10082000001000480AB18161704781627047000082
:10083000014880687047000070000020014840684F
:10084000704700007000002002488168027811445F
:100850008160704770000020094810B501680024CD
:1008600041F480710160032000F05AF8002000F08C
:1008700009F808B1012401E000F024F8204610BD79
:100880000040005870B50E4E054600243078A0B1E7
:1008900000F06EFA31784FF47A72B2FBF1F1B0FBEE
:1008A000F1F000F0ABFD40B9102D06D20022294630
:1008B000501E00F015F8756000E00124204670BD60
:1008C000700000207047002809DB00F01F020121A2
:1008D00091404009800000F1E020C0F8001170470D
:1008E000F0B40E4B1B680C46C3F30223C3F107059B
:1008F000042D00D90425191D072901D2002300E089
:10090000DB1E012606FA05F1491E214099409E4052
:10091000761E16403143F0BC01F0BABE0CED00E08B
:10092000064900F0070208684FF6FF03184040EA46
:100930000220034A10430860704700000CED00E0FD
:100940000000FA050248006800F4C060704700002B
:10095000000400580248016841F48071016070474A
:10096000000400582DE9F0410446002700783E4677
:1009700040064FF0B04517D5206B78B1B0F5800F29
:1009800007D0B0F5000F3BD0B0F5400F38D00127AD
:1009900009E0E86840F48030E86031E0201D01F0B3
:1009A0006FF907002CD03E462088000546D5D5F8C3
:1009B000900000F44076206CB0423ED0FFF7CAFFB2
:1009C0003EB3D5F89000D5F8901041F48031C5F8C9
:1009D0009010D5F8901021F48031C5F89010216C5A
:1009E00020F440700843C5F89000D5F8900010F04E
:1009F000010F22D0FFF71CFF064641F2883818E0AD
:100A0000206BD5F8881021F440010143C5F8881007
:100A1000CAE7206CD5F8901021F440710143C5F865
:100A200090100AE0FFF704FF811B414501D903271D
:100A300003E001F062F80128F4D13E462078C007B7
:100A400007D0A069D5F8881021F003010143C5F84B
:100A500088102078800707D5E069D5F8881021F440
:100A600040610143C5F888102078C00602D5A06A0D
:100A700001F0A3F82078800602D5E06A01F09DF825
:100A80002078400702D5206A01F088F82078000716
:100A900002D5606A01F082F82088C00513D5606B2A
:100AA00001F073F8606BB0F1006F03D1E86840F0BB
:100AB0008070E860606BB0F1806F04D1201D01F0A0
:100AC00019F900B10646208880051BD5A06BB0F14E
:100AD000804F10D0B0F1004F0DD060B120F08057A2
:100AE000002001F075F8384601F04FF8A06BB0F126
:100AF000C05F03D006E001F06BF8F7E7E86840F06C
:100B00008070E8602088400518D5E06BD5F8881023
:100B100021F040510143C5F88810E06BB0F1005F4F
:100B200003D1E86840F48030E860E06BB0F1805FAA
:100B300004D1201D01F018F900B106462088C00438
:100B400007D5606CD5F8941021F440410143C5F8F5
:100B50009410208880040BD5E06C696A21F0300184
:100B600001436962A06C696A21F003010143696273
:100B70003046BDE8F08100002DE9F0410F46050048
:100B800077D0794E306800F00700B84212D2306852
:100B900020F0070038433060FFF74AFE044604E0C7
:100BA000FFF746FE001B02287DD8306800F00700E2
:100BB000B842F5D128784FF0B044800715D5A86821
:100BC000A16821F0F0010143A160FFF731FE8046EA
:100BD00006E000BFFFF72CFEA0EB0800022862D859
:100BE000A068C0F300400028F4D02878800617D50C
:100BF0006869D4F8081121F0F0010143C4F8081124
:100C0000FFF716FE804605E0FFF712FEA0EB080096
:100C1000022848D8D4F80801C0F340400028F3D097
:100C20002878400618D5A869D4F8081121F00F01DA
:100C300041EA1010C4F80801FFF7FAFD804605E00C
:100C4000FFF7F6FDA0EB080002287CD8D4F80801D5
:100C5000C0F300400028F3D02878400715D5E86895
:100C6000A16821F4E0610143A160FFF7E1FD804646
:100C700006E046E0FFF7DCFDA0EB0800022862D8A2
:100C8000A068C0F340400028F4D02878000716D5AB
:100C90002869A16821F4605141EAC001A160FFF711
:100CA000C7FD804606E04EE0FFF7C2FDA0EB08005E
:100CB000022848D8A068C0F380400028F4D02878E3
:100CC000C0072CD06868022805D0032806D0A8B138
:100CD00000F004FF05E000F0FBFE02E02068C0F336
:100CE000406070B16868A16821F003010143A16010
:100CF000FFF79EFD044641F288380AE000F014FF39
:100D0000EFE70120BDE8F081FFF792FD011B4145AF
:100D100019D800F0D7FE6968B0EB810FF4D13068C4
:100D200000F00700B84215D9306820F007003843BA
:100D30003060FFF77DFD044607E000BFFFF778FD58
:100D4000001B022801D90320DCE7306800F007000F
:100D5000B842F3D100F00CF804490860FFF76EFDCB
:100D6000BDE8F041FFF78EBD004000587C00002038
:100D700010B500F033F84FF0B0418968044A01F033
:100D8000F00102EB91010968B0FBF1F010BD000029
:100D90007827000810B5FFF7EBFF4FF0B0418968E6
:100DA000044A01F4E06102EB9111097801F01F019E
:100DB000C84010BDF827000810B5FFF7D9FF4FF065
:100DC000B0418968044A01F4605102EB512109786D
:100DD00001F01F01C84010BDF82700082DE9F041BF
:100DE00000F070FE224F48B3224C04282ED0A610EB
:100DF0004FEA64084FF0B045082829D000F0BFFE44
:100E0000022808D003282BD000F085FE00F0F00067
:100E100007EB90000468E868E968C0F306206043C7
:100E200001F07002012101EB1212B0FBF2F2E8684E
:100E300001EB5070B2FBF0F0BDE8F08100F06BFE0A
:100E400000F0F00007EB90000068F5E72046F3E7BC
:100E50002868C0F3005008B13046EDE74046EBE7A4
:100E60002868C0F3005008B13446D4E74446D2E7BE
:100E7000B82700080024F4002DE9F04104007DD0DB
:100E800020784FF0B045800661D500F01BFE064685
:100E900000F075FE76B10C2E01D101280AD0E06970
:100EA0000028286842D040F001002860FFF7C0FC0D
:100EB000064630E000F038FE10B1E0690028DED0D0
:100EC00000F029FE0146606A81420AD200F0CEFF9E
:100ED000002853D1606A00F036FE206A00F02AFE36
:100EE00009E000F030FE206A00F024FE606A00F0A5
:100EF000BDFF0028EDD1FFF73BFFF7490860F74839
:100F00000068FFF7BFFC0028E3D120E0FFF790FC6A
:100F1000801B022874D800F007FE0028F6D0606A13
:100F200000F011FE206A00F005FE10E020F0010044
:100F30002860FFF77DFC064605E000BFFFF778FC60
:100F4000801B0228E6D800F0EFFD0028F6D12078BB
:100F5000C0073CD000F0B6FD064600F010FE082E9B
:100F600013D00C2E01D103280FD06068B0F5803F5C
:100F7000286811D020F48030286000E008E2606822
:100F8000C0B1FFF755FC06460FE000F0A1FDF0B13F
:100F90006068002893D01AE040F48030ECE700BF8E
:100FA000FFF746FC801B6428B4D800F091FD0028B0
:100FB000F6D00CE0FFF73CFC064604E0FFF738FCF7
:100FC000801B6428A6D800F083FD0028F6D1207885
:100FD00080073CD500F076FD064600F0D0FD042EDB
:100FE0000FD00C2E01D102280BD0E0680028286811
:100FF0001CD040F480702860FFF71AFC064610E011
:101000003AE100F06BFD10B1E0680028C2D0206921
:1010100000F06AFD1BE000BFFFF70AFC801B0228FE
:1010200090D800F05BFD0028F6D0F0E720F4807047
:101030002860FFF7FDFB064605E000BFFFF7F8FB61
:10104000801B0228B0D800F049FD0028F6D12068A6
:10105000010701D4C1064ED56169E1B3C0064BD585
:1010600000F052FD98B9D5F8940040F00100C5F8A1
:101070009400FFF7DDFB064605E000BFFFF7D8FB55
:10108000801B022890D800F03FFD0028F6D0D5F84C
:10109000940040F00400C5F89400FFF7C9FB064631
:1010A00005E000BFFFF7C4FB801B03288AD8D5F8F2
:1010B0009400C0F3C0000028F4D0A069D5F89410C3
:1010C00021F4706141EA0020C5F89400D5F894003D
:1010D00020F0010000E035E0C5F89400FFF7A8FB20
:1010E000064604E0FFF7A4FB801B022898D800F016
:1010F0000BFD0028F6D14EE0D5F8940040F0010039
:10110000C5F89400FFF794FB064604E0FFF790FB58
:10111000801B022884D800F0F7FC0028F6D0D5F810
:10112000940020F00400C5F8940004E0FFF780FB71
:10113000801B032886D8D5F89400C0F3C00000288F
:10114000F4D128E0D5F8940020F00400C5F894000C
:10115000FFF76EFB064604E0FFF76AFB801B0328DF
:1011600090D8D5F89400C0F3C0000028F4D1D5F889
:10117000940020F00100C5F89400FFF759FB0646E3
:1011800005E000BFFFF754FB801B022874D800F075
:10119000BBFC0028F6D12078400750D5504F386866
:1011A000C0050DD4FFF7D6FBFFF742FB064604E06F
:1011B000FFF73EFB801B02285ED83868C005F7D5D4
:1011C000A068012816D00528D5F8900017D020F087
:1011D0000100C5F89000D5F8900020F0040000BF91
:1011E000C5F89000A06841F28836C8B1FFF720FB2F
:1011F00007460EE0D5F8900040F00100F0E740F01F
:101200000400C5F89000F5E7FFF712FBC01BB042E1
:1012100032D8D5F89000C0F340000028F4D00EE09A
:10122000FFF706FB074604E0FFF702FBC01BB042D6
:1012300022D8D5F89000C0F340000028F4D12078DF
:1012400040062ED5A06A0028D5F8980015D040F0A9
:101250000100C5F89800FFF7EBFA064605E000BF6D
:10126000FFF7E6FA801B022806D8D5F89800C0F3ED
:1012700040000028F4D014E089E020F00100C5F817
:101280009800FFF7D5FA064605E000BFFFF7D0FA51
:10129000801B02287BD8D5F89800C0F340000028B6
:1012A000F4D1E06AF0B300F00DFC0146E868E26AB0
:1012B000022A19D00C296BD0286820F08070286091
:1012C000E86820F00300E860E86806490840E86044
:1012D000FFF7AEFA044687E07C000020740000208F
:1012E00000040058FFFFFEEE236B00F003029A4259
:1012F0001AD1636B00F070029A4215D1A26BC0F351
:1013000006239A4210D1E36B00F478129A420BD173
:10131000236C00F060629A4206D1626C00F060407B
:10132000904200E056E03ED00C2962D0286840018F
:101330005FD4286820F080702860FFF779FA0646AD
:1013400005E000BFFFF774FA801B022849D828681F
:101350008001F7D4D4E90C010843D4E90E2141EA15
:1013600002210843216C0843616C0843E968224A62
:1013700011400843E860286840F080702860E86801
:1013800040F08050E860FFF753FA044607E028E099
:101390002FE000BFFFF74CFA001B022821D8286875
:1013A0008001F7D523E02868800120D4286840F028
:1013B00080702860E86840F08050E860FFF738FAF5
:1013C000044604E0FFF734FA001B022809D8286815
:1013D0008001F7D50BE000BFFFF72AFA001B0228B7
:1013E00002D90320BDE8F08128688001F4D40020F0
:1013F000F8E70120F6E700008C80C11110B5401E0F
:10140000B0F1807F01D3012010BD4FF0E024606176
:101410000F21601701F03CF90020A0610720206136
:10142000002010BD90F88010012918D0012180F80B
:1014300080102421C0F8841050F8641B0A680B68DF
:1014400023F001030B6022F000510022026050F8EB
:10145000643C196020210162027710467047022027
:10146000704710B50446D0F88800202820D181B1FB
:101470007AB194F8800001281AD0012084F8800005
:10148000E066204601F030F8002803D1E16E012922
:1014900001D0012010BD226810211162226852E89B
:1014A000001F41F0100142E80013002BF6D110BDDF
:1014B000022010BDF0B5204C0D46214622781F4E6B
:1014C0008B68954236D010D9A5EB020161604FF0D0
:1014D000000106E002EB0107F75D5F5401F1010135
:1014E000C9B26768B942F5D31BE0C2F1140161606B
:1014F000002104E05718F75D5F54491CC9B26768C2
:10150000B942F7D36DB10021A26805E0735C67684A
:101510000F44491CD355C9B2A942F7D36168294485
:10152000616061688AB2A16801F0A3F8D4E9021091
:10153000C4E902012570F0BD080000201001002060
:10154000704770B5044690F8800001281DD0012036
:1015500084F880002420C4F88400206805680268AC
:1015600022F0010202602068826822F060620A4371
:101570008260204600F03EFD206805602020C4F80F
:101580008400002084F8800070BD022070BD70B51A
:10159000044690F8800001281DD0012084F88000C6
:1015A0002420C4F8840020680568026822F0010243
:1015B00002602068826822F060420A43826020460E
:1015C00000F018FD206805602020C4F88400002089
:1015D00084F8800070BD022070BD7047704770476E
:1015E0002DE9F04103680446D86919689A6840F605
:1015F0000F0528424FF0000509D186067ED501F07F
:10160000200602F080573E4378D0216F27E1A94E93
:10161000A94F16400F40374370D0C70709D0CF05F8
:1016200007D501271F62D4F88C3043F00103C4F8BA
:101630008C3083070AD5D30708D0276802233B6282
:10164000D4F88C3043F00403C4F88C3043070AD537
:10165000D30708D0276804233B62D4F88C3043F0CA
:101660000203C4F88C3003070CD501F02003334388
:1016700008D0266808233362D4F88C3043F008037E
:10168000C4F88C3003050BD54B0109D526684FF4FF
:1016900000633362D4F88C3043F02003C4F88C30FC
:1016A000D4F88C30002B3AD0800609D501F0200008
:1016B00002F08051084303D0216F09B120468847CA
:1016C000D4F88C0021688968490602D410F0280FEC
:1016D00027D0204600F0C6FD2068806840061BD554
:1016E0002068083050E8001F21F0400140E8001257
:1016F000002AF5D1E06F78B1704900E017E081630E
:10170000E06FFEF752FE002809D0E06F816B00E029
:101710002046BDE8F04108472046FFF760FFBDE8DE
:10172000F0812046FFF75BFFC4F88C50F7E7E76EC7
:101730002026012F7ED1C7067CD5CF067AD5102072
:10174000186220688068400642D5E16F08684068EA
:101750000004000CE3D0B4F85C208242DFD9A4F886
:101760005E000868006880062BD4206850E8001FDF
:1017700021F4807140E80012002AF6D12068083078
:1017800050E8001F21F0010140E80012002AF5D1C5
:101790002068083050E8001F21F0400140E80012A6
:1017A000002AF5D1C4F88860E566216851E8000F89
:1017B00020F0100041E80002002AF6D1E06FFEF7A9
:1017C000BDFDB4F85C00B4F85E10401A81B22CE0A4
:1017D000B4F85C00B4F85E10401A81B2B4F85E0050
:1017E00000289CD000299AD0226852E8000F20F4EB
:1017F000907042E80003002BF6D12E4BDB432068AB
:10180000083050E8002F1A4040E80027002FF6D19A
:10181000C4F88860E5662567226852E8000F20F06A
:10182000100042E80003002BF6D12046FFF742FEED
:1018300075E7FFE7C70209D5570207D54FF48010B7
:1018400018622046BDE8F041FFF7C8BE03060AD57E
:1018500001F0800302F40002134304D0616F0029F9
:101860007FF456AF5BE7420611D54A060FD52046F6
:10187000016851E8002F22F0400241E80023002BCC
:10188000F6D1C0F88460456700F010F947E702021E
:1018900006D54A0004D52046BDE8F041FFF79DBEBD
:1018A000C001C5D50029C3DA2046BDE8F041FFF7E5
:1018B00047BE000001000010200100046121000863
:1018C00010B5040003D0D4F8840010B107E0012063
:1018D00010BD002084F88000204600F027F8242066
:1018E000C4F884002068016821F0010101602046ED
:1018F00000F0FAFC0128EBD0A06A10B1204600F0FD
:101900009BFB2068416821F4904141602068816818
:1019100021F02A0181602068016841F00101016025
:101920002046BDE8104000F0EBBB000070B59AB057
:101930000646142114A8FEF757FC50216846FEF70E
:1019400053FC26493068884245D101240025684669
:1019500006950094FFF706F808B1FEF7EBFC4FF090
:10196000B041086E40F480400866086E00F4804084
:101970001990C86C40F00200C864C86C15A900F04A
:1019800002001990C0201490022081E83100072045
:10199000189014A91248FEF745FE134C1148206018
:1019A0000E20C4E901058020C4E9035020206561B0
:1019B000C4E9065020462562FEF78CFD08B1FEF70B
:1019C000B9FCF467002211462420A662FEF788FFC6
:1019D0002420FEF778FF1AB070BD000000380140E7
:1019E00000040048580002404C0100207047704736
:1019F0002DE9F8430446D0F884001F4616460D46EC
:101A0000202851D1DDB1D6B194F8800001284BD007
:101A1000012084F880004FF00008C4F88C80212059
:101A2000C4F884001834FEF703FFA6878146E687D2
:101A300054F8100C183CB0F5805F03D004E001208E
:101A4000BDE8F883206920B12E46002584F8808007
:101A500010E00026FAE78021204600F095FDB8B995
:101A6000C6B116F8010B21688862B4F85600401E12
:101A7000A4F85600B4F856004B464FF00002009709
:101A80000028E8D14FF04001204600F07DFD30B144
:101A90000320D5E735F8020BC0F30800E3E7202068
:101AA000C4F884000020CBE70220C9E77047FEE7B6
:101AB00008B54FF0B0418A6C02438A64896C0140DA
:101AC000009108BD4FF0B040806800F00C007047F6
:101AD0004FF0B0400068C0F3404070474FF0B04056
:101AE0000068C0F3802070474FF0B0414A6822F090
:101AF000FE4242EA0060486070474FF0B040D0F8C4
:101B00009000C0F3400070474FF0B040D0F8940010
:101B1000C0F3400070474FF0B040006800F0F000A4
:101B2000B02800D9B02070474FF0B0400068C0F333
:101B3000400070474FF0B0414A6822F47F4242EAC9
:101B40000020486070474FF0B0410A6822F0F00270
:101B500002430A6070474FF0B040016821F0806195
:101B6000016070474FF0B040016841F08061016052
:101B700070474FF0B0400068C0F3C06070474FF04E
:101B8000B040C06800F0030070474FF0B04151F81A
:101B9000882F22F0406202430A60704710B54FF070
:101BA000B04151F8883F4FF47F2202EA1014A3435A
:101BB00002EA001003430B6010BD4FF0B04151F832
:101BC000882F030C1B049A4342EA004008607047C8
:101BD0004FF0B04151F8882F22F0404202430A6092
:101BE00070470000144810B5124901604FF4E1310C
:101BF0004160002181600C22C160C0E90412816152
:101C0000C161016241628162FFF75AFE70B9002131
:101C10000948FFF7BCFC48B900210748FFF791FCD1
:101C200020B90548FFF7FEFB002801D0FEF782FB34
:101C300010BD00000038014080000020FEE7704722
:101C4000704700B595B050216846FEF7CDFA4FF4C5
:101C50000050009000201290102013906846FEF76C
:101C600081FE002801D0FEF765FB15B000BD10B560
:101C70006423FFF7BDFE002801D0FEF75BFB10BD1B
:101C80002DE9F04106460025FFF765FFFEF7D0FD80
:101C9000044604E0FEF7CCFD001B02281DD8FFF728
:101CA00068FF0028F6D14FF0B0442069316820F475
:101CB000FE4040EA012020612069716820F478101C
:101CC00008432061FFF74EFFFEF7B2FD074606E02E
:101CD000FEF7AEFDC01B022801D9032507E0FFF780
:101CE00048FF0128F4D12069316908432061284662
:101CF000BDE8F0812DE9F04106460025FFF72BFFF6
:101D0000FEF796FD044604E0FEF792FD001B022854
:101D10001DD8FFF72EFF0028F6D14FF0B044206900
:101D2000316820F4FE4040EA012020612069B1685A
:101D300020F0606008432061FFF714FFFEF778FD94
:101D4000074606E0FEF774FDC01B022801D90325F3
:101D500007E0FFF70EFF0128F4D12069316908433D
:101D600020612846BDE8F0812DE9F04106460025B6
:101D7000FFF7F1FEFEF75CFD044604E0FEF758FDB8
:101D8000001B02281DD8FFF7F4FE0028F6D14FF003
:101D9000B0442069316820F4FE4040EA012020610F
:101DA0002069F16820F0604008432061FFF7DAFE07
:101DB000FEF73EFD074606E0FEF73AFDC01B02288F
:101DC00001D9032507E0FFF7D4FE0128F4D12069EB
:101DD0003169084320612846BDE8F08170B5214A89
:101DE0008EB00DF1100C78CA8CE8780038CA08AEB5
:101DF00086E838003CCA8DE83C000024B1F5007F3D
:101E00006A46214607D008AB53F8215085420BD3D0
:101E100052F821400BE004AB53F821508542F7D231
:101E2000491C0429F8D302E0491C0329ECD30E4EC7
:101E3000306820F0070020433060FEF7F9FC0546CB
:101E400008E000BFFEF7F4FC401B022802D9032083
:101E50000EB070BD306800F00700A042F2D1002043
:101E6000F6E700004C2700080040005810B50F4965
:101E7000B02801D9C86A03E03C2202EA9000085861
:101E80004FF0B041D1F80811094A01F00F0152F8A2
:101E90002110B0FBF1F4FEF755FD01460548B4FBF7
:101EA000F0F0BDE81040FFF799BF0000B827000828
:101EB0007827000840420F00704700000E4810B518
:101EC0000C49C160143181600021416000F11001B2
:101ED00008484022A438FFF7CAFE064914221439E4
:101EE000A1F19000FFF7BDFA002801D0FEF722FA19
:101EF00010BD00002401002008000020FEF7A4BC53
:101F000010B59AB048216846FEF76EF91C2112A858
:101F1000FEF76AF91D48016821F4C06141F40071BF
:101F200001600068402100F4C060199022200090F8
:101F30004FF480700390049100246021CDE90841A2
:101F4000012007900221CDE90B102020CDE90D40A2
:101F500000030F9000031190001110906846FEF7E7
:101F60008BFF78B96F2012900320CDE913048020F5
:101F7000CDE916401594032112A81894FEF7FCFD34
:101F8000002801D0FEF7D6F91AB010BD00040058A1
:101F900015480021016014488030026842F4700244
:101FA00002604FF0B040026842F0010202604FF45C
:101FB000E022826002680D4B1A400260D0F8942043
:101FC00022F00502C0F89420D0F8982022F00102F7
:101FD000C0F89820064AC2600261026822F480229A
:101FE000026081617047000008ED00E0FBFEF6FA38
:101FF0000010042230B5416EB9B102689168926850
:10200000C1F342610B4B520F9C5CE50003F10804E5
:10201000A25CB5FBF2F2A0F86A205A5C615CD200C7
:10202000B2FBF1F1A0F8681030BD0121A0F86A10F0
:10203000F8E700003A27000890F82810C90706D0F2
:1020400001684A68C36A22F400321A434A6090F871
:102050002810890706D501684A68036B22F480328C
:102060001A434A6090F82810490706D501684A6863
:10207000436B22F480221A434A6090F82810090723
:1020800006D501684A68836B22F400421A434A600D
:1020900090F82810C90606D501688A68C36B22F437
:1020A00080521A438A6090F82810890606D5016884
:1020B0008A68036C22F400521A438A6090F8281050
:1020C000490611D501684A68436C22F480121A430C
:1020D0004A60416CB1F5801F06D101684A68836C83
:1020E00022F4C0021A434A6090F82810090606D567
:1020F00001684A68C06C22F4002202434A607047BB
:10210000F8B500260446C0F88C60FEF791FB054642
:10211000206800686FF07E47000708D52B46002234
:102120004FF400112046009700F02EFA60B92068A5
:10213000006840070AD52B4600224FF48001204654
:10214000009700F021FA08B10320F8BD2020C4F860
:102150008400C4F8880044F86C6F00202675F8BD30
:1021600010B5806A0021A0F85E10A0F85610FFF7A5
:1021700036FA10BD70B5846AD4F88400D4F888505B
:10218000216889684FF00006090606D5212804D188
:10219000A4F85660204600F08FF82068806840065A
:1021A00006D5222D04D1A4F85E60204600F05AF82E
:1021B000D4F88C0040F01000C4F88C002046FFF7E3
:1021C0000EFA70BD10B50146806A09680968890673
:1021D0002ED40021A0F85E10016851E8002F22F4EF
:1021E000807241E80023002BF6D10168083151E8E4
:1021F000002F22F0010241E80023002BF5D10168F5
:10220000083151E8002F22F0400241E80023002B62
:10221000F5D12021C0F88810C16E012908D10268CB
:1022200052E8001F21F0100142E80013002BF6D104
:10223000C16E012902D0FFF7D9FB10BDB0F85C10C8
:10224000FFF738F910BD10B5806AC16E012902D0C0
:10225000FFF7CDFB10BDB0F85C104908FFF72AF975
:1022600010BD000010B5026852E8001F21F4907103
:1022700042E80013002BF6D10E4B0268083252E8F8
:10228000001F194042E80014002CF6D1C16E01294C
:1022900008D1016851E8002F22F0100241E8002324
:1022A000002BF6D12021C0F888100021C1660167FB
:1022B00010BD0000FEFFFFEF026852E8001F21F092
:1022C000C00142E80013002BF6D10168083151E843
:1022D000002F22F4000241E80023002BF5D1202139
:1022E000C0F88410704700002DE9F04104460068F2
:1022F0002269A168E66911436269002532431143EE
:10230000724B0268724E32400A4302602068416894
:10231000E26821F44051114341602168A06999426B
:1023200001D0226A10438A686A4E324002438A60B2
:102330002068C16A626A21F00F011143C1626649D7
:10234000D4F800C04FF0B0408C450DD1D0F88800D3
:1023500010F0030006D001281DD0022819D0032850
:102360001BD112E0012119E09C4516D1D0F888005C
:102370004FF4406110F4406009D0B0F5806F0AD08E
:10238000B0F5006F05D0884207D1082106E0002192
:1023900004E0022102E0042100E010214F4A504FE6
:1023A00000264FF400409C4531D131B1022907D0BD
:1023B000042907D008297AD107E0FEF7EBFC03E0F7
:1023C000104602E0FEF70AFD78B3616A37F8112083
:1023D0006768B0FBF2F107EB47038B4267D8B1EBBC
:1023E000073F64D800231946FDF7C6FE090241EAFB
:1023F000106102027808101871413A460023FDF777
:10240000BBFE384AA0F54071914252D94FE0E369D2
:102410004FF6EF7883422AD1012907D0022908D04C
:10242000042908D0082942D108E041E0FEF7C4FCA5
:1024300003E0104602E0FEF7D1FCC8B3616A37F84A
:102440001110B0FBF1F04100606801EB5001B1FBED
:10245000F0F080B2A0F11001414528D84FF6F0719C
:102460000140C0F3420001432068C16023E001291C
:1024700006D0022907D0042907D0082917D107E080
:10248000FEF79AFC03E0104602E0FEF7A7FC78B1E5
:10249000616A37F81110B0FBF1F1606801EB50018F
:1024A000B1FBF0F080B2A0F11001414501D9012546
:1024B00001E02168C8600120A4F86A0024F8680FD0
:1024C0002846A660E660BDE8F0810000008000407C
:1024D000F369FFCFFFF4FF11003801400024F4003E
:1024E00022270008FFFC0F0070B58165A0F85C2072
:1024F00000250446C0F88C502220C4F88800E06F04
:10250000D8B11E49C162E16F1D4813460863E16FEF
:102510001C484863E06F8563A66D2168324624310C
:10252000E06FFEF739F840B11020C4F88C0004F8D1
:10253000805F2020A060012070BD84F88050216859
:1025400051E8000F40F4807041E80002002AF6D103
:102550002068083050E8001F41F0010140E80012F7
:10256000002AF5D12068083050E8001F41F04001F2
:1025700040E80012002AF5D1002070BDC5210008F6
:1025800047220008752100082DE9F0479A461746B2
:102590000E4604464FF000094FF02008089D4AE01F
:1025A000681C48D0FEF744F9A0EB0A00A8422AD8DC
:1025B0004DB32068016849073DD5C069C043000597
:1025C00039D421684FF400600862206850E8001F89
:1025D00021F4D07140E80012002AF6D120680830BA
:1025E00050E8001F21F0010140E80012002AF5D157
:1025F00044F8848FC4F80480C4F8088004F8049C6C
:102600000320BDE8F087216851E8000F20F4D07066
:1026100041E80002002AF6D12068083050E8001F87
:1026200021F0010140E80012002AF5D144F8848F1E
:10263000C4F80480E2E72068C06936EA000004D0EC
:102640000020B842ACD00020DBE70120F9E7000011
:1026500010B50648FEF7C4FF04480068C06980064C
:1026600003D5BDE81040FFF729BC10BD8000002055
:10267000FEE730B5002308E00468E5692D06FCD5C7
:1026800011F8015BA5625B1CDBB29342F4D330BD51
:102690000907090E002804DB00F1E02080F800148F
:1026A000704700F00F0000F1E02080F8141D704723
:1026B00002E008C8121F08C1002AFAD1704770470B
:1026C000002001E001C1121F002AFBD1704708B5AC
:1026D000FEF7C2F8FFF714FCFFF7B3FA4FF0B04073
:1026E000C16C41F00201C164C06C00F002000090B6
:1026F0000420FFF7DDF90120FFF7DAF90022114687
:102700000B20FEF7EDF80B20FEF7DDF8FFF76AFA75
:10271000FEE70A0607002000010002001000010089
:102720000200010002000400060008000A000C007C
:10273000100020004000800000010101010307019A
:10274000000008040204080101010000120000005A
:1027500024000000360000004000000006000000D9
:102760000C0000001000000000000000010000004C
:102770000200000003000000010000000300000050
:10278000050000000100000001000000060000003C
:102790000A00000020000000020000000400000009
:1027A0000800000010000000400000008000000051
:1027B0000001000000020000A0860100400D03009F
:1027C000801A060000350C0040420F0080841E0075
:1027D00000093D0000127A000024F40000366E016A
:1027E0000048E801006CDC0200000000000000006E
:1027F00000000000000000000000000000000000D9
:1028000000000000000000000100000002000000C5
:102810000300000004000000382800080800002021
:1028200078000000B0260008B028000880000020D2
:1028300030050000C0260008000000000000000075
:1028400000000000000000000D0A555341525420C2
:102850004578616D706C65203A20456E7465722014
:102860006368617261637465727320746F20666956
:102870006C6C20726563657074696F6E206275663A
:10288000666572732E0D0A000004004800040048BB
:102890000004004800080048000C0048000C0048F4
:1028A00001000000100000000000000000093D00D1
:040000050800013DB1
:00000001FF
