:020000040800F2
:1000000058150020550100082B2D000879280008FC
:10001000292D0008F5070008B13B0008000000008A
:10002000000000000000000000000000053500088E
:10003000D108000800000000FF2D00086735000807
:100040006F0100086F0100086F0100089F30000871
:100050006F0100086F010008D5080008DB080008E0
:100060006F0100086F010008E10800086F01000837
:100070006F0100086F010008B90800086F0100084F
:100080006F0100086F0100086F0100086F01000890
:100090006F0100086F0100086F0100086F01000880
:1000A0006F0100086F0100086F0100086F01000870
:1000B0006F0100086F0100086F0100086F01000860
:1000C0006F0100086F0100086F0100086F01000850
:1000D0009D3800084D2B00086F0100086F010008D3
:1000E0006F0100086F0100086F0100086F01000830
:1000F0000B2900080F290008492200086F01000899
:100100006F0100086F0100086F0100086F0100080F
:100110006F0100086F0100086F0100086F010008FF
:100120006F0100086F010008C50800086F01000892
:100130006F0100086F0100086F010008DFF810D0A0
:1001400000F048F80048004701470008AFF300807E
:10015000581500200648804706480047FEE7FEE79E
:10016000FEE7FEE7FEE7FEE7FEE7FEE7FEE7FEE767
:10017000ED3500083D01000810B540EA01040346D2
:10018000A40703D009E010C9121F10C3042AFAD231
:1001900003E011F8014B03F8014B521EF9D210BDD8
:1001A000D2B201E000F8012B491EFBD270470022B9
:1001B000F6E710B513460A4604461946FFF7F0FF66
:1001C000204610BD421C10F8011B0029FBD1801AEB
:1001D00070470000064C074D06E0E06840F0010360
:1001E00094E8070098471034AC42F6D3FFF7AAFF13
:1001F000944B0008D44B000870B58C1810F8015BC4
:1002000015F0070301D110F8013B2A1106D110F8AF
:10021000012B03E010F8016B01F8016B5B1EF9D1B3
:100220002B0705D40023521E0DD401F8013BFAE739
:1002300010F8013BCB1A921C03E013F8015B01F8A4
:10024000015B521EF9D5A142D8D3002070BD000039
:1002500000B587B01C2205496846FFF78DFF03F003
:10026000ABFA684603F045F807B000BD304A000815
:1002700010B586B014216846FFF799FF0020029060
:10028000032001904FF460400090012002F075FBC4
:1002900069464FF0904000F093FC4FF0B044E06CA2
:1002A00020F00100E06418200090022002F065FBBD
:1002B0006946084800F084FCE06C20F00200E0642D
:1002C00000F066FB00F074FB00F06AFB00F004F83D
:1002D00006B010BD00040048F0B585B01421684692
:1002E000FFF765FF0024324B324A2546264620465A
:1002F0004FF090474FF4806C02EBC00191F806E09C
:10030000BEF1000F0AD0D1F800E0BE4549D01EEB87
:10031000030E49D0E64501D189880E43401CC0B286
:100320002628E9D3002002900120019003200390A9
:100330007CB10120009402F020FB012002F042FB7E
:100340006946384600F03CFC00222146384600F061
:1003500037FD8DB10220009502F00FFB022002F064
:1003600031FB134C69466442204600F029FC002210
:100370002946204600F024FD002E10D004200096CF
:1003800002F0FBFA042002F01DFB0B4C69462046EC
:1003900000F016FC00223146204600F011FD05B0A9
:1003A000F0BD89880C43B9E789880D43B6E70000A2
:1003B00000FCFFB700490008000800487047000033
:1003C00030B589B00446456804A802F09FFFB5F82F
:1003D0000B00B0F5124F0AD100200090019002905E
:1003E00003906168497B21B1012900D1207009B0D7
:1003F00030BDFFF72DFF0D208DF800007F208DF818
:10040000020007480068000CADF80C00684602F0D6
:1004100064FF00F007F80021012003F06BFAE6E723
:10042000002004E010B590B0342225496846FFF75B
:10043000A3FE24480D9024480E900DA9234803F0F4
:1004400093FF0121022003F055FA214A00210420E4
:1004500003F076FA684602F033FF08B100F066FA5E
:1004600000F03AF902F0E6FF1A4C00201A4A84F82C
:1004700080004FF6FF70E0820021012003F060FA57
:1004800000F0D0F901F00AFE0022144B04F18101C2
:10049000104602F031F80221012204F119006176C0
:1004A0000D23135418220A5403202076201F802184
:1004B0000180A0214180012000F03EF810B010BD65
:1004C000944A000828000320D9050008ED0500081B
:1004D000E9450008B4000020D105000831050008F6
:1004E00003F0ACBB0148C08A03F049BDB400002052
:1004F0003EB50E4C02AA01A9E08A03F05DFF002878
:100500000ED19DF80410022903D19DF8081002298C
:1005100007D00090E08A02231A46002103F0AAFFC8
:100520003EBD00900123E08A1A46F6E7B4000020A1
:100530000021012003F09ABAF0B587B005460128E2
:100540000BD04FF4C8674FF47A661D4C94F88100C5
:1005500002F036F9022D05D00CE01948001F07887B
:100560004688F2E794F88000012801D0022801D1E2
:1005700003F0E5FC84F88050227E002010490392AD
:100580001931CDE9041006220690CDE900020D498B
:10059000029103463246394603F05BFC0A490E20BD
:1005A00003F014FD002809D1012D07D194F8810032
:1005B00007B00649BDE8F04002F0C2B807B0F0BD90
:1005C000B40000206C4A00082200002046E0010030
:1005D0000220FFF7B1BF704720B1012805D13F20AD
:1005E00003F0BEB93F2003F09DB9704710B5044633
:1005F0004068083002F05CFF00B10120207010BD9F
:100600007047000030B585B00D4604461421684699
:10061000FFF7CDFD24B1012C04D0022C02D004E060
:10062000042000E0082002F0B2F91749174A01201F
:10063000CDB1012D15D131F8141002904FF40410F2
:10064000CDE9001052F82400694600F0B9FA0E4DC9
:1006500000220A3D0F21285700F0A4FC285700F083
:1006600086FC05B030BD31F8141000910021CDE9B1
:1006700001100220039052F82400694600F0A0FA0D
:10068000012000F069FAECE7D04A000840000020A1
:10069000704700000D4810B50068411C0FD00B4991
:1006A000091D0A680A49130A0870000A48708A700E
:1006B000CB70180A0871180C4871084610BD00204C
:1006C00002F044FB0028F9D1024810BD8075FF1FDD
:1006D0001C000020664A000830B5404889B0006818
:1006E000089003F007FFFFF7D5FF044602460621F6
:1006F000002003F002FE3A496079384A08722079F6
:100700004872E0788872A078C872607808732078A0
:1007100048730E321021182003F0EFFD2F4A1021EC
:100720001E32082003F0E9FD2C4A10210E32182059
:1007300003F0E3FD294A10211E32082003F0DDFDFD
:100740001821012003F0B1FD03F020FD07AA06A93E
:10075000CDE90012012023A405AB0722002103F0FC
:10076000ADFA2046FFF72EFDC3B200940022BDF87B
:100770001810BDF8140003F02AFD08A80090022309
:100780000022BDF81C10BDF8140003F020FD022269
:100790001146002003F044FE144C01252846257024
:1007A00003F0A8FB657008212171102262710020FE
:1007B000E0700F4BA360A570CDE901200091CDE959
:1007C0000330034601222946284603F009FBA0789E
:1007D000002801D003F052FA09B030BD644A000885
:1007E00022000020485253544D000000B400002065
:1007F00007B20100FEE7704710B50949074C496888
:1008000030B101202070002907D0BDE81040084712
:1008100009B1002088470020207010BD8801002009
:10082000880000201CB505A0009004208DF804006D
:10083000694642F6292000F02BF81CBD53544D00A8
:1008400030B5124C87B00025256041F60A00ADF89E
:1008500018000122032306A91046009403F041FC6E
:1008600042F62920ADF81800A01C0121CDE90410A2
:100870000A220220CDE90252CDE90005208820237A
:1008800006AA03F0CFFB07B030BD00006C010020CA
:1008900008B5A0F62920B0F5005F01D0002008BD02
:1008A0000868009003480B7900224188008803F013
:1008B0008EFC08BD6C010020014800F0F0B800007B
:1008C000C4030020014800F0EAB80000240400201E
:1008D00070477047012000F067B9022000F064B94A
:1008E000102000F061B9000070B50E4C03212046C5
:1008F00002F07CF80028F9D10421204602F076F8B5
:100900004FF4806548B908480168C1F3C03119B98E
:100910000068C0F3802010B1256102F00BFEE56095
:1009200070BD000000140058880400587047000093
:1009300070B5154D4FF480662E610321284602F0F4
:1009400055F80028F9D14FF0B044A06800F00C0031
:10095000042816D1206840F4803020600B480168DC
:1009600021F00701491C01602068C0F340400028C5
:10097000FAD0022002F0E1F8A06800F00C0008288C
:10098000FAD1EE6070BD000000140058004000581D
:100990000248416821F0010141607047002004E0F5
:1009A0000248416821F0040141607047002004E0E2
:1009B0000248416821F0020141607047002004E0D4
:1009C00010B540B190F825100023022905D004216C
:1009D000C16380F82430012010BD01680A6822F04C
:1009E0000E020A60816C0A6822F480720A60016853
:1009F0000A6822F001020A6090F84410046C01F0C9
:100A00001C01012202FA01F16160D0E913144C606B
:100A1000416D31B10C6824F480740C60D0E9161477
:100A20004C6080F8252080F82430002010BD10B5DF
:100A300090F825100024022903D00421C163012469
:100A40002BE001680A6822F00E020A6001680A6859
:100A500022F001020A60816C0A6822F480720A6046
:100A600090F84410036C01F01C01012202FA01F11C
:100A70005960D0E913134B60416D31B10B6823F419
:100A800080730B60D0E916134B6080F8252000219D
:100A900080F82410816B01B18847204610BDF0B466
:100AA000016C0C6801680D6890F8442002F01C0687
:100AB000042202FA06F3234211D06B070FD50B680C
:100AC0009B0603D40B6823F004030B6090F84410DA
:100AD00001F01C018A40016C4A60016B1DE0022399
:100AE00003FA06F727424FF0000C4FF0010218D02E
:100AF000AF0716D50C68A40605D40C6824F00A04C8
:100B00000C6080F8252090F8441001F01C018B4007
:100B1000016C4B6080F824C0C16A00291AD0F0BC77
:100B200008470823B340234214D02B0712D50B6883
:100B300023F00E030B6090F84410036C01F01C01CD
:100B400002FA01F15960C26380F8252080F824C0C0
:100B5000416BE2E7F0BC704770B5044600F036F92F
:100B60000546601C02D000F037F90444064E00BF71
:100B700000F02CF9401BA04205D2306820F00400A0
:100B8000306030BFF4E770BD10ED00E0012805D003
:100B9000022805D0102805D1FFF7A2BCFFF7A2BCA0
:100BA000FFF7A6BC70470000044910B50A6802426E
:100BB00002D00860FFF7EAFF10BD00000C080058E3
:100BC0002DE9F04FDFF8E0B1DFF8DC9100230125DB
:100BD00003240BF1800B85B00F2709F1040A0BF1F8
:100BE000040ED9E005FA03FC12EA0C027ED00E795D
:100BF00006F00306012E01D0022E20D18668009651
:100C00005E0004FA06F80496009E26EA080600969E
:100C1000D1F80C80049E08FA06F8009E48EA0608FF
:100C2000C0F80880466826EA0C0691F804C0CCF3A8
:100C3000001C0CFA03FC4CEA060CC0F804C00E7948
:100C4000F643B6070DD0D0F80CC04FEA430804FABB
:100C500008F62CEA060C8E6806FA08F646EA0C0638
:100C6000C6600E7906F00306022E15D1DE0800EBF1
:100C700086060296366A4FEA437C4FEADC6807FA3A
:100C800008FC26EA0C06D1F810C00CFA08FC4CEA65
:100C9000060C029EC6F820C0D0F800C04FEA4308F8
:100CA00004FA08F62CEA060C0E7906F0030606FA9A
:100CB00008F646EA0C0606604E6816F4403F6AD015
:100CC0003A4E23F0030C66440296B6684FEA837CE2
:100CD0004FEA1C7807FA08FC26EA0C06B0F1904FA0
:100CE00008D0DFF8CCC0604507D100E053E04FF0FA
:100CF000010C19E04FF0000C16E0DFF8B8C06045B9
:100D000002D14FF0020C0FE0DFF8ACC0604502D119
:100D10004FF0030C08E0DFF8A4C0604502D14FF0AB
:100D2000040C01E04FF0070C0CFA08FC4CEA060C2E
:100D3000029EC6F808C0D9F80060CC46D1F80480FD
:100D400096435FEAC82800D51643CCF80060DAF86D
:100D50000060D446D1F8048096435FEA882800D525
:100D60001643CCF80060DBF80060DC46D1F8048064
:100D700096435FEAC83800D51643CCF80060DEF829
:100D80000060F446D1F8048096435FEA883800D5C5
:100D90001643CCF800605B1C0A6832FA03F67FF455
:100DA00021AF05B0BDE8F08F0008005800000140F9
:100DB0000004004800080048000C004800100048EB
:100DC0000AB1816170478162704700000148806804
:100DD0007047000050000020014800787047000074
:100DE000500000200148406870470000500000207B
:100DF00070470000064810B5006805490C390A68BC
:100E000082430A60091D0860FFF7F2FF10BD000071
:100E10000C15005870B504004FF0000616D00D4DAB
:100E200094F8380010B9204600F016F8284601F072
:100E300070FD286840F001102860204601F072FD26
:100E400000206063012084F8380000E0012630466D
:100E500070BD0000000C005810B500680C498842B5
:100E600015D14FF4801001F09CFD002211462C207A
:100E700000F098F82C2000F07AF8002211462D207E
:100E800000F090F8BDE810402D2000F070B810BDC3
:100E9000000C00587047704702488168027811447E
:100EA0008160704750000020094810B50168002497
:100EB00041F480710160032000F094F8002000F0FC
:100EC00009F808B1012401E000F024F8204610BD23
:100ED0000040005870B50E4E054600243078A0B191
:100EE00000F0A8FA31784FF47A72B2FBF1F1B0FB5E
:100EF000F1F000F033FF40B9102D06D20022294650
:100F0000501E00F04FF8756000E00124204670BDCF
:100F10005000002010B54FF4002001F042FD0022E7
:100F200011462E2000F03EF8BDE810402E2000F0C3
:100F30001EB8002809DB00F01F0201219140400982
:100F4000800000F1E020C0F88012704700280DDB1F
:100F500000F01F02012191404009800000F1E020D3
:100F6000C0F88011BFF34F8FBFF36F8F7047002819
:100F700009DB00F01F02012191404009800000F1CF
:100F8000E020C0F800117047002809DB00F01F02C4
:100F9000012191404009800000F1E020C0F80012DA
:100FA00070470000F0B40E4B1B680C46C3F30223DD
:100FB000C3F10705042D00D90425191D072901D205
:100FC000002300E0DB1E012606FA05F1491E214040
:100FD00099409E40761E16403143F0BC02F0EABDB7
:100FE0000CED00E0064900F0070208684FF6FF0329
:100FF000184040EA0220034A10430860704700008E
:101000000CED00E00000FA050248006800F4C06042
:1010100070470000000400580248016841F48071E4
:1010200001607047000400582DE9F0410446002794
:1010300000783E4640064FF0B04517D5206B78B19A
:10104000B0F5800F07D0B0F5000F3BD0B0F5400FE2
:1010500038D0012709E0E86840F48030E86031E0EA
:10106000201D01F0E2FE07002CD03E46208800053E
:1010700046D5D5F8900000F44076206CB0423ED0C2
:10108000FFF7CAFF3EB3D5F89000D5F8901041F4B1
:101090008031C5F89010D5F8901021F48031C5F852
:1010A0009010216C20F440700843C5F89000D5F8EA
:1010B000900010F0010F22D0FFF788FE064641F2A3
:1010C000883818E0206BD5F8881021F440010143DE
:1010D000C5F88810CAE7206CD5F8901021F440714B
:1010E0000143C5F890100AE0FFF770FE811B4145EF
:1010F00001D9032703E001F0ACFC0128F4D13E46FE
:101100002078C00707D0A069D5F8881021F0030126
:101110000143C5F888102078800707D5E069D5F825
:10112000881021F440610143C5F888102078C0067A
:1011300002D5A06A01F0EDFC2078800602D5E06AB5
:1011400001F0E7FC2078400702D5206A01F0D2FCCC
:101150002078000702D5606A01F0CCFC2088C00529
:1011600013D5606B01F0BDFC606BB0F1006F03D173
:10117000E86840F08070E860606BB0F1806F04D187
:10118000201D01F08CFE00B10646208880051BD58D
:10119000A06BB0F1804F10D0B0F1004F0DD060B116
:1011A00020F08057002001F0BFFC384601F099FC88
:1011B000A06BB0F1C05F03D006E001F0B5FCF7E72B
:1011C000E86840F08070E8602088400518D5E06B42
:1011D000D5F8881021F040510143C5F88810E06B24
:1011E000B0F1005F03D1E86840F48030E860E06B64
:1011F000B0F1805F04D1201D01F08BFE00B10646E6
:101200002088C00407D5606CD5F8941021F44041C3
:101210000143C5F89410208880040BD5E06C696AFE
:1012200021F0300101436962A06C696A21F0030179
:10123000014369623046BDE8F08100002DE9F041CC
:101240000F46050077D0794E306800F00700B842AD
:1012500012D2306820F0070038433060FFF7B6FD47
:10126000044604E0FFF7B2FD001B02287DD8306879
:1012700000F00700B842F5D128784FF0B04480075D
:1012800015D5A868A16821F0F0010143A160FFF71E
:101290009DFD804606E000BFFFF798FDA0EB08002B
:1012A000022862D8A068C0F300400028F4D0287853
:1012B000800617D56869D4F8081121F0F0010143C0
:1012C000C4F80811FFF782FD804605E0FFF77EFDB8
:1012D000A0EB0800022848D8D4F80801C0F3404029
:1012E0000028F3D02878400618D5A869D4F808114A
:1012F00021F00F0141EA1010C4F80801FFF766FD64
:10130000804605E0FFF762FDA0EB080002287CD8CC
:10131000D4F80801C0F300400028F3D02878400733
:1013200015D5E868A16821F4E0610143A160FFF7E9
:101330004DFD804606E046E0FFF748FDA0EB0800C3
:10134000022862D8A068C0F340400028F4D0287872
:10135000000716D52869A16821F4605141EAC0014F
:10136000A160FFF733FD804606E04EE0FFF72EFD5B
:10137000A0EB0800022848D8A068C0F380400028ED
:10138000F4D02878C0072CD06868022805D003283C
:1013900006D0A8B101F04EFB05E001F045FB02E0EC
:1013A0002068C0F3406070B16868A16821F0030153
:1013B0000143A160FFF70AFD044641F288380AE0C4
:1013C00001F05EFBEFE70120BDE8F081FFF7FEFCD6
:1013D000011B414519D801F021FB6968B0EB810F71
:1013E000F4D1306800F00700B84215D9306820F019
:1013F000070038433060FFF7E9FC044607E000BF10
:10140000FFF7E4FC001B022801D90320DCE7306869
:1014100000F00700B842F3D100F00CF8044908606E
:10142000FFF7E0FCBDE8F041FFF754BD0040005875
:101430004C00002010B500F00FF84FF0B041896863
:10144000044A01F0F00102EB91010968B0FBF1F0F0
:1014500010BD0000D84A00082DE9F04101F0DEFA85
:10146000204F38B3204C04282CD066004FF0B045F4
:10147000082829D001F02FFB022808D003282AD001
:1014800001F0F5FA00F0F00007EB90000468E8685E
:10149000E968C0F30620604301F07002012101EB0E
:1014A0001212B0FBF2F2E86801EB5070B2FBF0F000
:1014B000BDE8F08101F0DBFA00F0F00007EB9000EE
:1014C0000068F5E72046F3E72868C0F300500028DD
:1014D000F8D13046ECE72868C0F300500028D6D198
:1014E0003446D4E7184B00080024F4002DE9F041FD
:1014F00004007DD020784FF0B045800661D501F022
:101500008DFA064601F0E7FA76B10C2E01D10128DA
:101510000AD0E0690028286842D040F00100286025
:10152000FFF754FC064630E001F0AAFA10B1E0697A
:101530000028DED001F09BFA0146606A81420AD29F
:1015400001F06AFD002853D1606A01F0A8FA206A10
:1015500001F09CFA09E001F0A2FA206A01F096FA83
:10156000606A01F059FD0028EDD1FFF763FFF749EC
:101570000860F7480068FFF7ADFC0028E3D120E0E1
:10158000FFF724FC801B022874D801F079FA0028A8
:10159000F6D0606A01F083FA206A01F077FA10E071
:1015A00020F001002860FFF711FC064605E000BFAF
:1015B000FFF70CFC801B0228E6D801F061FA002836
:1015C000F6D12078C0073CD001F028FA064601F099
:1015D00082FA082E13D00C2E01D103280FD0606898
:1015E000B0F5803F286811D020F48030286000E0FA
:1015F00008E26068C0B1FFF7E9FB06460FE001F0C2
:1016000013FAF0B16068002893D01AE040F48030FB
:10161000ECE700BFFFF7DAFB801B6428B4D801F0C9
:1016200003FA0028F6D00CE0FFF7D0FB064604E0F2
:10163000FFF7CCFB801B6428A6D801F0F5F9002841
:10164000F6D1207880073CD501F0E8F9064601F094
:1016500042FA042E0FD00C2E01D102280BD0E068E4
:10166000002828681CD040F480702860FFF7AEFB8B
:10167000064610E03AE101F0DDF910B1E06800281B
:10168000C2D0206901F0DCF91BE000BFFFF79EFB30
:10169000801B022890D801F0CDF90028F6D0F0E7A1
:1016A00020F480702860FFF791FB064605E000BF3C
:1016B000FFF78CFB801B0228B0D801F0BBF9002893
:1016C000F6D12068010701D4C1064ED56169E1B3A6
:1016D000C0064BD501F0C4F998B9D5F8940040F094
:1016E0000100C5F89400FFF771FB064605E000BF56
:1016F000FFF76CFB801B022890D801F0B1F900289D
:10170000F6D0D5F8940040F00400C5F89400FFF737
:101710005DFB064605E000BFFFF758FB801B032872
:101720008AD8D5F89400C0F3C0000028F4D0A0698E
:10173000D5F8941021F4706141EA0020C5F89400B6
:10174000D5F8940020F0010000E035E0C5F89400E1
:10175000FFF73CFB064604E0FFF738FB801B02283E
:1017600098D801F07DF90028F6D14EE0D5F8940024
:1017700040F00100C5F89400FFF728FB064604E09E
:10178000FFF724FB801B022884D801F069F90028A8
:10179000F6D0D5F8940020F00400C5F8940004E0D9
:1017A000FFF714FB801B032886D8D5F89400C0F3FC
:1017B000C0000028F4D128E0D5F8940020F00400FF
:1017C000C5F89400FFF702FB064604E0FFF7FEFAB7
:1017D000801B032890D8D5F89400C0F3C0000028DF
:1017E000F4D1D5F8940020F00100C5F89400FFF77B
:1017F000EDFA064605E000BFFFF7E8FA801B022875
:1018000074D801F02DF90028F6D12078400750D582
:10181000504F3868C0050DD4FFF7FEFBFFF7D6FA2E
:10182000064604E0FFF7D2FA801B02285ED838682B
:10183000C005F7D5A068012816D00528D5F8900076
:1018400017D020F00100C5F89000D5F8900020F0E6
:10185000040000BFC5F89000A06841F28836C8B106
:10186000FFF7B4FA07460EE0D5F8900040F001000B
:10187000F0E740F00400C5F89000F5E7FFF7A6FA9E
:10188000C01BB04232D8D5F89000C0F34000002809
:10189000F4D00EE0FFF79AFA074604E0FFF796FA55
:1018A000C01BB04222D8D5F89000C0F340000028F9
:1018B000F4D1207840062ED5A06A0028D5F89800EB
:1018C00015D040F00100C5F89800FFF77FFA0646F2
:1018D00005E000BFFFF77AFA801B022806D8D5F88A
:1018E0009800C0F340000028F4D014E089E020F014
:1018F0000100C5F89800FFF769FA064605E000BF49
:10190000FFF764FA801B02287BD8D5F89800C0F353
:1019100040000028F4D1E06AF0B301F07FF80146FE
:10192000E868E26A022A19D00C296BD0286820F0F6
:1019300080702860E86820F00300E860E8680649E5
:101940000840E860FFF742FA044687E04C000020B8
:101950005400002000040058FFFFFEEE236B00F04F
:1019600003029A421AD1636B00F070029A4215D1B9
:10197000A26BC0F306239A4210D1E36B00F47812F5
:101980009A420BD1236C00F060629A4206D1626CDD
:1019900000F06040904200E056E03ED00C2962D05A
:1019A000286840015FD4286820F080702860FFF725
:1019B0000DFA064605E000BFFFF708FA801B022873
:1019C00049D828688001F7D4D4E90C010843D4E948
:1019D0000E2141EA02210843216C0843616C08434F
:1019E000E968224A11400843E860286840F08070A6
:1019F0002860E86840F08050E860FFF7E7F90446A7
:101A000007E028E02FE000BFFFF7E0F9001B022805
:101A100021D828688001F7D523E02868800120D4E8
:101A2000286840F080702860E86840F08050E860E6
:101A3000FFF7CCF9044604E0FFF7C8F9001B0228C1
:101A400009D828688001F7D50BE000BFFFF7BEF981
:101A5000001B022802D90320BDE8F081286880011C
:101A6000F4D40020F8E70120F6E700008C80C111D3
:101A700070B5040003D0607A002510B105E00120A4
:101A800070BD2572204600F013F8022060722068B5
:101A90000168626821F0200111430160206801683B
:101AA00041F00401016001206072E560002070BD1A
:101AB00010B594B0044650216846FEF778FB0A49F9
:101AC000206888420ED14FF400700090C0040E9040
:101AD0006846FFF7A9FA08B1FEF728FF4FF4802007
:101AE00000F05FFF14B010BD001000582DE9F74F53
:101AF000044690F820008B4601281CD04FF00108C6
:101B000084F82080022084F821002168CA204862DD
:101B1000216853204862206880684FF00005400526
:101B20004FF0FF064FF0030A4FF47A790FD5FFF715
:101B30004DF9074607E00220BDE8FE8FFFF746F9A2
:101B4000C01B484519D82068C0684007F6D42068F3
:101B5000816821F4806181602068C16801F08001A2
:101B600061F49061C160FFF731F907460DE000BFF5
:101B7000FFF72CF9C01B484507D92068466284F856
:101B800021A084F820500320D6E72068C0684007D1
:101B9000EED52168C1F814B02068816821F00701F2
:101BA000816020688168029A114381600E48016853
:101BB00041F4002101600C488038016841F40021A3
:101BC00001602068816841F48041816020688168FB
:101BD00041F4806181602068466284F8218084F845
:101BE00020500020A8E70000800800582DE9F041AF
:101BF000040052D094F82100002620B984F8206017
:101C0000204600F057F8022084F821002168CA20FD
:101C10004862216853204862204601F023FAFF25DC
:101C200004270028206803D0456284F8217034E03E
:101C300081681F4A11408160216888686268A369D1
:101C4000104322691A43104388602168E0680861E4
:101C500020680169228941EA024101612068C16866
:101C600021F08001C1602068C16C21F00301C164D2
:101C7000E169606901432068C26C1143C164206856
:101C8000806880060CD4204600F046F840B12068F9
:101C9000456284F8217084F820600120BDE8F0815D
:101CA00020684562012084F821000020F6E700004A
:101CB000BFFF8FFF10B596B0044650216846FEF76F
:101CC00076FA14492068884221D1C0140090C010CF
:101CD00010906846FFF7A8F908B1FEF727FE4FF00D
:101CE000B04050F8901F41F4004140F838190168A5
:101CF00041F4806101600068002200F4806014906B
:101D000011460320FFF74EF90320FFF730F916B014
:101D100010BD00000028004070B504460068C1688E
:101D200021F0A001C160FFF751F805464FF47A7623
:101D300007E000BFFFF74AF8401BB04201D903207B
:101D400070BD2068C0688006F4D5002070BD4FF0DB
:101D5000E020016941F002010161704710B5401EA9
:101D6000B0F1807F01D3012010BD4FF0E02460610D
:101D70000F21601701F01EFF0020A06107202061E5
:101D8000002010BD4FF0E020016921F00201016147
:101D90007047704770477047704770472DE9F041B2
:101DA00003680446D86919689A6840F60F05284206
:101DB0004FF0000509D186067ED501F0200602F01D
:101DC00080573E4378D0216F27E1A94EA94F164096
:101DD0000F40374370D0C70709D0CF0507D501277B
:101DE0001F62D4F88C3043F00103C4F88C308307B1
:101DF0000AD5D30708D0276802233B62D4F88C3079
:101E000043F00403C4F88C3043070AD5D30708D045
:101E1000276804233B62D4F88C3043F00203C4F8F3
:101E20008C3003070CD501F02003334308D026681B
:101E300008233362D4F88C3043F00803C4F88C30A4
:101E400003050BD54B0109D526684FF400633362B7
:101E5000D4F88C3043F02003C4F88C30D4F88C30A4
:101E6000002B3AD0800609D501F0200002F0805105
:101E7000084303D0216F09B120468847D4F88C006D
:101E800021688968490602D410F0280F27D020461F
:101E900001F0DAFC2068806840061BD52068083015
:101EA00050E8001F21F0400140E80012002AF5D15F
:101EB000E06F78B1704900E017E08163E06FFEF7F2
:101EC000B6FD002809D0E06F816B00E02046BDE838
:101ED000F04108472046FFF760FFBDE8F08120464B
:101EE000FFF75BFFC4F88C50F7E7E76E2026012F61
:101EF0007ED1C7067CD5CF067AD51020186220681F
:101F00008068400642D5E16F086840680004000C14
:101F1000E3D0B4F85C208242DFD9A4F85E00086800
:101F2000006880062BD4206850E8001F21F48071DF
:101F300040E80012002AF6D12068083050E8001F5F
:101F400021F0010140E80012002AF5D12068083094
:101F500050E8001F21F0400140E80012002AF5D1AE
:101F6000C4F88860E566216851E8000F20F0100091
:101F700041E80002002AF6D1E06FFEF721FDB4F837
:101F80005C00B4F85E10401A81B22CE0B4F85C003A
:101F9000B4F85E10401A81B2B4F85E0000289CD0FC
:101FA00000299AD0226852E8000F20F4907042E88D
:101FB0000003002BF6D12E4BDB432068083050E89D
:101FC000002F1A4040E80027002FF6D1C4F888609F
:101FD000E5662567226852E8000F20F0100042E80D
:101FE0000003002BF6D12046FFF7D3FE75E7FFE78D
:101FF000C70209D5570207D54FF480101862204652
:10200000BDE8F041FFF7C8BE03060AD501F0800322
:1020100002F40002134304D0616F00297FF456AF2D
:102020005BE7420611D54A060FD52046016851E804
:10203000002F22F0400241E80023002BF6D1C0F827
:102040008460456700F01AF847E7020206D54A00A7
:1020500004D52046BDE8F041FFF79DBEC001C5D5BF
:102060000029C3DA2046BDE8F041FFF793BE000027
:102070000100001020010004353800080068044900
:10208000C84204D103484068002800D00047704788
:1020900000C8FEBF140000207047000010B5144AAD
:1020A0000021022001F04CFC124C0020214620733C
:1020B0000420207042F6382000F0ACF81F20E072B7
:1020C0000A20A0800120A07200204FF4806100BF90
:1020D00004EB4002401CD18010F0FF00F8D005490D
:1020E00001220D31BDE81040034B002000F004BA7E
:1020F000FD20000838010020012900080D48006873
:102100000D4900F0070041304880C87A02070846B0
:10211000007B00D510B1012804D005E08888401D5F
:10212000888001E00020087342F63720891C00F007
:1021300071B800002828004038010020F0B587B0B1
:10214000234801F085F941F60D00ADF81800214D46
:102150000122082306A91046009501F0C2FF42F6AD
:102160003720ADF81800A81C01210024CDE9041087
:102170000A261020CDE90246CDE90004288807236D
:1021800006AA01F04FFF42F63820ADF81800281DCE
:10219000CDE904400227CDE90246CDE900740123D0
:1021A000288806AA194601F03DFF42F63920ADF80D
:1021B0001800A81DCDE90440039608208DE8910081
:1021C0000123288806AA194601F02CFF07B0F0BDAC
:1021D0007D2800087001002010B501780C4C49B131
:1021E00020460129407B0AD0022907D1BDE81040D2
:1021F00000F0E6BA0020A0800120207310BD00F09E
:10220000DFFA607BBDE8104040F6010100F098BAAB
:1022100038010020024608B50020A2F63722B2F5A8
:1022200000520AD0012A07D1064800910123818873
:102230000088002201F0CBFF08BDBDE80840084639
:1022400001F07ABC70010020FEF7D4BD7047000099
:1022500001488068004700005C0000200248416897
:1022600021F0010141607047000C005838B50D4C59
:102270000FE069460C4800F096FC0099487A0F2858
:102280000DD00E280BD0032000F078FD6168009877
:102290008847054800F07BFC0028EAD038BD0220C2
:1022A000F2E700005C0000206001032002494FF4C7
:1022B0008030886070470000000C005808B54FF06F
:1022C000B040D0F8501141F48011C0F85011D0F84E
:1022D000500100F4801000900948016841F4007139
:1022E00001600748B438016841F40071016040BFE3
:1022F00020BF0448016841F40041016008BD0000AE
:10230000D40800580C04005808B54FF0B040016DD7
:1023100041F480110165006D00F4801000900848C0
:10232000016841F001010160016841F48031016000
:102330002C20FEF71CFEBDE808402D20FEF717BE3E
:10234000000C005870B5094D04460821284600F0DD
:1023500032FB30B106480460686820F400206860F1
:1023600070BDA0474FF40020A86070BD000C00585D
:102370003000002070B5154C0221204600F02FFBE4
:10238000251D38B12868C043800703D500F032F816
:1023900002200BE00121204600F021FB40B128681B
:1023A000C043C00704D0FFF761FF0120A06070BDEB
:1023B0000821204600F013FB0028F8D02868C0430D
:1023C0000007F4D500F042F80820EFE7000C0058B1
:1023D00010B5064CE0680168052000F0CFFCE0680D
:1023E00003490068C968BDE81040084700000320A1
:1023F0005C00002038B5094C0AE06946084800F046
:10240000D2FB0620009900F0B9FC216900988847AA
:10241000034800F0BCFB0028EFD038BD5C00002072
:10242000680103200248416821F0020141607047C1
:10243000000C005804484FF400318160416821F4D9
:102440000031416070470000000C005808B506E0FC
:102450006946064800F0A7FB009801F0ABF9034875
:1024600000F095FB0028F3D008BD000058010320C0
:102470000248416821F0080141607047000C005893
:1024800070B51B4C0221204600F095FA251D50B96D
:102490002868C043800306D5606840F4003060605F
:1024A000FFF796FF70BD0821204600F084FA70B94E
:1024B0002868C04300030AD5606840F400206060CB
:1024C0000C48006880474FF40020A06070BD2021B8
:1024D000204600F070FA0028F8D12868C043800236
:1024E000F4D5606840F400106060FFF7B1FE70BD85
:1024F000000C005830000020F0B50024EFF31085E8
:1025000072B6124E03E0641CE4B2062C06D204EB51
:10251000440706EBC7073F7B002FF4D1062C10D0F1
:1025200004EB440C06EBCC074FF0010E87F80CE0EF
:1025300085F3108838617A7346F83C300C700020BF
:10254000F0BD85F310880120F0BD0000A00100203F
:102550002DE9F041414CCA22A1600B685A620B6818
:1025600053225A623E4A136843F0200313601268F4
:102570003B4E02F00702C2F10403083623703268B2
:102580004FF4FE0595FAA5F502F4FE02B5FA85F5BD
:10259000EA40521CD5B265703268C2F30E02521C7A
:1025A0006280521E6A43A2F5A072DA404FF6FF73B2
:1025B0009A4201D3A38000E0A2802A4A4FF400236C
:1025C000156845F400251560264A8032156845F4E3
:1025D00000251560A0B10868C068400502D5032039
:1025E000FEF7D2FCA168FF2009684862032100229F
:1025F0000846FEF7D7FCBDE8F0410320FEF7B7BC64
:10260000194A01209070801E50600020054602F19A
:10261000080600BF00EB400706EBC7073D73401CF0
:10262000C0B20628F6D3062010700868826822F42B
:10263000806282600868C16801F0800161F4906185
:10264000C16008480C3003600320FEF772FCA068EC
:102650000068816841F480418160C3E70800002080
:10266000082800400008005898010020104700008A
:102670002DE9F05FEFF3108472B6CA272D4DA868DC
:1026800001684F6202684FF05308C2F82480016865
:102690008A6822F480628A60274991F8009001F1EB
:1026A000080309EB490203EBC20696F80CC0BCF123
:1026B000020F17D00168CA685207FCD50846C968DE
:1026C00001F0800161F49061C1601C494FF4002069
:1026D000C1F8000084F31088A968FF2009684862E7
:1026E000BDE8F09F53F832B0D6F810A08878F0B16A
:1026F000707B012810D084F31088484600F060F801
:10270000A86801684F620068C0F824805A464946AC
:102710005046FFF7ABFFDFE70121484601F0E0F943
:1027200084F310887168484600F00AF8E8E700F082
:10273000C5FCCFE708000020980100200C080058D5
:102740002DE9F0410E46804600EB48011A4800EBA7
:10275000C104207B022802D1404600F031F8EFF39B
:10276000108572B60320FEF7F1FB144FCA21B8683A
:102770000268516200685321416202202073A66002
:102780006660404601F066FF0B4908390A784978CF
:10279000914202D000F092FC02E0A168081AA06009
:1027A000B968FF20096848620320FEF7E0FB85F363
:1027B0001088BDE8F0810000A00100200800002082
:1027C00070B50646EFF3108572B60320FEF7BEFB28
:1027D000254CCA21A06802685162006853214162F9
:1027E000224906EB460001EBC000007B02280DD118
:1027F0000021304601F074F91C4908390878062890
:102800000ED04978814201D000F058FCA168FF2029
:10281000096848620320FEF7AAFB85F3108870BDA3
:1028200013480068C043400504D4A0680068C1682C
:102830004907FCD4A06801688A6822F480628A6033
:102840000168CA685207FCD50846C96801F08001D2
:1028500061F49061C16007494FF4002008600320D3
:10286000FEF767FBD2E7000008000020A00100206F
:10287000082800400C080058FEE7000010B5417819
:102880000024421C86B0FF2934D132F8021F1B4BB2
:10289000A1F5406101391BD012292BD1DB88918829
:1028A000921C5B1C994225D1537901240A30012BDB
:1028B0001379CDE90030108804D08023012201F083
:1028C000BCFC17E000231A4601F0B7FC00200CE026
:1028D00058889188801C921C81420BD1107A012467
:1028E000C00701D0012000E002208DF8080002A8F6
:1028F000FFF772FC06B0204610BD000070010020FA
:102900000021022001F0B2B87047FFF733BDFFF796
:10291000B7BD002101604FF03F1141603F21816050
:102920007047000010B5054C054B002100EB8102FB
:10293000491C5460D3610629F8D310BD950E0008D8
:10294000970E000801480168016070479008005820
:10295000704708B54FF0B0418A6C02438A64896CB5
:102960000140009108BD08B54FF0B041CA6C024368
:10297000CA64C96C0140009108BD08B54FF0B04170
:10298000CA6C0243CA64C96C0140009108BD08B515
:102990004FF0B041CA6C0243CA64C96C0140009157
:1029A00008BD08B54FF0B0410A6D02430A65096DD4
:1029B0000140009108BDC068814301D000207047EC
:1029C0000120704708B54FF0B041D1F84C210243C7
:1029D000C1F84C21D1F84C110140009108BDC069EB
:1029E000814301D0002070470120704700EB810037
:1029F000D0F880000349884201D0012070470020B0
:102A0000704700000004008003490A6822F00702B2
:102A100002430A6070470000000400584FF0B040C5
:102A2000806800F00C0070474FF0B0400068C0F3C1
:102A3000404070474FF0B0400068C0F380207047BE
:102A40004FF0B0414A6822F0FE4242EA006048601E
:102A500070474FF0B040D0F89000C0F3400070478E
:102A60004FF0B040D0F89400C0F3400070474FF0F2
:102A7000B040006800F0F000B02800D9B0207047E6
:102A80004FF0B0400068C0F3400070474FF0B041D5
:102A90004A6822F47F4242EA0020486070474FF0C3
:102AA000B0410A6822F0F00202430A6070474FF01A
:102AB000B040016821F08061016070474FF0B04084
:102AC000016841F08061016070474FF0B0400068DC
:102AD000C0F3C06070474FF0B040C06800F0030022
:102AE00070474FF0B04151F8882F22F04062024306
:102AF0000A60704710B54FF0B04151F8883F4FF46D
:102B00007F2202EA1014A34302EA001003430B6081
:102B100010BD4FF0B04151F8882F030C1B049A43AD
:102B200042EA0040086070474FF0B04151F8882FEA
:102B300022F0404202430A6070474FF0B0418A6879
:102B400022F0030202438A60704700000148FFF749
:102B500025B900006C020020006040607047EFF370
:102B6000108272B603680B604860016008684160BB
:102B700082F310887047EFF3108272B608604368E2
:102B80004B6041604868016082F310887047EFF342
:102B9000108172B60268824201D1012000E000205B
:102BA00081F31088704710B5EFF3108472B6026895
:102BB0000A60006800F003F884F3108810BDEFF39A
:102BC000108172B6026843681A6042680068426009
:102BD00081F310887047000070B50D4A157802F136
:102BE000080401EB410204EBC20300EB400204EBDA
:102BF000C202A94208D01D7D05EB450604EBC604C0
:102C000060755175157500E05175187570BD00003F
:102C100098010020704770470C4910B54FF40040F0
:102C2000086100F099FA002000F090F800280BD01D
:102C300081794FF0B040064A40F89C2F026822F498
:102C40007C5242EA0121016010BD000000400058A2
:102C5000FECAFECA00B589B0FFF774FE2848CA2133
:102C6000416253214162816821F007018160FF21A7
:102C700041624FF0B040816841F40041816000F052
:102C800031FE2048016821F0070141F00401016094
:102C90001D490020FFF75CFCFDF7EAFA0121084618
:102CA00000F028FE01210020FDF7ACFC01210846C0
:102CB000FDF7A8FC01210220FDF7A4FC00F0FCFCBC
:102CC000124A0021402000F03BFE114806901148B6
:102CD000079006A9104801F075FD10480090A0F576
:102CE00086700190A0F5C960029040F23C500390BC
:102CF000684600F011FD00F0DDFC09B000BD0000E9
:102D00000028004080040058A003002095480008D7
:102D100024070320BD030008C10300083C09032069
:102D20004FF0FF3000F028BEFEE7704705494968C4
:102D300018B1002905D001200847002901D0002042
:102D4000FAE7704778000020704700000146074806
:102D5000074B00E00838C2798A4201D09842F9D185
:102D6000D2B28A4200D0002070470000F873FF1FE3
:102D70000070FF1FFDF700BAFDF71BBA70477047E0
:102D800010B5FEF7FFFFFDF7AFFD06491F200860F5
:102D90000320FFF739FE0448016841F00401016097
:102DA00030BF10BD1804005810ED00E010B5FEF75C
:102DB000E9FF0348016821F00401016030BF10BD44
:102DC00010ED00E010B5FEF7DDFFFDF78DFD0220F0
:102DD000FFF71AFE0348016841F00401016030BFAB
:102DE00010BD000010ED00E0FEF7B1BFFEF7AFBF71
:102DF00010B5FDF79DFDBDE81040FEF7A8BF704778
:102E000000B595B050216846FDF7D1F94FF4405018
:102E100000904FF4804011900220129010201390E7
:102E20006846FEF701F915B000BD2DE9F0410646F0
:102E30000025FFF73CFEFDF7C9FF044604E0FDF75F
:102E4000C5FF001B02281DD8FFF73FFE0028F6D162
:102E50004FF0B0442069316820F4FE4040EA012080
:102E600020612069716820F4781008432061FFF721
:102E700025FEFDF7ABFF074606E0FDF7A7FFC01BE9
:102E8000022801D9032507E0FFF71FFE0128F4D12E
:102E900020693169084320612846BDE8F0812DE9A9
:102EA000F04106460025FFF702FEFDF78FFF0446BE
:102EB00004E0FDF78BFF001B02281DD8FFF705FE7D
:102EC0000028F6D14FF0B0442069316820F4FE406C
:102ED00040EA012020612069B16820F06060084369
:102EE0002061FFF7EBFDFDF771FF074606E0FDF7F8
:102EF0006DFFC01B022801D9032507E0FFF7E5FDA0
:102F00000128F4D120693169084320612846BDE8D1
:102F1000F0812DE9F04106460025FFF7C8FDFDF7D9
:102F200055FF044604E0FDF751FF001B02281DD8A1
:102F3000FFF7CBFD0028F6D14FF0B044206931688F
:102F400020F4FE4040EA012020612069F16820F071
:102F5000604008432061FFF7B1FDFDF737FF0746EA
:102F600006E0FDF733FFC01B022801D9032507E067
:102F7000FFF7ABFD0128F4D12069316908432061D6
:102F80002846BDE8F081000070B5214A8EB00DF1F1
:102F9000100C78CA8CE8780038CA08AE86E8380089
:102FA0003CCA8DE83C000024B1F5007F6A4621460A
:102FB00007D008AB53F8215085420BD352F821407B
:102FC0000BE004AB53F821508542F7D2491C042989
:102FD000F8D302E0491C0329ECD30E4E306820F0F0
:102FE000070020433060FDF7F1FE054608E000BF12
:102FF000FDF7ECFE401B022802D903200EB070BD85
:10300000306800F00700A042F2D10020F6E700008F
:10301000584B00080040005810B50F49B02801D99E
:10302000C86A03E03C2202EA900008584FF0B04121
:10303000D1F80811094A01F00F0152F82110B0FB34
:10304000F1F4FDF7E1FF01460548B4FBF0F0BDE8FF
:103050001040FFF799BF0000184B0008D84A00083D
:1030600040420F0070B504460068C168490614D498
:103070004FF0FF31C160FDF7A9FE05464FF47A76A7
:1030800007E000BFFDF7A2FE401BB04201D90320BC
:1030900070BD2068C0684006F4D5002070BDFFF701
:1030A000E7BA0000044A106881B2106880B2814219
:1030B00001D00146F9E77047282800402DE9F0418A
:1030C000224800682249C0434205886803D4026848
:1030D000D3685B07FCD400688846816821F480616E
:1030E00081601C4E347806F1080704EB440007EBBE
:1030F000C000856800F0AEF800234FF0010C854257
:1031000001D200220AE0B8F8042041460244AA4253
:1031100002D28A88B37012E0291A8AB286F802C0F5
:103120000DE000BF04EB440107EBC1018C68844251
:1031300001D28B6002E08C68241A8C604C7D062CD6
:10314000F0D1BDE8F041104600F042B80828004038
:10315000080000209801002038B54FF0B044D4F8A2
:103160009400C0F38060A0B1D4F89400C0F3007064
:1031700078B9FDF751FFFDF74FFFD4F8900040F408
:103180008030C4F89000D4F8900020F48030C4F867
:103190009000206D40F480102065206D3F2100F4E8
:1031A00080100090094881608161416841F47C1180
:1031B0004160416941F47C114161416841F03F0146
:1031C0004160416941F03F01416138BD000C005848
:1031D00070B51C4E04002CD01B4D012C02D8287851
:1031E000012801D0641EA4B2A8680168CA68520709
:1031F000FCD50846C96801F0800161F49061C160A6
:1032000012494FF4002008600320FDF792FE104899
:1032100001686FF30F0121430160FFF743FF706006
:10322000A8680068816841F480618160AFF3008024
:1032300070BDFFF737FF7060BDE870400320FDF7F9
:10324000A3BE000098010020080000200C080058D0
:103250001428004010B50B4C6068401C10D0FFF7DC
:1032600021FF62680849824202D36268101A03E0B3
:103270004A88101A626810444A7809785043C84056
:1032800080B210BD98010020080000200021020C2F
:1032900001D110210004020E01D100020831020FF9
:1032A00001D10001091D054A02EB107000780844A5
:1032B000C0B2C0F11F00C0B270470000844B0008CC
:1032C0001FB500F10C026B4625214FF6664001F058
:1032D000B3FA9DF80E0004B010BD1FB502466B4650
:1032E0000E214FF6754001F0A7FA9DF80E0004B0CC
:1032F00010BD1FB500F10C026B460F214FF6684060
:1033000001F09AFA9DF80E0004B010BD70B51C498A
:10331000C96B1C4AC1F30D011B4D52F821301C68CA
:10332000AC4205D103F11401D3E9034326C906E0F9
:1033300052F8213019695A699D695C689B680E0EC4
:1033400006700E0C46700E0A8670C1F30316C67026
:1033500001F00F010171110E4171110C8171110AFF
:10336000C17102724572210E8172210CC172210A53
:103370000173190E4173190C8173C373002070BD62
:103380000040005800000320B95646A97CB5274DDF
:10339000411C4278E88A052A04D03E2A0ED0FF2A32
:1033A00042D12BE0B1F80310814203D10020E88222
:1033B00085F880000120FDF7BFF835E08C1C897886
:1033C000012908D003292FD00C292DD101AA694643
:1033D00000F0F2FF28E095F88100641CFFF7F0F997
:1033E00095F88000042807D05FF0050085F880007C
:1033F000B4F80100E88217E00620F7E74988A1F554
:1034000080610A2910D2DFE801F00F0F050F0F09C4
:103410000F0F0F0C064900F0BBFC05E000F0E9FBC4
:1034200002E0012100F08CFC01207CBDB4000020F2
:1034300040E20100044910B500200877091F087018
:1034400000F010F810BD00004C0100207047000093
:1034500003490A7F41F82200087F401C0877704723
:103460004C01002010B5FDF7B6F8FDF7C9F8FDF7DF
:10347000C2F9FDF7E5F9FDF72CFAFEF70DFEFEF7B0
:103480005DFEFEF7E3FEFFF73FFAFFF761FA00F09B
:10349000A3F9FFF7C0FBFFF772FC00F08AFBFFF710
:1034A00053FCFDF7F5F8FFF7B5FBFFF7CFFF10BDB5
:1034B00070B50646441C4078FF2819D1608800F496
:1034C0007F40B0F5406F13D100250D4C0DE000BFDB
:1034D00054F825103046884728B1012802D0022828
:1034E0000BD0012070BD6D1CEDB2207FA842EFD83B
:1034F0003046BDE87040FFF749BF002070BD0000B6
:103500004C0100207047000038B5084C08E06946BF
:103510000748FFF748FB206900990069FFF72BFB7C
:103520000348FFF734FB0028F1D038BD000003202A
:103530007000002010B54FF0B044206840F4807057
:1035400020602068C0F380200028FAD00120FFF717
:10355000F4FA606A20F003006062A06800F00C00DA
:103560000428FAD110BDFDF797BC000010B59AB041
:1035700048216846FCF71BFE1C2112A8FCF717FE29
:10358000FDF74AFD4FF0B04050F8901F21F01801B0
:1035900001601548016821F4C06141F400710160C7
:1035A0000068002400F4C0601990472000904FF498
:1035B0008030019001200102CDE902010A904020F3
:1035C00004900B946846FDF791FF6F201290022043
:1035D000CDE91304159416941794012112A8189498
:1035E000FDF72CFE1AB010BD00040058154800214C
:1035F000016014488030026842F4700202604FF0AB
:10360000B040026842F0010202604FF4E0228260A2
:1036100002680D4B1A400260D0F8942022F0050297
:10362000C0F89420D0F8982022F00102C0F8982029
:10363000064AC2600261026822F48022026081614F
:103640007047000008ED00E0FBFEF6FA00100422CF
:1036500010B504460A48FFF77FFA0A484168A06897
:103660000860E068C8600848486005488860FEF760
:10367000F5FD06482168416061688160002010BD49
:103680006001032000000320480A03205C000020A2
:10369000074810B54268012112681172406801683C
:1036A0000120FFF76BFBFEF701FE002010BD0000BC
:1036B00000000320FEF702BE0C480B4901602031D8
:1036C000416010318160683901620831416208311E
:1036D000C1606431016178394161943181610C319B
:1036E000C161FEF711BE000070010320000003203D
:1036F00010B5044601460648FFF73DFA2146002072
:10370000FFF73CFBBDE810400248FEF71BBE00007F
:10371000700000200935000810B504460C48FFF77A
:103720001BFA0C48FFF718FA0B48016909481438CE
:103730000160A0688860E068C8600548086120688A
:10374000086060684860206948616069886110BDF0
:1037500050010320700000200000032010B5044633
:103760000848FFF7F9F90848C168A06808600548EB
:103770004860FEF757FE05482168C1606168016135
:10378000002010BD68010320000003205C00002021
:10379000074810B5C268102112681172C06801682C
:1037A0000420FFF7EBFAFEF745FE002010BD0000F5
:1037B000000003207047000010B50548FFF7CCF962
:1037C0000449034849690860BDE81040FEF750BE4F
:1037D0005801032000000320704710B5002000F0BE
:1037E000EBFF10BD10B5417A0F290AD00E2908D081
:1037F00001460848FFF7BFF9BDE81040054800F052
:103800006ABE01460448FFF7B6F9002000F0A6FDA5
:1038100010BD0000800100208000002010B501468E
:103820000348FFF7A8F9BDE81040014800F0F6BFD3
:103830009001002010B5806A0021A0F85E10A0F869
:103840005610FEF7AAFA10BD10B5026852E8001F24
:1038500021F4907142E80013002BF6D10E4B026860
:10386000083252E8001F194042E80014002CF6D13B
:10387000C16E012908D1016851E8002F22F0100221
:1038800041E80023002BF6D12021C0F88810002148
:10389000C166016710BD0000FEFFFFEF0148FEF7A3
:1038A0007DBA0000FC02002070B5EFF3108572B6FF
:1038B0000A480B4C016819B120688047606808E02D
:1038C000406818B1A0688047E06802E0206980473E
:1038D0006069804785F3108870BD0000900000206B
:1038E0004C4A000802480021016041607047000016
:1038F00090000020EFF3108272B6064B21B101292F
:1039000005D15968014301E059688143596082F348
:1039100010887047900000204FF0FF3000F02CB866
:10392000FFF7C2BFEFF3108172B6034A13688343F7
:10393000136081F31088704798000020704770472B
:1039400010B51446EFF3108372B6FFF79FFC0349DE
:1039500041F8204083F3108810BD0000C40400200B
:10396000EFF3108172B6034A13680343136081F3C7
:1039700010887047980000202DE9F047334C6668A6
:103980003040606060694FF0FF37314D4FF0010902
:103990003AE0401C236855F830200B401A42F8D01A
:1039A00055F8302023680B401A4005EBC0035868D7
:1039B000104200D15F6058681040FFF767FC20613B
:1039C000D3F804C009FA00F22CEA020CEFF31088D5
:1039D000C3F804C072B6636993436361022209FAB3
:1039E00000F100BF05EBC203521E53F808CC2CEACD
:1039F000010C43F808CCF5D188F3108814498039BC
:103A000051F82000804760692168084061680842D9
:103A100003D0A068E2681040BCD02761FFF78FFF99
:103A2000EFF3108572B6606921680840616808424A
:103A300005D1A068E168084201D1FFF771FF85F365
:103A40001088FFF77BFF6660BDE8F08798000020D4
:103A500044050020EFF3108172B6034A93680343D4
:103A6000936081F3108870479800002010B5EFF341
:103A7000108272B6064B5C6904435C61054B53F8D7
:103A80003140044343F8314082F3108810BD0000F8
:103A900098000020440500202DE9F0410F4C2569D5
:103AA000691C04D00127AF40E668E06004E000270D
:103AB000FAE73846FFF730FFA068E1680842F8D01F
:103AC000EFF31080256172B6A168E2689143A160AE
:103AD00080F31088E660BDE8F081000098000020C7
:103AE00070B5144C257804F1080300EB400203EB99
:103AF000C202A84204D120786070507D20700FE08F
:103B0000157D507D567D05EB450503EBC5056E75AE
:103B1000062805D0157D00EB400003EBC0000575BD
:103B2000012010732078062803D1002901D1C01F7D
:103B3000606070BD98010020FEB5417A8DF80410D8
:103B4000CA07027801A98DF8052005D00288120A5B
:103B50008DF80620032300E00223427A120706D5DF
:103B60008278CA5442885B1C120ACA545B1C427A8F
:103B7000D40612D5047A00220DE000BF00EB420506
:103B80002E79CE545B1CAD88DBB22D0ACD545B1C64
:103B9000521CDBB2D2B2A242F0D304480091002200
:103BA0004188008800F013FBFEBD0000700100207A
:103BB000FEE770470907090E002804DB00F1E0204A
:103BC00080F80014704700F00F0000F1E02080F84A
:103BD000141D704702E008C8121F08C1002AFAD15C
:103BE00070477047002001E001C1121F002AFBD17D
:103BF000704710B5C8B000218DF81811ADF800005D
:103C00000224182240A8FFF7B7F83F20ADF80001C2
:103C10009520ADF802016846CDE9420446A84490DB
:103C200001204590002140A800F084FC002802DA21
:103C3000FF2048B010BD9DF81801FAE700B587B025
:103C400000208DF800000146182201A8FFF794F823
:103C50003F20ADF804009420ADF806000120069046
:103C6000CDF814D0002101A800F064FC002802DA8D
:103C7000FF2007B000BD9DF80000FAE700B587B04F
:103C800000208DF800000146182201A8FFF774F803
:103C90003F20ADF804009220ADF806000120069008
:103CA000CDF814D0002101A800F044FC002802DA6D
:103CB000FF2007B000BD9DF80000FAE72DE9F043B2
:103CC000C9B01546DDE950890E4607461C46072255
:103CD000002140A8FFF750F88DF800708DF80160C2
:103CE0008DF8025003251822002142A8FFF744F85E
:103CF0003F20ADF808018A20ADF80A016846CDE9F9
:103D0000440540A8469007204790002142A800F0B3
:103D100011FC002803DAFF2049B0BDE8F0839DF8CC
:103D200000010028F8D1BDF801012080BDF8031181
:103D3000A8F80010BDF80511A9F800100020EBE765
:103D400010B5C8B000228DF81821ADF800008DF82C
:103D5000021003241822002140A8FFF70DF83F208D
:103D6000ADF80001A520ADF802016846CDE9420496
:103D700046A8449001204590002140A800F0DAFBBD
:103D8000002802DAFF2048B010BD9DF81801FAE7BC
:103D900010B5C8B000228DF81821ADF80000CDF89C
:103DA000021006241822002140A8FEF7E5FF3F205C
:103DB000ADF800018820ADF802016846CDE9420463
:103DC00046A8449001204590002140A800F0B2FB95
:103DD000002802DAFF2048B010BD9DF81801FAE76C
:103DE000F0B5C7B04CAC94E8E05000248DF8184111
:103DF0008DF800008DF801108DF802208DF8045028
:103E00008DF805608DF803308DF80670CDF807C089
:103E10008DF80BE00C241822002140A8FEF7ACFF1F
:103E20003F20ADF800018620ADF802016846CDE9DB
:103E3000420446A8449001204590002140A800F08B
:103E400079FB002802DAFF2047B0F0BD9DF8180189
:103E5000FAE72DE9F04FCBB08446DDE954A4DDE963
:103E600056B74FF000088DF818818DF800C0ADF8F6
:103E70000110ADF803200DEB0406684606F10805B5
:103E80008DF8053081463E448DF806A08DF8074038
:103E90002246594602A80936FEF76CFF2F703A46B3
:103EA000681C09345899FEF765FF599830805A9874
:103EB0003C4470801822002140A8241DFEF75CFFBE
:103EC0003F20ADF800018320ADF8020146A8CDF8EF
:103ED0000891CDE9434001204590002140A800F021
:103EE00029FB002803DAFF204BB0BDE8F08F9DF8D6
:103EF0001801F9E710B5C8B000218DF818118DF838
:103F000000000124182240A8FEF736FF3F20ADF83C
:103F100000018520ADF802016846CDE9420446A8BB
:103F2000449001204590002140A800F003FB0028A8
:103F300002DAFF2048B010BD9DF81801FAE700B57D
:103F400087B000208DF800000146182201A8FEF776
:103F500013FF3F20ADF804008120ADF806000120DA
:103F60000690CDF814D0002101A800F0E3FA002853
:103F700002DAFF2007B000BD9DF80000FAE710B597
:103F8000C8B000218DF81811ADF8000002241822E5
:103F900040A8FEF7F1FE3F20ADF800018D20ADF8FE
:103FA00002010F2041906846CDE9420446A84490A2
:103FB00001204590002140A800F0BCFA002802DA58
:103FC000FF2048B010BD9DF81801FAE710B5C8B041
:103FD000044600228DF818218DF8004022460DF18C
:103FE0000100FEF7C7FE1822002140A8641CFEF75E
:103FF000C3FE3F20ADF800018E20ADF802016846F7
:10400000CDE9420446A8449001204590002140A8F3
:1040100000F090FA002802DAFF2048B010BD9DF8A9
:104020001801FAE72DE9FF4FC7B09946DDE957BA05
:104030000C4680466F46012916D0022C16D000206F
:104040003E4685190322002140A8ED1CFEF794FE90
:10405000ADF800808DF80240012C09D0022C09D067
:1040600097204BB0BDE8F08F0220E9E71020E7E78A
:10407000022400E010242246F81C4999FEF77AFE3B
:10408000A5F800905498A8705598E8705698287133
:1040900085F805B085F806A01822002141A80A3449
:1040A000FEF76AFE3F20ADF804014FF48270ADF8D0
:1040B000060140A8CDE944400320469043960021E4
:1040C00041A800F037FA002801DAFF20C9E79DF87F
:1040D00000010028C5D15998BDF8011101800020C8
:1040E000BFE72DE9F04FC7B09946DDF840A19046F3
:1040F0008B4604466F46012814D0022C14D00020B1
:104100003E4685190322002140A86D1CFEF734FEAF
:104110008DF80040012C09D0022C09D0972047B01F
:10412000BDE8F08F0220EBE71020E9E7022400E071
:10413000102422465946781CFEF71CFE85F80080A4
:1041400085F801901822002141A8E41CFEF714FE16
:104150003F20ADF804014FF48170ADF8060140A88E
:10416000CDE94440032046904396002141A800F049
:10417000E1F9002801DAFF20D1E79DF800010028CD
:10418000CDD1BDF80111AAF80010C8E700B587B07D
:1041900000208DF800000146182201A8FEF7ECFD72
:1041A0003F20ADF8040040F20110ADF806000120F8
:1041B0000690CDF814D0002101A800F0BBF900282A
:1041C00002DAFF2007B000BD9DF80000FAE770B5E5
:1041D000C8B01C46034600264C9D8DF81861ADF80A
:1041E00000308DF80420ADF802108DF8054022460D
:1041F00029460DF10600FEF7BDFD1822002140A85A
:10420000A41DFEF7B9FD3F20ADF800014FF4837007
:10421000ADF802016846CDE9420446A84490012069
:104220004590002140A800F085F9002802DAFF201F
:1042300048B070BD9DF81801FAE7F0B5C9B0054661
:10424000DDE94E4600278DF818718DF80420ADF891
:104250000050ADF802108DF805308DF8064022466A
:1042600031460DF10700FEF785FD1822002140A818
:10427000E41DFEF781FD3F20ADF800014FF493707F
:10428000ADF802016846CDE9420446A844900120F9
:104290004590002140A800F04DF9002802DAFF20E7
:1042A00049B0F0BD9DF81801FAE710B5C8B000227A
:1042B0008DF818218DF800008DF8011002241822C5
:1042C000002140A8FEF758FD3F20ADF800010F2067
:1042D000ADF802016846CDE9420446A844900120A9
:1042E0004590002140A800F025F9002802DAFF20BF
:1042F00048B010BD9DF81801FAE710B5C8B01346D4
:104300000C46002201468DF818218DF800108DF81A
:104310000140224619460DF10200FEF72BFD18223E
:10432000002140A8A41CFEF727FD3F20ADF80001A6
:104330000C20ADF802016846CDE9420446A844903D
:1043400001204590002140A800F0F4F8002802DA8E
:10435000FF2048B010BD9DF81801FAE70120FFF7D3
:1043600079BB0120FFF798BB7FB50F4A0D460F4C74
:1043700049685160E061204600F0B2F80A482D68B3
:104380000830FEF7E9FB0A4E06F108007560FEF7FB
:10439000E3FB012030702168002904D0054800901B
:1043A0000295684688477FBD78000020840400207D
:1043B00078010020E537000870B5C8B014460D46F6
:1043C00006460522002140A8FEF7D6FCADF80060A5
:1043D00002261822002142A8FEF7CEFC0820ADF8E4
:1043E00008013020ADF80A016846CDE9440640A82E
:1043F000469005204790002142A800F09BF8002835
:1044000002DAFF2048B070BD9DF800010028F9D104
:104410009DF8030128709DF8040120700020F1E749
:1044200010B5C8B000238DF818318DF800008DF854
:1044300001108DF8022003241822194640A8FEF727
:104440009BFC0820ADF800013120ADF80201684660
:10445000CDE9420446A8449001204590002140A89F
:1044600000F068F8002802DAFF2048B010BD9DF87F
:104470001801FAE730B5C9B000258DF81851ADF82C
:1044800000008DF802104C9C8DF803208DF804304C
:10449000ADF8054007241822294640A8FEF76CFC19
:1044A0000820ADF800013220ADF802010F20419044
:1044B0006846CDE9420446A8449001204590002179
:1044C00040A800F037F8002802DAFF2049B030BDDC
:1044D0009DF81801FAE700210420FFF7C7BA000091
:1044E000024901600249016170470000513600082D
:1044F0009136000800B587B000208DF80000014615
:10450000182201A8FEF738FC0320ADF80400ADF82E
:10451000060001200690CDF814D0002101A800F07B
:1045200009F8002802DAFF2007B000BD9DF800005E
:10453000FAE700002DE9F84305460020FEF7F6FBF8
:10454000298868882A7B61F39F2086B22348A9685E
:1045500000274068A0F80960C2720C30FBF70CFE1F
:104560001F48002102690846904748F2E808404683
:10457000FFF7F7FE1BE069461A48FEF714FB0098A8
:10458000417A0F2920D0818900F10B04B1420BD16F
:10459000807A6A69C01EC0B2824200DD02466A614A
:1045A000E11C2869FBF7E8FD207800B101270D48E0
:1045B000FEF7EDFA0028DED0002FD8D00120FEF75C
:1045C000B5FB0020BDE8F883B0F80D100B30B14208
:1045D00002D12A69017811704078E6E7780100205D
:1045E00084040020800000203EB51848FEF7CFFA72
:1045F000164C083CE8B92078D8B169461348FEF754
:10460000D2FA1348C169012051B1009A8DF8040013
:10461000029201A888479DF80400207008B904E0C0
:1046200020700098FFF764F803E008480099FEF74F
:1046300096FA0648FEF7ABFA002805D12078002844
:1046400002D00248FFF747FF3EBD00008001002076
:10465000840400202DE9F041284C0646217804F11D
:10466000080800EB460208EBC205062911D0FEF748
:10467000F1FD0746A96840463944A960AB68217836
:1046800001EB410108EBC1018968994221780ED9FB
:104690002BE020786070267006206875C01F60606F
:1046A000002728E001EB410100EBC101497D01EB4E
:1046B000410200EBC202527D062A06D002EB420202
:1046C00000EBC20292689A42ECD901EB410200EB86
:1046D000C2035A7D062A04D002EB420408EBC40050
:1046E00006756A7529755E7505E03046FEF774FA41
:1046F0002078607026703846BDE8F081980100206F
:10470000FCF7D2FBFEF788FAFEF730FFFEF778FBE6
:104710002549244808600846FCF77CFB0420FEF786
:1047200022F90120FEF71FF90220FEF71CF90420F0
:10473000FEF70FF90120FEF70CF90220FEF709F948
:1047400000220F210E20FCF72DFC0E20FCF70FFCA1
:1047500000220F213A20FCF725FC3A20FCF707FC49
:10476000134812490024C0E900140F21816047F664
:10477000FF71C0E903148461C4614461FDF736FA36
:10478000002211460A48FDF7B1F9094809491438D1
:10479000C0E90014FDF76CF9FEF75CFAFEF7C0FA09
:1047A000FCE70000000C0058300200200028004008
:1047B000A0030020001000580220FFF74BB9022090
:1047C000FFF76AB9FEB5104A0D46104C49685160B2
:1047D000E061204600F026F80D4E2D6806F1080035
:1047E0007560FEF7B9F90120FCF706F8012070703A
:1047F0002168002906D0074800900748CDE9010547
:1048000068468847FEBD000088000020A404002000
:1048100088010020DB3700081D38000800214020F7
:10482000FFF724B9024901600249016170470000A5
:104830005D370008913700082DE9F04106461D4616
:1048400017460C460020FBF7D7FF31460F4E224695
:104850007068A0F80910C47239460C30FBF78CFC64
:104860000B48002102690846904748F2E800FFF72C
:10487000A6FF716805F108008A78D21CFBF77CFC62
:10488000BDE8F0410120FBF7B7BF00008801002020
:10489000A40400203EB51848FEF779F9164C083CF0
:1048A000E8B96078D8B169461348FEF77CF9134837
:1048B000C169012051B1009A8DF80400029201A84B
:1048C00088479DF80400607008B904E060700098A3
:1048D000FEF70EFF03E008480099FEF740F906488E
:1048E000FEF755F9002805D16078002802D002486B
:1048F000FFF794FF3EBD000090010020A4040020BB
:104900000000004801000000000000480100000015
:104910000000004801000000000000480100000005
:1049200000000048010000000000004801000000F5
:1049300000000048010000000000004801000000E5
:1049400000000048010000000000004801000000D5
:1049500000000048010000000000004801000000C5
:1049600000000048010000000000004801000000B5
:1049700000000048010000000000004801000000A5
:104980000000004801000000000000480100000095
:104990000000004801000000000000480100000085
:1049A0000000004801000000000000480100000075
:1049B0000000004801000000000000480100000065
:1049C0000000004801000000000000480100000055
:1049D0000000004801000000000000480100000045
:1049E0000000004801000000000000480100000035
:1049F0000000004801000000000000480100000025
:104A00000000004801000000000000480100000014
:104A10000000004801000000000000480100000004
:104A200000000048010000000000004801000000F4
:104A30000000000000000000000000000049000825
:104A4000E0010320E401032026040400AD2D00084A
:104A5000ED2D0008C52D0008F12D0008812D00085E
:104A6000E92D000840036C7AD8AC577209485253BC
:104A7000544D123456789ABCDEF0123456789ABCF3
:104A8000DEF0FEDCBA0987654321FEDCBA098765E2
:104A900043210000000000000000000000000000B2
:104AA0000000000000000000440008004005020172
:104AB00012279C00F4010000FFFFFFFF48010100E6
:104AC0000020000000000A0607002000010002008C
:104AD00010000100020000000100000003000000BF
:104AE00005000000010000000100000006000000B9
:104AF0000A00000020000000020000000400000086
:104B000008000000100000004000000080000000CD
:104B10000001000000020000A0860100400D03001B
:104B2000801A060000350C0040420F0080841E00F1
:104B300000093D0000127A000024F40000366E01E6
:104B40000048E801006CDC020000000000000000EA
:104B5000000000000000000012000000240000001F
:104B60003600000040000000060000000C000000BD
:104B70001000000000000000010000000200000022
:104B80000300000004030202010101010000000013
:104B900000000000D44B000808000020280200009C
:104BA000F8010008F84B000800000320280000006E
:104BB000D43B0008204C000828000320300A0000E5
:104BC000F8010008F84B000830020020281300000C
:104BD000E43B0008011A04100DFF0112047A480496
:104BE0001A08045A0C0413093D292C0243105AFFD9
:104BF0000101FF0191000000000000000000000022
:104C000000000000000000000000000000000000A4
:104C10000000000000000000000000000000000094
:104C200001FF01FF01FF01FF01FF01FF01FF01FF84
:084C300001FF01FF013A000041
:040000050800013DB1
:00000001FF
