:020000040800F2
:1000000008060020550100085D0100085F01000896
:10001000610100086301000865010008000000009C
:10002000000000000000000000000000711A00083D
:10003000690100080000000091190008731A000807
:100040006F0100086F0100086F0100086F010008D0
:100050006F0100086F0100086F0100086F010008C0
:100060006F0100086F0100086F010008CD02000851
:10007000D90200086F0100086F0100086F01000835
:100080006F0100086F0100086F0100086F01000890
:100090006F0100086F0100086F0100086F01000880
:1000A0006F0100086F0100086F0100086F01000870
:1000B0006F0100086F0100086F0100086F01000860
:1000C0006F0100086F0100086F0100086F01000850
:1000D0000D2200086F0100086F0100086F01000881
:1000E0006F0100086F0100086F0100086F01000830
:1000F0006F0100086F0100086F0100086F01000820
:100100006F0100086F0100086F0100086F0100080F
:100110006F0100086F0100086F0100086F010008FF
:100120006F0100086F0100086F0100086F010008EF
:100130006F0100086F0100086F010008DFF810D0A0
:1001400000F07CF80048004759220008AFF3008017
:10015000080600200648804706480047FEE7FEE7FD
:10016000FEE7FEE7FEE7FEE7FEE7FEE7FEE7FEE767
:10017000011B00083D0100082DE9F05F0546002045
:1001800092469B4688460646814640241BE0284608
:1001900041464746224600F041F853465A46C01AA7
:1001A000914110D311461846224600F028F82D1A26
:1001B00067EB01084F4622460120002100F01FF89E
:1001C00017EB00094E41201EA4F10104DFDC484674
:1001D00031462A464346BDE8F09FD2B201E000F81E
:1001E000012B491EFBD270470022F6E710B51346DB
:1001F0000A4604461946FFF7F0FF204610BD202AA4
:1002000004DB203A00FA02F1002070479140C2F16D
:10021000200320FA03F3194390407047202A04DB9F
:10022000203A21FA02F00021704721FA02F3D0406F
:10023000C2F120029140084319467047064C074D11
:1002400006E0E06840F0010394E8070098471034A6
:10025000AC42F6D3FFF776FF2024000840240008C4
:1002600070B586B0044614216846FFF7BDFF022032
:1002700001F00EFB0C4E0D4D694636F8140000904F
:1002800001200190002002900220039055F82400E4
:1002900000F0F4F936F8141055F82400002200F0AC
:1002A000EDFA06B070BD0000202300088000002099
:1002B0000449054A31F8101052F82000012200F0DC
:1002C000DDBA00002023000880000020014800F073
:1002D000CFB80000A4010020014800F0C9B8000018
:1002E000440100200D4B416C026821F003019A4249
:1002F00001D20B4B01E00A4B1C3319448164D1B28B
:1003000014220839B1FBF2F1054A8032C26401F0CF
:100310001F0201219140016570470000080402405E
:10032000000802400179084A01F03F0102EB810216
:100330004265054A4432491E826501F003020121EB
:100340009140C16570470000FC08024030B5D0E91B
:1003500013456560446D14B1D0E91645656090F8A9
:10036000444004F01C050124AC40056C6C6004683A
:1003700063608368102B036803D099600068C260D3
:1003800030BD9A600068C16030BD0220FFF790FF69
:10039000FEE710B540B190F825100023022905D0E2
:1003A0000421C16380F82430012010BD01680A686F
:1003B00022F00E020A60816C0A6822F480720A60E0
:1003C00001680A6822F001020A6090F84410046C87
:1003D00001F01C01012202FA01F16160D0E913145D
:1003E0004C60416D31B10C6824F480740C60D0E92C
:1003F00016144C6080F8252080F82430002010BDB1
:1004000010B590F825100024022903D00421C163FF
:1004100001242BE001680A6822F00E020A600168DC
:100420000A6822F001020A60816C0A6822F4807274
:100430000A6090F84410036C01F01C01012202FADA
:1004400001F15960D0E913134B60416D31B10B6874
:1004500023F480730B60D0E916134B6080F82520DD
:10046000002180F82410816B01B18847204610BD1F
:10047000F0B4016C0C6801680D6890F8442002F03B
:100480001C06042202FA06F3234211D06B070FD593
:100490000B689B0603D40B6823F004030B6090F8F1
:1004A000441001F01C018A40016C4A60016B1DE0A0
:1004B000022303FA06F727424FF0000C4FF0010227
:1004C00018D0AF0716D50C68A40605D40C6824F024
:1004D0000A040C6080F8252090F8441001F01C01FB
:1004E0008B40016C4B6080F824C0C16A00291AD08F
:1004F000F0BC08470823B340234214D02B0712D581
:100500000B6823F00E030B6090F84410036C01F0AD
:100510001C0102FA01F15960C26380F8252080F8BD
:1005200024C0416BE2E7F0BC7047000070B50400E6
:100530000CD02C4A21681420914209D22A4A0A443C
:10054000B2FBF0F08000606428480AE0012070BD32
:10055000244A52420A44B2FBF0F080006064214811
:1005600008382064022084F825000A6847F6F070F5
:100570008243D4E902031843D4E904352B431843DA
:10058000A3691843E3691843236A184310430860BA
:100590002046FFF7A7FEA0680025B0F5804F00D1E8
:1005A00065602079A16C00F03F000860D4E9130178
:1005B00041606068401E032808D82046FFF7B2FE5D
:1005C000606D0560D4E91601416002E06565A565CE
:1005D000E565E563012084F8250084F824500020B7
:1005E00070BD000008040240F8FFFDBF000002409B
:1005F00070B5044690F82400002501280CD0012095
:1006000084F8240094F825600020012E06D084F898
:1006100024000225284670BD022070BD022684F801
:100620002560E0632068066826F001060660204623
:10063000FFF78CFE206B00282068016802D041F093
:100640000E0106E021F0040101602068016841F01C
:100650000A010160A06C0168C90303D5016841F477
:1006600080710160606D18B1016841F480710160B2
:100670002068016841F001010160CBE72DE9F04FEE
:10068000DFF8E0B1DFF8DC910023012503240BF152
:10069000800B85B00F2709F1040A0BF1040ED9E095
:1006A00005FA03FC12EA0C027ED00E7906F003066E
:1006B000012E01D0022E20D1866800965E0004FA39
:1006C00006F80496009E26EA08060096D1F80C80EB
:1006D000049E08FA06F8009E48EA0608C0F808805A
:1006E000466826EA0C0691F804C0CCF3001C0CFA0C
:1006F00003FC4CEA060CC0F804C00E79F643B607BA
:100700000DD0D0F80CC04FEA430804FA08F62CEAE2
:10071000060C8E6806FA08F646EA0C06C6600E79E4
:1007200006F00306022E15D1DE0800EB86060296BF
:10073000366A4FEA437C4FEADC6807FA08FC26EA8F
:100740000C06D1F810C00CFA08FC4CEA060C029E0C
:10075000C6F820C0D0F800C04FEA430804FA08F6F3
:100760002CEA060C0E7906F0030606FA08F646EAAD
:100770000C0606604E6816F4403F6AD03A4E23F0ED
:10078000030C66440296B6684FEA837C4FEA1C78F5
:1007900007FA08FC26EA0C06B0F1904F08D0DFF803
:1007A000CCC0604507D100E053E04FF0010C19E0E8
:1007B0004FF0000C16E0DFF8B8C0604502D14FF0F2
:1007C000020C0FE0DFF8ACC0604502D14FF0030C23
:1007D00008E0DFF8A4C0604502D14FF0040C01E04E
:1007E0004FF0070C0CFA08FC4CEA060C029EC6F807
:1007F00008C0D9F80060CC46D1F8048096435FEA7F
:10080000C82800D51643CCF80060DAF80060D4465A
:10081000D1F8048096435FEA882800D51643CCF8C7
:100820000060DBF80060DC46D1F8048096435FEAA4
:10083000C83800D51643CCF80060DEF80060F446F6
:10084000D1F8048096435FEA883800D51643CCF887
:1008500000605B1C0A6832FA03F67FF421AF05B032
:10086000BDE8F08F00080058000001400004004877
:1008700000080048000C0048001000480AB18161DF
:10088000704781627047000001488068704700002F
:100890009C00002001484068704700009C00002038
:1008A0000248816802781144816070479C000020F2
:1008B000094810B50168002441F4807101600320EB
:1008C00000F05AF8002000F009F808B1012401E016
:1008D00000F024F8204610BD0040005870B50E4EC0
:1008E000054600243078A0B100F064F931784FF467
:1008F0007A72B2FBF1F1B0FBF1F000F0A1FC40B96B
:10090000102D06D200222946501E00F015F8756001
:1009100000E00124204670BD9C00002070470028A4
:1009200009DB00F01F02012191404009800000F125
:10093000E020C0F800117047F0B40E4B1B680C4665
:10094000C3F30223C3F10705042D00D90425191DA3
:10095000072901D2002300E0DB1E012606FA05F17B
:10096000491E214099409E40761E16403143F0BCFE
:1009700001F052BC0CED00E0064900F007020868E7
:100980004FF6FF03184040EA0220034A1043086074
:10099000704700000CED00E00000FA050248006816
:1009A00000F4C0607047000000040058024801686D
:1009B00041F4807101607047000400582DE9F04156
:1009C0000F46050077D0794E306800F00700B84236
:1009D00012D2306820F0070038433060FFF754FF30
:1009E000044604E0FFF750FF001B02287DD8306862
:1009F00000F00700B842F5D128784FF0B0448007E6
:100A000015D5A868A16821F0F0010143A160FFF7A6
:100A10003BFF804606E000BFFFF736FFA0EB080073
:100A2000022862D8A068C0F300400028F4D02878DB
:100A3000800617D56869D4F8081121F0F001014348
:100A4000C4F80811FFF720FF804605E0FFF71CFF00
:100A5000A0EB0800022848D8D4F80801C0F34040B1
:100A60000028F3D02878400618D5A869D4F80811D2
:100A700021F00F0141EA1010C4F80801FFF704FF4C
:100A8000804605E0FFF700FFA0EB080002287CD8B5
:100A9000D4F80801C0F300400028F3D028784007BC
:100AA00015D5E868A16821F4E0610143A160FFF772
:100AB000EBFE804606E046E0FFF7E6FEA0EB08000E
:100AC000022862D8A068C0F340400028F4D02878FB
:100AD000000716D52869A16821F4605141EAC001D8
:100AE000A160FFF7D1FE804606E04EE0FFF7CCFEA6
:100AF000A0EB0800022848D8A068C0F38040002876
:100B0000F4D02878C0072CD06868022805D00328C4
:100B100006D0A8B100F0D2FE05E000F0C9FE02E068
:100B20002068C0F3406070B16868A16821F00301DB
:100B30000143A160FFF7A8FE044641F288380AE0AD
:100B400000F0DBFEEFE70120BDE8F081FFF79CFE3F
:100B5000011B414519D800F0A5FE6968B0EB810F73
:100B6000F4D1306800F00700B84215D9306820F0A1
:100B7000070038433060FFF787FE044607E000BFF8
:100B8000FFF782FE001B022801D90320DCE7306852
:100B900000F00700B842F3D100F00CF804490860F7
:100BA000FFF778FEBDE8F041FFF798BE004000581F
:100BB0009800002010B500F033F84FF0B04189687C
:100BC000044A01F0F00102EB91010968B0FBF1F079
:100BD00010BD00002C23000810B5FFF7EBFF4FF00D
:100BE000B0418968044A01F4E06102EB911109788F
:100BF00001F01F01C84010BDAC23000810B5FFF77D
:100C0000D9FF4FF0B0418968044A01F4605102EB0A
:100C10005121097801F01F01C84010BDAC23000824
:100C20002DE9F04100F03EFE224F48B3224C04284B
:100C30002ED0A6104FEA64084FF0B045082829D0FE
:100C400000F072FE022808D003282BD000F04CFEE2
:100C500000F0F00007EB90000468E868E968C0F372
:100C60000620604301F07002012101EB1212B0FB7B
:100C7000F2F2E86801EB5070B2FBF0F0BDE8F081F1
:100C800000F032FE00F0F00007EB90000068F5E79E
:100C90002046F3E72868C0F3005008B13046EDE77E
:100CA0004046EBE72868C0F3005008B13446D4E76B
:100CB0004446D2E76C2300080024F4002DE9F041FB
:100CC00004007DD020784FF0B045800661D500F05B
:100CD000E9FD064600F028FE76B10C2E01D1012870
:100CE0000AD0E0690028286842D040F0010028605E
:100CF000FFF7CAFD064630E000F0FFFD10B1E069E5
:100D00000028DED000F0F0FD0146606A81420AD280
:100D100000F088FE002853D1606A00F0FDFD206AD3
:100D200000F0F1FD09E000F0F7FD206A00F0EBFDB6
:100D3000606A00F077FE0028EDD1FFF73BFFF7492E
:100D40000860F7480068FFF7C9FD0028E3D120E0FC
:100D5000FFF79AFD801B022874D800F0CEFD002812
:100D6000F6D0606A00F0D8FD206A00F0CCFD10E0FB
:100D700020F001002860FFF787FD064605E000BF70
:100D8000FFF782FD801B0228E6D800F0B6FD0028A0
:100D9000F6D12078C0073CD000F084FD064600F074
:100DA000C3FD082E13D00C2E01D103280FD060688C
:100DB000B0F5803F286811D020F48030286000E032
:100DC00008E26068C0B1FFF75FFD06460FE000F083
:100DD0006FFDF0B16068002893D01AE040F48030D5
:100DE000ECE700BFFFF750FD801B6428B4D800F08B
:100DF0005FFD0028F6D00CE0FFF746FD064604E054
:100E0000FFF742FD801B6428A6D800F051FD0028A2
:100E1000F6D1207880073CD500F044FD064600F06E
:100E200083FD042E0FD00C2E01D102280BD0E068D8
:100E3000002828681CD040F480702860FFF724FD4B
:100E4000064610E03AE100F039FD10B1E0680028F4
:100E5000C2D0206900F038FD1BE000BFFFF714FD91
:100E6000801B022890D800F029FD0028F6D0F0E77A
:100E700020F480702860FFF707FD064605E000BFFC
:100E8000FFF702FD801B0228B0D800F017FD0028F4
:100E9000F6D12068010701D4C1064ED56169E1B3DE
:100EA000C0064BD500F019FD98B9D5F8940040F074
:100EB0000100C5F89400FFF7E7FC064605E000BF17
:100EC000FFF7E2FC801B022890D800F006FD002806
:100ED000F6D0D5F8940040F00400C5F89400FFF770
:100EE000D3FC064605E000BFFFF7CEFC801B0328BD
:100EF0008AD8D5F89400C0F3C0000028F4D0A069C7
:100F0000D5F8941021F4706141EA0020C5F89400EE
:100F1000D5F8940020F0010000E035E0C5F8940019
:100F2000FFF7B2FC064604E0FFF7AEFC801B022888
:100F300098D800F0D2FC0028F6D14EE0D5F8940005
:100F400040F00100C5F89400FFF79EFC064604E05F
:100F5000FFF79AFC801B022884D800F0BEFC002812
:100F6000F6D0D5F8940020F00400C5F8940004E011
:100F7000FFF78AFC801B032886D8D5F89400C0F3BD
:100F8000C0000028F4D128E0D5F8940020F0040037
:100F9000C5F89400FFF778FC064604E0FFF774FC00
:100FA000801B032890D8D5F89400C0F3C000002817
:100FB000F4D1D5F8940020F00100C5F89400FFF7B3
:100FC00063FC064605E000BFFFF75EFC801B0228BD
:100FD00074D800F082FC0028F6D12078400750D564
:100FE000504F3868C0050DD4FFF7E0FCFFF74CFC0C
:100FF000064604E0FFF748FC801B02285ED83868EC
:10100000C005F7D5A068012816D00528D5F89000AE
:1010100017D020F00100C5F89000D5F8900020F01E
:10102000040000BFC5F89000A06841F28836C8B13E
:10103000FFF72AFC07460EE0D5F8900040F00100CB
:10104000F0E740F00400C5F89000F5E7FFF71CFC5E
:10105000C01BB04232D8D5F89000C0F34000002841
:10106000F4D00EE0FFF710FC074604E0FFF70CFC9D
:10107000C01BB04222D8D5F89000C0F34000002831
:10108000F4D1207840062ED5A06A0028D5F8980023
:1010900015D040F00100C5F89800FFF7F5FB0646B3
:1010A00005E000BFFFF7F0FB801B022806D8D5F84B
:1010B0009800C0F340000028F4D014E089E020F04C
:1010C0000100C5F89800FFF7DFFB064605E000BF0A
:1010D000FFF7DAFB801B02287BD8D5F89800C0F315
:1010E00040000028F4D1E06AF0B300F0DBFB0146D9
:1010F000E868E26A022A19D00C296BD0286820F02F
:1011000080702860E86820F00300E860E86806491D
:101110000840E860FFF7B8FB044687E0980000202D
:10112000A000002000040058FFFFFEEE236B00F03B
:1011300003029A421AD1636B00F070029A4215D1F1
:10114000A26BC0F306239A4210D1E36B00F478122D
:101150009A420BD1236C00F060629A4206D1626C15
:1011600000F06040904200E056E03ED00C2962D092
:10117000286840015FD4286820F080702860FFF75D
:1011800083FB064605E000BFFFF77EFB801B0228BD
:1011900049D828688001F7D4D4E90C010843D4E980
:1011A0000E2141EA02210843216C0843616C084387
:1011B000E968224A11400843E860286840F08070DE
:1011C0002860E86840F08050E860FFF75DFB044667
:1011D00007E028E02FE000BFFFF756FB001B0228C6
:1011E00021D828688001F7D523E02868800120D421
:1011F000286840F080702860E86840F08050E8601F
:10120000FFF742FB044604E0FFF73EFB001B022809
:1012100009D828688001F7D50BE000BFFFF734FB41
:10122000001B022802D90320BDE8F0812868800154
:10123000F4D40020F8E70120F6E700008C80C1110B
:1012400010B5401EB0F1807F01D3012010BD4FF0DA
:10125000E02460610F21601700F0DEFF0020A06134
:1012600007202061002010BD90F88010012918D0BF
:10127000012180F880102421C0F8841050F8641BEC
:101280000A680B6823F001030B6022F00051002272
:10129000026050F8643C1960202101620277104618
:1012A0007047022070477047704770B5044690F849
:1012B000800001281DD0012084F880002420C4F87B
:1012C000840020680568026822F00102026020683C
:1012D000826822F060620A438260204600F042FC8D
:1012E000206805602020C4F88400002084F8800075
:1012F00070BD022070BD70B5044690F880000128D2
:101300001DD0012084F880002420C4F884002068C7
:101310000568026822F0010202602068826822F0FB
:1013200060420A438260204600F01CFC2068056091
:101330002020C4F88400002084F8800070BD0220C2
:1013400070BD704770470220FEF7B2BF014651F8EA
:10135000840F4968084370472DE9F041036804464B
:10136000D86919689A6840F60F0528424FF00005C1
:1013700009D186067ED501F0200602F080573E4353
:1013800078D0216F27E1A94EA94F16400F4037436F
:1013900070D0C70709D0CF0507D501271F62D4F841
:1013A0008C3043F00103C4F88C3083070AD5D3078F
:1013B00008D0276802233B62D4F88C3043F0040342
:1013C000C4F88C3043070AD5D30708D02768042314
:1013D0003B62D4F88C3043F00203C4F88C3003072E
:1013E0000CD501F02003334308D02668082333626C
:1013F000D4F88C3043F00803C4F88C3003050BD5C7
:101400004B0109D526684FF400633362D4F88C3061
:1014100043F02003C4F88C30D4F88C30002B3AD041
:10142000800609D501F0200002F08051084303D066
:10143000216F09B120468847D4F88C00216889685B
:10144000490602D410F0280F27D0204600F0E8FC0F
:101450002068806840061BD52068083050E8001FCF
:1014600021F0400140E80012002AF5D1E06F78B188
:10147000704900E017E08163E06FFEF7C1FF0028CC
:1014800009D0E06F816B00E02046BDE8F0410847DD
:101490002046FFF758FFBDE8F0812046FFF753FFD5
:1014A000C4F88C50F7E7E76E2026012F7ED1C706DF
:1014B0007CD5CF067AD51020186220688068400657
:1014C00042D5E16F086840680004000CE3D0B4F82E
:1014D0005C208242DFD9A4F85E00086800688006BC
:1014E0002BD4206850E8001F21F4807140E80012DE
:1014F000002AF6D12068083050E8001F21F00101D1
:1015000040E80012002AF5D12068083050E8001F9A
:1015100021F0400140E80012002AF5D1C4F88860AB
:10152000E566216851E8000F20F0100041E8000254
:10153000002AF6D1E06FFEF72CFFB4F85C00B4F897
:101540005E10401A81B22CE0B4F85C00B4F85E1072
:10155000401A81B2B4F85E0000289CD000299AD0CD
:10156000226852E8000F20F4907042E80003002B3C
:10157000F6D12E4BDB432068083050E8002F1A408C
:1015800040E80027002FF6D1C4F88860E56625679B
:10159000226852E8000F20F0100042E80003002B00
:1015A000F6D12046FFF77FFE75E7FFE7C70209D5B2
:1015B000570207D54FF4801018622046BDE8F0416D
:1015C000FFF7C0BE03060AD501F0800302F4000253
:1015D000134304D0616F00297FF456AF5BE74206E6
:1015E00011D54A060FD52046016851E8002F22F098
:1015F000400241E80023002BF6D1C0F88460456723
:1016000000F03AF947E7020206D54A0004D5204621
:10161000BDE8F041FFF795BEC001C5D50029C3DA8A
:101620002046BDE8F041FFF73FBE0000010000107A
:1016300020010004D11C000810B5040003D0D4F828
:10164000840010B107E0012010BD002084F8800064
:10165000204600F027F82420C4F8840020680168A0
:1016600021F001010160204600F01CFC0128EBD0B4
:10167000A06A10B1204600F097FA2068416821F472
:10168000904141602068816821F02A0181602068D2
:10169000016841F0010101602046BDE8104000F002
:1016A000E7BA0000F0B587B0064614216846FEF799
:1016B0009BFD2D493068884254D14FF0B040016EF7
:1016C00041F480410166016E01F480410591C16CD5
:1016D00041F00201C164C06C002400F002000590DA
:1016E000C0200090022001900120CDE902040720D3
:1016F000049069461D48FEF7C1FF1E4D1C48802717
:1017000028600E20C5E90104C5E903476C61B801F2
:10171000AC61C5E907402846FEF708FF08B1FEF7AF
:1017200034FEF567AE621248134D143805F1080116
:1017300028600F206860102081E891006C61AC6126
:10174000EC6128462C62FEF7F1FE08B1FEF71DFEA3
:10175000B567002211462420AE62FFF7EDF8242081
:10176000FFF7DDF807B0F0BD003801400004004885
:101770001C00024044010020A401002030B4D0F835
:101780008830202B20D1E1B1DAB190F88030012BE4
:101790001AD0012380F880300023C3660B4C036805
:1017A000A3420BD05B681B0208D5046854E8003FD5
:1017B00043F0806344E80035002DF6D130BC00F0E2
:1017C00071BC012030BC70470220FBE70080004064
:1017D0007047704770B50446D0F88400202842D185
:1017E00071B36AB394F8800001283CD0012084F8DA
:1017F00080002165A4F85420A4F856200025C4F8E0
:101800008C502120C4F88400A06FD8B11749C16260
:10181000A16F174813460863A16F16484863A06F6D
:1018200085632668216D06F12802A06FFEF7E0FEB1
:1018300040B11020C4F88C0004F8805F2020606064
:10184000012070BD21684020086284F88050206823
:10185000083050E8001F41F0800140E80012002AE3
:10186000F5D1002070BD022070BD0000D31D00081E
:10187000151E0008E51C00087047704708B54FF0BA
:10188000B0418A6C02438A64896C0140009108BDB2
:1018900008B54FF0B041CA6C0243CA64C96C01403C
:1018A000009108BD4FF0B040806800F00C00704718
:1018B0004FF0B0400068C0F3404070474FF0B04078
:1018C0000068C0F3802070474FF0B0414A6822F0B2
:1018D000FE4242EA0060486070474FF0B040D0F8E6
:1018E0009400C0F3400070474FF0B040006800F033
:1018F000F000B02800D9B02070474FF0B040006829
:10190000C0F3400070474FF0B0414A6822F47F4274
:1019100042EA0020486070474FF0B0410A6822F068
:10192000F00202430A6070474FF0B040C06800F018
:1019300003007047154810B5134901604FF4165164
:10194000416000214FF4C0628160C0E903120C22A3
:10195000C0E90521C161016241628162FFF76CFE4D
:1019600070B900210948FFF7C6FC48B900210748B3
:10197000FFF79BFC20B90548FFF776FC002801D053
:10198000FEF703FD10BD000000380140A800002054
:101990007047000070B5214A8EB00DF1100C78CA66
:1019A0008CE8780038CA08AE86E838003CCA8DE872
:1019B0003C000024B1F5007F6A46214607D008AB01
:1019C00053F8215085420BD352F821400BE004AB71
:1019D00053F821508542F7D2491C0429F8D302E07C
:1019E000491C0329ECD30E4E306820F00700204339
:1019F0003060FEF749FF054608E000BFFEF744FFF0
:101A0000401B022802D903200EB070BD306800F0E0
:101A10000700A042F2D10020F6E70000CC23000826
:101A20000040005810B50F49B02801D9C86A03E03A
:101A30003C2202EA900008584FF0B041D1F808115A
:101A4000094A01F00F0152F82110B0FBF1F4FEF742
:101A5000A5FF01460548B4FBF0F0BDE81040FFF7D4
:101A600099BF00006C2300082C23000840420F009F
:101A70007047FEF715BF000010B59AB048216846C0
:101A8000FEF7B2FB1C2112A8FEF7AEFB1B48016853
:101A900021F4C06141F400710160006800246022FB
:101AA00000F4C060CDE9084219902020012107917F
:101AB0000090CDE90D4080030F90800211904FF00F
:101AC000C06010900222CDE90B216846FFF7F6F8BE
:101AD00078B96F2012900320CDE913048020CDE95E
:101AE00016401594032112A81894FEF767FF0028EA
:101AF00001D0FEF74AFC1AB010BD000000040058E7
:101B000015480021016014488030026842F47002D8
:101B100002604FF0B040026842F0010202604FF4F0
:101B2000E022826002680D4B1A400260D0F89420D7
:101B300022F00502C0F89420D0F8982022F001028B
:101B4000C0F89820064AC2600261026822F480222E
:101B5000026081617047000008ED00E0FBFEF6FACC
:101B60000010042230B5416EB9B1026891689268E4
:101B7000C1F342610B4B520F9C5CE50003F108047A
:101B8000A25CB5FBF2F2A0F86A205A5C615CD2005C
:101B9000B2FBF1F1A0F8681030BD0121A0F86A1085
:101BA000F8E700001024000890F82810C90706D0B4
:101BB00001684A68C36A22F400321A434A6090F806
:101BC0002810890706D501684A68036B22F4803221
:101BD0001A434A6090F82810490706D501684A68F8
:101BE000436B22F480221A434A6090F828100907B8
:101BF00006D501684A68836B22F400421A434A60A2
:101C000090F82810C90606D501688A68C36B22F4CB
:101C100080521A438A6090F82810890606D5016818
:101C20008A68036C22F400521A438A6090F82810E4
:101C3000490611D501684A68436C22F480121A43A0
:101C40004A60416CB1F5801F06D101684A68836C17
:101C500022F4C0021A434A6090F82810090606D5FB
:101C600001684A68C06C22F4002202434A6070474F
:101C7000F8B500260446C0F88C60FEF705FE054660
:101C8000206800686FF07E47000708D52B460022C9
:101C90004FF400112046009700F054FA60B9206814
:101CA000006840070AD52B4600224FF480012046E9
:101CB000009700F047FA08B10320F8BD2020C4F8CF
:101CC0008400C4F8880044F86C6F00202675F8BDC5
:101CD00010B5806A0021A0F85E10A0F85610FFF73A
:101CE00032FB10BD70B5846AD4F88400D4F88850F3
:101CF000216889684FF00006090606D5212804D11D
:101D0000A4F85660204600F0B5F8206880684006C8
:101D100006D5222D04D1A4F85E60204600F080F89C
:101D2000D4F88C0040F01000C4F88C002046FFF777
:101D30000AFB70BD10B50146806A0968096889060A
:101D40002ED40021A0F85E10016851E8002F22F483
:101D5000807241E80023002BF6D10168083151E878
:101D6000002F22F0010241E80023002BF5D1016889
:101D7000083151E8002F22F0400241E80023002BF7
:101D8000F5D12021C0F88810C16E012908D1026860
:101D900052E8001F21F0100142E80013002BF6D199
:101DA000C16E012902D0FFF713FD10BDB0F85C1021
:101DB000FFF779FA10BD10B5806AC16E012902D013
:101DC000FFF707FD10BDB0F85C104908FFF76BFA8C
:101DD00010BD10B50146806A09680968890616D4E5
:101DE0000021A0F856100168083151E8002F22F0B8
:101DF000800241E80023002BF5D1026852E8001F61
:101E000041F0400142E80013002BF6D110BDFFF76E
:101E100033FD10BD10B5806AFFF72FFD10BD000027
:101E200010B5026852E8001F21F4907142E80013D7
:101E3000002BF6D10E4B0268083252E8001F194001
:101E400042E80014002CF6D1C16E012908D10168C6
:101E500051E8002F22F0100241E80023002BF6D1B8
:101E60002021C0F888100021C166016710BD000064
:101E7000FEFFFFEF026852E8001F21F0C00142E8B8
:101E80000013002BF6D10168083151E8002F22F42D
:101E9000000241E80023002BF5D12021C0F8841076
:101EA000704700002DE9F041044600682269A168EE
:101EB000E66911436269002532431143724B02689F
:101EC000724E32400A43026020684168E26821F4A1
:101ED0004051114341602168A069994201D0226AB2
:101EE00010438A686A4E324002438A602068C16AA1
:101EF000626A21F00F011143C1626649D4F800C043
:101F00004FF0B0408C450DD1D0F8880010F00300A0
:101F100006D001281DD0022819D003281BD112E0B9
:101F2000012119E09C4516D1D0F888004FF440619A
:101F300010F4406009D0B0F5806F0AD0B0F5006FA2
:101F400005D0884207D1082106E0002104E00221E3
:101F500002E0042100E010214F4A504F00264FF4C8
:101F600000409C4531D131B1022907D0042907D066
:101F700008297AD107E0FEF72FFE03E0104602E0C1
:101F8000FEF74EFE78B3616A37F811206768B0FB40
:101F9000F2F107EB47038B4267D8B1EB073F64D8F8
:101FA00000231946FEF7E8F8090241EA106102022F
:101FB0007808101871413A460023FEF7DDF8384AD8
:101FC000A0F54071914252D94FE0E3694FF6EF78A6
:101FD00083422AD1012907D0022908D0042908D038
:101FE000082942D108E041E0FEF708FE03E0104670
:101FF00002E0FEF715FEC8B3616A37F81110B0FBB6
:10200000F1F04100606801EB5001B1FBF0F080B2EB
:10201000A0F11001414528D84FF6F0710140C0F3FE
:10202000420001432068C16023E0012906D0022953
:1020300007D0042907D0082917D107E0FEF7DEFDF5
:1020400003E0104602E0FEF7EBFD78B1616A37F875
:102050001110B0FBF1F1606801EB5001B1FBF0F041
:1020600080B2A0F11001414501D9012501E02168AC
:10207000C8600120A4F86A0024F8680F2846A6600A
:10208000E660BDE8F081000000800040F369FFCF0A
:10209000FFF4FF11003801400024F400F823000889
:1020A000FFFC0F0070B58165A0F85C200025044698
:1020B000C0F88C502220C4F88800E06FD8B11E49C7
:1020C000C162E16F1D4813460863E16F1C48486315
:1020D000E06F8563A66D216832462431E06FFEF71C
:1020E00087FA40B11020C4F88C0004F8805F2020EB
:1020F000A060012070BD84F88050216851E8000F75
:1021000040F4807041E80002002AF6D120680830CF
:1021100050E8001F41F0010140E80012002AF5D10B
:102120002068083050E8001F41F0400140E80012EC
:10213000002AF5D1002070BD351D0008B71D00082C
:10214000E51C00082DE9F0479A4617460E4604465E
:102150004FF000094FF02008089D4AE0681C48D065
:10216000FEF792FBA0EB0A00A8422AD84DB32068E4
:10217000016849073DD5C069C043000539D42168CD
:102180004FF400600862206850E8001F21F4D0710D
:1021900040E80012002AF6D12068083050E8001FFD
:1021A00021F0010140E80012002AF5D144F8848FA3
:1021B000C4F80480C4F8088004F8049C0320BDE837
:1021C000F087216851E8000F20F4D07041E8000248
:1021D000002AF6D12068083050E8001F21F00101E4
:1021E00040E80012002AF5D144F8848FC4F8048036
:1021F000E2E72068C06936EA000004D00020B84257
:10220000ACD00020DBE70120F9E700000148FFF730
:10221000A3B80000A80000200907090E002804DB6D
:1022200000F1E02080F80014704700F00F0000F18A
:10223000E02080F8141D704702E008C8121F08C192
:10224000002AFAD170477047002001E001C1121F37
:10225000002AFBD17047000008B5FEF729FBFFF705
:102260000BFC4FF0B040C16C41F00201C164C06C86
:1022700000F0020000900420FFF700FB0120FFF7B0
:10228000FDFA002211460B20FEF756FB0B20FEF74D
:1022900046FB002211460C20FEF74EFB0C20FEF7F9
:1022A0003EFBFFF747FB0120FDF7DAFF0220FDF7B9
:1022B000D7FF612217491848FFF78CFAF0B9164981
:1022C0000A2290311448FFF759FAB8B91248FFF7BB
:1022D0003DF82028FAD110490A2290310E48FFF724
:1022E00079FA58B90C48FFF731F82028FAD1094992
:1022F000152262310848FFF76DFA08B1FEF745F87C
:102300000548FFF723F82028FAD10120FDF7D0FF78
:10231000FEE7000008000020A80000200A060700D1
:102320002000010002001000010002000100000076
:102330000300000005000000010000000100000093
:10234000060000000A00000020000000020000005B
:102350000400000008000000100000004000000021
:10236000800000000001000000020000A0860100C3
:10237000400D0300801A060000350C0040420F009B
:1023800080841E0000093D0000127A000024F40041
:1023900000366E010048E801006CDC02000000001D
:1023A000000000000000000000000000000000002D
:1023B000000000000000000000000000010000001C
:1023C00002000000030000000400000012000000F2
:1023D000240000003600000040000000060000005D
:1023E0000C000000100000000000000001000000D0
:1023F00002000000030000000100020004000600CB
:1024000008000A000C0010002000400080000001BD
:102410000101010307010000080402040801010191
:102420004024000808000020A00000003822000816
:10243000E0240008A80000206005000048220008F1
:102440000A0D202A2A2A2A554152542D48797065AE
:10245000727465726D696E616C20636F6D6D756EFF
:1024600069636174696F6E206261736564206F6E69
:1024700020444D412A2A2A2A0A0D20456E7465728D
:1024800020313020636861726163746572732075F6
:1024900073696E67206B6579626F617264203A0AB6
:1024A0000D000A0D204578616D706C652046696EDF
:1024B00069736865640A0D00000400480004004860
:1024C0000004004800080048000C0048000C0048C8
:1024D00000093D00010000001000000000000000A5
:040000050800013DB1
:00000001FF
