:020000040800F2
:10000000300500205501000847170008B315000807
:10001000451700085B0300089B2000080000000053
:10002000000000000000000000000000FD1A0008B1
:100030005D0300080000000095180008FF1A000882
:100040006F0100086F0100086F0100086F010008D0
:100050006F0100086F0100086F0100086F010008C0
:100060006F0100086F0100086F0100086F010008B0
:100070006F0100086F0100086F0100086F010008A0
:100080006F0100086F0100086F0100086F01000890
:100090006F0100086F0100086F0100086F01000880
:1000A0006F0100086F010008F91B00086F010008CC
:1000B0006F0100086F0100086F0100086F01000860
:1000C0006F0100086F0100086F0100086F01000850
:1000D0006F0100086F0100086F0100086F01000840
:1000E0006F0100086F0100086F0100086F01000830
:1000F0006F0100086F0100086F0100086F01000820
:100100006F0100086F0100086F0100086F0100080F
:100110006F0100086F0100086F0100086F010008FF
:100120006F0100086F0100086F0100086F010008EF
:100130006F0100086F0100086F010008DFF810D0A0
:1001400000F07CF8004800475D210008AFF3008014
:10015000300500200648804706480047FEE7FEE7D6
:10016000FEE7FEE7FEE7FEE7FEE7FEE7FEE7FEE767
:10017000951B00083D0100082DE9F05F05460020B1
:1001800092469B4688460646814640241BE0284608
:1001900041464746224600F041F853465A46C01AA7
:1001A000914110D311461846224600F028F82D1A26
:1001B00067EB01084F4622460120002100F01FF89E
:1001C00017EB00094E41201EA4F10104DFDC484674
:1001D00031462A464346BDE8F09FD2B201E000F81E
:1001E000012B491EFBD270470022F6E710B51346DB
:1001F0000A4604461946FFF7F0FF204610BD202AA4
:1002000004DB203A00FA02F1002070479140C2F16D
:10021000200320FA03F3194390407047202A04DB9F
:10022000203A21FA02F00021704721FA02F3D0406F
:10023000C2F120029140084319467047064C074D11
:1002400006E0E06840F0010394E8070098471034A6
:10025000AC42F6D3FFF776FFF82300081824000815
:100260007047000004496FF0010009680861034805
:100270004168491C41607047D40000201C000020E8
:10028000F0B587B0002514216846FFF7ADFF0120C7
:1002900001F090F980200126CDE9000602244FF0FC
:1002A000904769460294384600F066F800228021A3
:1002B000384600F061F9802001F07CF9CDE9004674
:1002C0000294184C6946204600F056F8002202219C
:1002D000204600F051F9154C134820604FF0B04013
:1002E000016E41F480210166006E002200F480203E
:1002F000059003211A2000F09DF91A2000F08DF9D5
:1003000000F004FC0A49B0FBF1F0401E60600420DC
:10031000E060204600F02CFF00B16D1E07B02846BB
:10032000F0BD0000001C004800480140D40000203F
:1003300040420F0008B500200090684601F05CFACA
:1003400008BD01F059BA10B50020FFF789FF10BDB4
:1003500010B50120FFF784FF10BDFEE770470000D5
:10036000044822210170002141708170FFF7E9FFEC
:1003700072B6FEE7080000202DE9F04FDFF8E0B18B
:10038000DFF8DC910023012503240BF1800B85B0FD
:100390000F2709F1040A0BF1040ED9E005FA03FC5A
:1003A00012EA0C027ED00E7906F00306012E01D06F
:1003B000022E20D1866800965E0004FA06F80496A4
:1003C000009E26EA08060096D1F80C80049E08FAE2
:1003D00006F8009E48EA0608C0F80880466826EA43
:1003E0000C0691F804C0CCF3001C0CFA03FC4CEA98
:1003F000060CC0F804C00E79F643B6070DD0D0F84D
:100400000CC04FEA430804FA08F62CEA060C8E6882
:1004100006FA08F646EA0C06C6600E7906F00306F0
:10042000022E15D1DE0800EB86060296366A4FEAE8
:10043000437C4FEADC6807FA08FC26EA0C06D1F890
:1004400010C00CFA08FC4CEA060C029EC6F820C04C
:10045000D0F800C04FEA430804FA08F62CEA060C6C
:100460000E7906F0030606FA08F646EA0C06066060
:100470004E6816F4403F6AD03A4E23F0030C6644AF
:100480000296B6684FEA837C4FEA1C7807FA08FCAC
:1004900026EA0C06B0F1904F08D0DFF8CCC06045DA
:1004A00007D100E053E04FF0010C19E04FF0000CD1
:1004B00016E0DFF8B8C0604502D14FF0020C0FE043
:1004C000DFF8ACC0604502D14FF0030C08E0DFF864
:1004D000A4C0604502D14FF0040C01E04FF0070CBE
:1004E0000CFA08FC4CEA060C029EC6F808C0D9F8C3
:1004F0000060CC46D1F8048096435FEAC82800D556
:100500001643CCF80060DAF80060D446D1F80480D5
:1005100096435FEA882800D51643CCF80060DBF8E4
:100520000060DC46D1F8048096435FEAC83800D505
:100530001643CCF80060DEF80060F446D1F8048081
:1005400096435FEA883800D51643CCF800605B1C00
:100550000A6832FA03F67FF421AF05B0BDE8F08FE8
:10056000000800580000014000040048000800484E
:10057000000C0048001000480AB181617047816298
:100580007047000001488068704700000C000020A0
:1005900001484068704700000C0000200248816854
:1005A00002781144816070470C000020094810B5A2
:1005B0000168002441F480710160032000F05AF8C2
:1005C000002000F009F808B1012401E000F024F84F
:1005D000204610BD0040005870B50E4E0546002460
:1005E0003078A0B100F06EFA31784FF47A72B2FB35
:1005F000F1F1B0FBF1F000F0A7FD40B9102D06D2EB
:1006000000222946501E00F015F8756000E0012414
:10061000204670BD0C0000207047002809DB00F068
:100620001F02012191404009800000F1E020C0F844
:1006300000117047F0B40E4B1B680C46C3F3022345
:10064000C3F10705042D00D90425191D072901D27E
:10065000002300E0DB1E012606FA05F1491E2140B9
:1006600099409E40761E16403143F0BC01F01EBDFD
:100670000CED00E0064900F0070208684FF6FF03A2
:10068000184040EA0220034A104308607047000007
:100690000CED00E00000FA050248006800F4C060BC
:1006A00070470000000400580248016841F480715E
:1006B00001607047000400582DE9F041044600270E
:1006C00000783E4640064FF0B04517D5206B78B114
:1006D000B0F5800F07D0B0F5000F3BD0B0F5400F5C
:1006E00038D0012709E0E86840F48030E86031E064
:1006F000201D01F0E6F807002CD03E4620880005BA
:1007000046D5D5F8900000F44076206CB0423ED03B
:10071000FFF7CAFF3EB3D5F89000D5F8901041F42A
:100720008031C5F89010D5F8901021F48031C5F8CB
:100730009010216C20F440700843C5F89000D5F863
:10074000900010F0010F22D0FFF71CFF064641F287
:10075000883818E0206BD5F8881021F44001014357
:10076000C5F88810CAE7206CD5F8901021F44071C4
:100770000143C5F890100AE0FFF704FF811B4145D3
:1007800001D9032703E000F03AFF0128F4D13E46E7
:100790002078C00707D0A069D5F8881021F00301A0
:1007A0000143C5F888102078800707D5E069D5F89F
:1007B000881021F440610143C5F888102078C006F4
:1007C00002D5A06A00F07BFF2078800602D5E06A9F
:1007D00000F075FF2078400702D5206A00F060FF26
:1007E0002078000702D5606A00F05AFF2088C00513
:1007F00013D5606B00F04BFF606BB0F1006F03D15D
:10080000E86840F08070E860606BB0F1806F04D100
:10081000201D01F090F800B10646208880051BD508
:10082000A06BB0F1804F10D0B0F1004F0DD060B18F
:1008300020F08057002000F04DFF384600F027FFE1
:10084000A06BB0F1C05F03D006E000F043FFF7E714
:10085000E86840F08070E8602088400518D5E06BBB
:10086000D5F8881021F040510143C5F88810E06B9D
:10087000B0F1005F03D1E86840F48030E860E06BDD
:10088000B0F1805F04D1201D01F08FF800B1064661
:100890002088C00407D5606CD5F8941021F440413D
:1008A0000143C5F89410208880040BD5E06C696A78
:1008B00021F0300101436962A06C696A21F00301F3
:1008C000014369623046BDE8F08100002DE9F04146
:1008D0000F46050077D0794E306800F00700B84227
:1008E00012D2306820F0070038433060FFF74AFE2C
:1008F000044604E0FFF746FE001B02287DD830685E
:1009000000F00700B842F5D128784FF0B0448007D6
:1009100015D5A868A16821F0F0010143A160FFF797
:1009200031FE804606E000BFFFF72CFEA0EB08007A
:10093000022862D8A068C0F300400028F4D02878CC
:10094000800617D56869D4F8081121F0F001014339
:10095000C4F80811FFF716FE804605E0FFF712FE07
:10096000A0EB0800022848D8D4F80801C0F34040A2
:100970000028F3D02878400618D5A869D4F80811C3
:1009800021F00F0141EA1010C4F80801FFF7FAFD49
:10099000804605E0FFF7F6FDA0EB080002287CD8B2
:1009A000D4F80801C0F300400028F3D028784007AD
:1009B00015D5E868A16821F4E0610143A160FFF763
:1009C000E1FD804606E046E0FFF7DCFDA0EB080015
:1009D000022862D8A068C0F340400028F4D02878EC
:1009E000000716D52869A16821F4605141EAC001C9
:1009F000A160FFF7C7FD804606E04EE0FFF7C2FDAD
:100A0000A0EB0800022848D8A068C0F38040002866
:100A1000F4D02878C0072CD06868022805D00328B5
:100A200006D0A8B100F0DCFD05E000F0D3FD02E047
:100A30002068C0F3406070B16868A16821F00301CC
:100A40000143A160FFF79EFD044641F288380AE0A9
:100A500000F0ECFDEFE70120BDE8F081FFF792FD2B
:100A6000011B414519D800F0AFFD6968B0EB810F5B
:100A7000F4D1306800F00700B84215D9306820F092
:100A8000070038433060FFF77DFD044607E000BFF4
:100A9000FFF778FD001B022801D90320DCE730684E
:100AA00000F00700B842F3D100F00CF804490860E8
:100AB000FFF76EFDBDE8F041FFF78EBD0040005826
:100AC0001800002010B500F033F84FF0B0418968ED
:100AD000044A01F0F00102EB91010968B0FBF1F06A
:100AE00010BD0000B422000810B5FFF7EBFF4FF077
:100AF000B0418968044A01F4E06102EB9111097880
:100B000001F01F01C84010BD3423000810B5FFF7E5
:100B1000D9FF4FF0B0418968044A01F4605102EBFB
:100B20005121097801F01F01C84010BD342300088D
:100B30002DE9F04100F048FD204F38B3204C042847
:100B40002CD066004FF0B045082829D000F099FD60
:100B5000022808D003282AD000F05FFD00F0F00042
:100B600007EB90000468E868E968C0F3062060437A
:100B700001F07002012101EB1212B0FBF2F2E86801
:100B800001EB5070B2FBF0F0BDE8F08100F045FDE4
:100B900000F0F00007EB90000068F5E72046F3E76F
:100BA0002868C0F300500028F8D13046ECE72868E8
:100BB000C0F300500028D6D13446D4E7F422000810
:100BC0000024F4002DE9F04104007DD020784FF09E
:100BD000B045800661D500F0F7FC064600F051FDF7
:100BE00076B10C2E01D101280AD0E06900282868CE
:100BF00042D040F001002860FFF7C4FC064630E018
:100C000000F014FD10B1E0690028DED000F005FD11
:100C10000146606A81420AD200F04AFF002853D19F
:100C2000606A00F012FD206A00F006FD09E000F0A5
:100C30000CFD206A00F000FD606A00F039FF00281A
:100C4000EDD1FFF73FFFF7490860F7480068FFF76D
:100C5000C3FC0028E3D120E0FFF794FC801B0228AE
:100C600074D800F0E3FC0028F6D0606A00F0EDFCD8
:100C7000206A00F0E1FC10E020F001002860FFF79E
:100C800081FC064605E000BFFFF77CFC801B0228C4
:100C9000E6D800F0CBFC0028F6D12078C0073CD085
:100CA00000F092FC064600F0ECFC082E13D00C2E4F
:100CB00001D103280FD06068B0F5803F286811D0BB
:100CC00020F48030286000E008E26068C0B1FFF7DF
:100CD00059FC06460FE000F07DFCF0B1606800288A
:100CE00093D01AE040F48030ECE700BFFFF74AFCF5
:100CF000801B6428B4D800F06DFC0028F6D00CE00E
:100D0000FFF740FC064604E0FFF73CFC801B64282C
:100D1000A6D800F05FFC0028F6D1207880073CD5EB
:100D200000F052FC064600F0ACFC042E0FD00C2E56
:100D300001D102280BD0E068002828681CD040F4BC
:100D400080702860FFF71EFC064610E03AE100F0D4
:100D500047FC10B1E0680028C2D0206900F046FCD2
:100D60001BE000BFFFF70EFC801B022890D800F0AC
:100D700037FC0028F6D0F0E720F480702860FFF7F9
:100D800001FC064605E000BFFFF7FCFB801B0228C4
:100D9000B0D800F025FC0028F6D12068010701D466
:100DA000C1064ED56169E1B3C0064BD500F02EFCFB
:100DB00098B9D5F8940040F00100C5F89400FFF709
:100DC000E1FB064605E000BFFFF7DCFB801B0228C5
:100DD00090D800F01BFC0028F6D0D5F8940040F025
:100DE0000400C5F89400FFF7CDFB064605E000BF00
:100DF000FFF7C8FB801B03288AD8D5F89400C0F3FE
:100E0000C0000028F4D0A069D5F8941021F47061D6
:100E100041EA0020C5F89400D5F8940020F00100C4
:100E200000E035E0C5F89400FFF7ACFB064604E0AF
:100E3000FFF7A8FB801B022898D800F0E7FB0028EA
:100E4000F6D14EE0D5F8940040F00100C5F89400CA
:100E5000FFF798FB064604E0FFF794FB801B02288F
:100E600084D800F0D3FB0028F6D0D5F8940020F009
:100E70000400C5F8940004E0FFF784FB801B0328FE
:100E800086D8D5F89400C0F3C0000028F4D128E03B
:100E9000D5F8940020F00400C5F89400FFF772FB29
:100EA000064604E0FFF76EFB801B032890D8D5F8B8
:100EB0009400C0F3C0000028F4D1D5F8940020F0CD
:100EC0000100C5F89400FFF75DFB064605E000BF92
:100ED000FFF758FB801B022874D800F097FB00280E
:100EE000F6D12078400750D5504F3868C0050DD452
:100EF000FFF7DAFBFFF746FB064604E0FFF742FB8D
:100F0000801B02285ED83868C005F7D5A068012884
:100F100016D00528D5F8900017D020F00100C5F8AC
:100F20009000D5F8900020F0040000BFC5F89000B4
:100F3000A06841F28836C8B1FFF724FB07460EE0EF
:100F4000D5F8900040F00100F0E740F00400C5F84B
:100F50009000F5E7FFF716FBC01BB04232D8D5F87A
:100F60009000C0F340000028F4D00EE0FFF70AFB29
:100F7000074604E0FFF706FBC01BB04222D8D5F8B5
:100F80009000C0F340000028F4D1207840062ED510
:100F9000A06A0028D5F8980015D040F00100C5F8E7
:100FA0009800FFF7EFFA064605E000BFFFF7EAFA00
:100FB000801B022806D8D5F89800C0F3400000280E
:100FC000F4D014E089E020F00100C5F89800FFF7A4
:100FD000D9FA064605E000BFFFF7D4FA801B0228C5
:100FE0007BD8D5F89800C0F340000028F4D1E06A1F
:100FF000F0B300F0E9FA0146E868E26A022A19D083
:101000000C296BD0286820F080702860E86820F0F8
:101010000300E860E86806490840E860FFF7B2FAB4
:10102000044687E01800002010000020000400584B
:10103000FFFFFEEE236B00F003029A421AD1636BAE
:1010400000F070029A4215D1A26BC0F306239A42B7
:1010500010D1E36B00F478129A420BD1236C00F0AC
:1010600060629A4206D1626C00F06040904200E0FB
:1010700056E03ED00C2962D0286840015FD4286831
:1010800020F080702860FFF77DFA064605E000BF7B
:10109000FFF778FA801B022849D828688001F7D426
:1010A000D4E90C010843D4E90E2141EA02210843A6
:1010B000216C0843616C0843E968224A11400843E7
:1010C000E860286840F080702860E86840F0805050
:1010D000E860FFF757FA044607E028E02FE000BF7A
:1010E000FFF750FA001B022821D828688001F7D5A5
:1010F00023E02868800120D4286840F080702860B0
:10110000E86840F08050E860FFF73CFA044604E0ED
:10111000FFF738FA001B022809D828688001F7D5A4
:101120000BE000BFFFF72EFA001B022802D90320B4
:10113000BDE8F08128688001F4D40020F8E70120A0
:10114000F6E700008C80C11110B5401EB0F1807F21
:1011500001D3012010BD4FF0E02460610F21601722
:1011600000F0A4FF0020A06107202061002010BD36
:1011700010B5040003D094F83D0010B107E0012041
:1011800010BD002084F83C00204600F022F8022028
:1011900084F83D00211D206800F030FD012084F816
:1011A000480084F83E0084F83F0084F8400084F84A
:1011B000410084F8420084F8430084F8440084F835
:1011C000450084F8460084F8470084F83D0000207C
:1011D00010BD704790F83D10012901D001207047E3
:1011E000022180F83D1000680949884202D0B0F120
:1011F000804F07D18168074A1140062906D0B1F512
:10120000803F03D0016841F0010101600020704778
:10121000002C01400700010001680A6A41F2111325
:101220001A4207D10A6A9B101A4203D10A6822F0B7
:1012300001020A60012180F83D100020704790F8FB
:101240008010012918D0012180F880102421C0F8D5
:10125000841050F8641B0A680B6823F001030B60CC
:1012600022F000510022026050F8643C19602021F5
:1012700001620277104670470220704770B504463D
:1012800090F8800001281DD0012084F880002420DF
:10129000C4F8840020680568026822F00102026038
:1012A0002068826822F060620A438260204600F073
:1012B000DBFC206805602020C4F88400002084F84E
:1012C000800070BD022070BD70B5044690F88000AB
:1012D00001281DD0012084F880002420C4F8840057
:1012E00020680568026822F00102026020688268B6
:1012F00022F060420A438260204600F0B5FC20687C
:1013000005602020C4F88400002084F8800070BDAF
:10131000022070BD10B5040003D0D4F8840010B1D1
:1013200007E0012010BD002084F88000204600F076
:1013300027F82420C4F884002068016821F0010106
:101340000160204600F046FD0128EBD0A06A10B1F4
:10135000204600F0ABFC2068416821F490414160D8
:101360002068816821F02A0181602068016841F0CD
:10137000010101602046BDE8104000F0FBBC000008
:1013800030B59BB00446142114A8FEF72DFF502160
:101390006846FEF729FF17492068884227D10124B3
:1013A0000025684606950094FFF786F908B1FEF718
:1013B000D7FF4FF0B040016E41F480410166016EED
:1013C00001F480411991C16C41F00201C164C06C0B
:1013D00015A900F002001990C0201490022081E8A5
:1013E00031000720189014A90348FEF7C5FF1BB071
:1013F00030BD000000380140000400482DE9F84FDE
:101400000446D0F888009A4616460D46202870D12A
:101410000DB306B394F8800001286AD0012084F847
:1014200080004FF00008C4F88C802221C4F8881096
:10143000C4F86C802034FFF7A5F8A6878146E687BC
:1014400054F8180C4FF48053FF21203C984208D1E7
:1014500022691AB11BE00120BDE8F88F40F2FF11AC
:1014600015E07F2288B1B0F1805F13D0A4F86080CE
:10147000B4F86070984201D1206990B12E460025E1
:1014800084F8808007F0FF0825E0266936B9A4F8C3
:101490006010EDE7216909B13F21F8E7A4F8602069
:1014A000E6E70026ECE74B46002220212046CDF857
:1014B00000A000F08FFD08B10320CDE72068406A4E
:1014C00096B100EA080006F8010B00BFB4F85E0010
:1014D000401EA4F85E00B4F85E000028E3D120208E
:1014E000C4F888000020B7E7384025F8020BEDE784
:1014F000FFE70220B0E72DE9F8430446D0F8840066
:101500001F4616460D46202851D1DDB1D6B194F8BC
:10151000800001284BD0012084F880004FF00008A3
:10152000C4F88C802120C4F884001834FFF72AF80E
:10153000A6878146E68754F8100C183CB0F5805F0A
:1015400003D004E00120BDE8F883206920B12E46D5
:10155000002584F8808010E00026FAE780212046EC
:1015600000F038FDB8B9C6B116F8010B21688862E1
:10157000B4F85600401EA4F85600B4F856004B4686
:101580004FF0000200970028E8D14FF040012046BC
:1015900000F020FD30B10320D5E735F8020BC0F391
:1015A0000800E3E72020C4F884000020CBE70220F5
:1015B000C9E7FEE708B54FF0B041CA6C0243CA6400
:1015C000C96C0140009108BD4FF0B040806800F048
:1015D0000C0070474FF0B0400068C0F340407047C7
:1015E0004FF0B0400068C0F3802070474FF0B0412A
:1015F0004A6822F0FE4242EA0060486070474FF0BD
:10160000B040D0F89000C0F3400070474FF0B040B9
:10161000D0F89400C0F3400070474FF0B04000682D
:1016200000F0F000B02800D9B02070474FF0B04073
:101630000068C0F3400070474FF0B0414A6822F4A0
:101640007F4242EA0020486070474FF0B0410A688C
:1016500022F0F00202430A6070474FF0B040016888
:1016600021F08061016070474FF0B040016841F0A7
:101670008061016070474FF0B0400068C0F3C06007
:1016800070474FF0B040C06800F0030070474FF063
:10169000B04151F8882F22F0406202430A6070473F
:1016A00010B54FF0B04151F8883F4FF47F2202EA65
:1016B0001014A34302EA001003430B6010BD4FF067
:1016C000B04151F8882F030C1B049A4342EA0040B2
:1016D000086070474FF0B04151F8882F22F0404227
:1016E00002430A6070470000154810B513490160B5
:1016F0004FF4E131416000214FF4C0628160C0E9E4
:1017000003120C22C0E90521C161016241628162BC
:10171000FFF700FE70B900210948FFF7D5FD48B971
:1017200000210748FFF7AAFD20B90548FFF787FD0C
:10173000002801D0FEF714FE10BD00000038014063
:1017400044000020FEE7FEE710B5044600F08000EC
:1017500000F01EF804F0400000F01AF804F0200039
:1017600000F016F804F0100000F012F804F0080081
:1017700000F00EF804F0040000F00AF804F0020093
:1017800000F006F804F00100BDE81040AFF300805F
:1017900070B505464FF09044012280212046FEF7A7
:1017A000EBFE012000F01EF8002280212046FEF70B
:1017B000E3FE012000F016F875B1012280212046D9
:1017C000FEF7DAFE012000F00DF80022802120460D
:1017D000FEF7D2FE012000E00420BDE8704000F0DA
:1017E00001B80000034A516853685B1A8342FBD377
:1017F000704700001C0000202DE9F04105000CD0CE
:1018000021480068C16841F00101C1601E48FFF72E
:10181000E1FC6FF00507A0BB03E06FF00100BDE83D
:10182000F081DFF86880012202214046FEF7A4FE25
:101830004FF09044012280212046FEF79DFE0120BA
:10184000FFF7D0FF002280212046FEF795FE0420FE
:10185000FFF7C8FF3A20FFF777FF0D4E0024285D01
:101860003055FFF771FF641CE4B2032CF7D300225C
:1018700002214046FEF780FE0348FFF7CDFC00281A
:10188000CDD03846CBE70000D4000020001C004833
:101890001C000020704700B595B050216846FEF747
:1018A000A3FC4FF4005000900020129010201390E1
:1018B0006846FEF701FF002801D0FEF751FD15B084
:1018C00000BD2DE9F04106460025FFF7C6FEFEF7F4
:1018D00059FE044604E0FEF755FE001B02281DD801
:1018E000FFF7C9FE0028F6D14FF0B04420693168F7
:1018F00020F4FE4040EA012020612069716820F454
:10190000781008432061FFF7AFFEFEF73BFE074665
:1019100006E0FEF737FEC01B022801D9032507E0C9
:10192000FFF7A9FE0128F4D120693169084320613D
:101930002846BDE8F0812DE9F04106460025FFF775
:101940008CFEFEF71FFE044604E0FEF71BFE001BA4
:1019500002281DD8FFF78FFE0028F6D14FF0B044C3
:101960002069316820F4FE4040EA012020612069AE
:10197000B16820F0606008432061FFF775FEFEF754
:1019800001FE074606E0FEF7FDFDC01B022801D957
:10199000032507E0FFF76FFE0128F4D120693169C4
:1019A000084320612846BDE8F0812DE9F041064654
:1019B0000025FFF752FEFEF7E5FD044604E0FEF7C2
:1019C000E1FD001B02281DD8FFF755FE0028F6D1C7
:1019D0004FF0B0442069316820F4FE4040EA012015
:1019E00020612069F16820F0604008432061FFF722
:1019F0003BFEFEF7C7FD074606E0FEF7C3FDC01B32
:101A0000022801D9032507E0FFF735FE0128F4D1AC
:101A100020693169084320612846BDE8F081000053
:101A200070B5214A8EB00DF1100C78CA8CE87800A0
:101A300038CA08AE86E838003CCA8DE83C0000246D
:101A4000B1F5007F6A46214607D008AB53F8215014
:101A500085420BD352F821400BE004AB53F82150E0
:101A60008542F7D2491C0429F8D302E0491C032916
:101A7000ECD30E4E306820F0070020433060FEF7B4
:101A800081FD054608E000BFFEF77CFD401B0228F3
:101A900002D903200EB070BD306800F00700A042EC
:101AA000F2D10020F6E7000088220008004000582C
:101AB00010B50F49B02801D9C86A03E03C2202EAF8
:101AC000900008584FF0B041D1F80811094A01F0D0
:101AD0000F0152F82110B0FBF1F4FEF7DDFD0146D5
:101AE0000548B4FBF0F0BDE81040FFF799BF0000D7
:101AF000F4220008B422000840420F007047FEF7AD
:101B00004DBD000010B59AB048216846FEF76CFB49
:101B10001C2112A8FEF768FB1D48016821F4C06172
:101B200041F4007101600068402100F4C060199028
:101B3000222000904FF480700390049100246021D3
:101B4000CDE90841012007900221CDE90B102020AA
:101B5000CDE90D4000030F9000031190001110908B
:101B60006846FFF72FF878B96F2012900320CDE96F
:101B700013048020CDE916401594032112A818946F
:101B8000FEF7A4FE002801D0FEF7EAFB1AB010BD54
:101B90000004005815480021016014488030026894
:101BA00042F4700202604FF0B040026842F001025D
:101BB00002604FF4E022826002680D4B1A4002601E
:101BC000D0F8942022F00502C0F89420D0F8982094
:101BD00022F00102C0F89820064AC2600261026841
:101BE00022F48022026081617047000008ED00E06D
:101BF000FBFEF6FA00100422FEF734BB70B5026853
:101C0000164B4FF08046984201D0B04203D122F0EB
:101C100070044A682243124C124D984205D0B042DB
:101C200003D0A04201D0A84203D122F44076CA6872
:101C300032434E6922F08002324302608A68C262F7
:101C40000A688262984203D0A04201D0A84201D122
:101C5000096901630121416170BD0000002C014050
:101C6000004401400048014030B5416EB9B10268FE
:101C700091689268C1F342610B4B520F9C5CE50086
:101C800003F10804A25CB5FBF2F2A0F86A205A5CEA
:101C9000615CD200B2FBF1F1A0F8681030BD012107
:101CA000A0F86A10F8E700007822000890F82810E1
:101CB000C90706D001684A68C36A22F400321A4391
:101CC0004A6090F82810890706D501684A68036BB6
:101CD00022F480321A434A6090F82810490706D54A
:101CE00001684A68436B22F480221A434A6090F8E4
:101CF0002810090706D501684A68836B22F4004260
:101D00001A434A6090F82810C90606D501688A6807
:101D1000C36B22F480521A438A6090F82810890617
:101D200006D501688A68036C22F400521A438A605F
:101D300090F82810490611D501684A68436C22F4CE
:101D400080121A434A60416CB1F5801F06D10168C8
:101D50004A68836C22F4C0021A434A6090F8281043
:101D6000090606D501684A68C06C22F400220243C5
:101D70004A607047F8B500260446C0F88C60FEF74C
:101D800001FC0546206800686FF07E47000708D513
:101D90002B4600224FF400112046009700F01AF95C
:101DA00060B92068006840070AD52B4600224FF42E
:101DB00080012046009700F00DF908B10320F8BD1E
:101DC0002020C4F88400C4F8880044F86C6F002018
:101DD0002675F8BD2DE9F041044600682269A16826
:101DE000E66911436269002532431143724B026870
:101DF000724E32400A43026020684168E26821F472
:101E00004051114341602168A069994201D0226A82
:101E100010438A686A4E324002438A602068C16A71
:101E2000626A21F00F011143C1626649D4F800C013
:101E30004FF0B0408C450DD1D0F8880010F0030071
:101E400006D001281DD0022819D003281BD112E08A
:101E5000012119E09C4516D1D0F888004FF440616B
:101E600010F4406009D0B0F5806F0AD0B0F5006F73
:101E700005D0884207D1082106E0002104E00221B4
:101E800002E0042100E010214F4A504F00264FF499
:101E900000409C4531D131B1022907D0042907D037
:101EA00008297AD107E0FEF71FFE03E0104602E0A2
:101EB000FEF73EFE78B3616A37F811206768B0FB21
:101EC000F2F107EB47038B4267D8B1EB073F64D8C9
:101ED00000231946FEF750F9090241EA1061020297
:101EE0007808101871413A460023FEF745F9384A40
:101EF000A0F54071914252D94FE0E3694FF6EF7877
:101F000083422AD1012907D0022908D0042908D008
:101F1000082942D108E041E0FEF7F8FD03E0104651
:101F200002E0FEF705FEC8B3616A37F81110B0FB96
:101F3000F1F04100606801EB5001B1FBF0F080B2BC
:101F4000A0F11001414528D84FF6F0710140C0F3CF
:101F5000420001432068C16023E0012906D0022924
:101F600007D0042907D0082917D107E0FEF7CEFDD6
:101F700003E0104602E0FEF7DBFD78B1616A37F856
:101F80001110B0FBF1F1606801EB5001B1FBF0F012
:101F900080B2A0F11001414501D9012501E021687D
:101FA000C8600120A4F86A0024F8680F2846A660DB
:101FB000E660BDE8F081000000800040F369FFCFDB
:101FC000FFF4FF11003801400024F40060220008F3
:101FD000FFFC0F002DE9F0479A4617460E460446CF
:101FE0004FF000094FF02008089D4AE0681C48D0D7
:101FF000FEF7C8FAA0EB0A00A8422AD84DB3206821
:10200000016849073DD5C069C043000539D421683E
:102010004FF400600862206850E8001F21F4D0717E
:1020200040E80012002AF6D12068083050E8001F6E
:1020300021F0010140E80012002AF5D144F8848F14
:10204000C4F80480C4F8088004F8049C0320BDE8A8
:10205000F087216851E8000F20F4D07041E80002B9
:10206000002AF6D12068083050E8001F21F0010155
:1020700040E80012002AF5D144F8848FC4F80480A7
:10208000E2E72068C06936EA000004D00020B842C8
:10209000ACD00020DBE70120F9E7FEE7014A024966
:1020A00000F023B845210008400000200907090E70
:1020B000002804DB00F1E02080F80014704700F0F5
:1020C0000F0000F1E02080F8141D704702E008C8FE
:1020D000121F08C1002AFAD170477047002001E0A2
:1020E00001C1121F002AFBD170472DE9F0411646AD
:1020F0000F460446002503E03946B047641C6D1CBA
:1021000020780028F8D12846BDE8F08138B50C4980
:1021100000208DF800000968082008624FF6FF745F
:102120002346012269460648FFF768F92346012243
:1021300069460348FFF7DFF99DF8000038BD00004D
:102140004400002013B54FF6FF7301226946024890
:10215000FFF7D1F900981CBD4400002008B5FEF738
:1021600025FAFFF7CFFCFFF796FB4FF0B040C16CAC
:1021700041F00201C164C06C00F002000090FFF762
:10218000B3FAFEF77DF8FEF7D5F81348FFF786FFA0
:1021900012A0FFF783FF2048FFF780FF1FA0FFF783
:1021A0007DFF2748002000BF2648FFF7AFFFC0B2E1
:1021B0000A2801D00D28F7D123A0FFF76FFF204890
:1021C000002000BF2548002101708170222141704C
:1021D000FEF7B7F8FEE70000542300082A2A20542F
:1021E000686973206D65737361676520697320701A
:1021F00072696E746564207573696E6720707269A8
:102200006E746628292066756E6374696F6E2E2061
:102210002A2A200A0D000000A4230008456E7465D8
:1022200072206120737472696E67207468656E2015
:10223000707265737320454E544552200A0D00009C
:10224000400000203C0000200A0D456E64206F66AF
:10225000206578616D706C650A0D00000800002033
:10226000010002000400060008000A000C00100033
:10227000200040008000000101010103070100006F
:1022800008040204080101011200000024000000FB
:102290003600000040000000060000000C000000B6
:1022A000100000000000000001000000020000001B
:1022B0000300000001000000030000000500000012
:1022C0000100000001000000060000000A000000FC
:1022D00020000000020000000400000008000000D0
:1022E000100000004000000080000000000100001D
:1022F00000020000A0860100400D0300801A0600C5
:1023000000350C0040420F0080841E0000093D0093
:1023100000127A000024F40000366E010048E80143
:10232000006CDC0200000000000000000000000063
:10233000000000000000000000000000000000009D
:102340000000000001000000020000000300000087
:10235000040000000A0D2055415254205072696E4D
:102360007466204578616D706C653A2072657461A1
:1023700072676574207468652043206C69627261BD
:102380007279207072696E74662066756E63746906
:102390006F6E20746F2074686520554152540A0D89
:1023A000000000000A0D2055415254204765746317
:1023B000686172204578616D706C653A2072657451
:1023C0006172676574205541525420696E7075744E
:1023D00020746F207468652043206C69627261729A
:1023E0007920676574636861722066756E637469CD
:1023F0006F6E0A0D0000000018240008080000207D
:102400003C000000CC2000085424000844000020B8
:10241000EC040000DC2000080000000001000000C7
:10242000100000000000000000093D000000000056
:1024300000000000000800480008004847030008AA
:10244000510300080F0000000F0000000000000012
:042450000000000088
:040000050800013DB1
:00000001FF
