:020000040800F2
:100000003805002055010008170700080D020008F8
:1000100015070008EF010008F508000800000000BF
:10002000000000000000000000000000D9070008E8
:10003000F1010008000000004B070008DB07000882
:100040006F0100086F0100086F0100086F010008D0
:100050006F0100086F0100086F0100086F010008C0
:100060006F0100086F010008F50100086F0100082A
:100070006F0100086F0100086F0100086F010008A0
:100080006F0100086F0100086F0100086F01000890
:100090006F0100086F0100086F0100086F01000880
:1000A0006F0100086F0100086F0100086F01000870
:1000B0006F0100086F0100086F0100086F01000860
:1000C0006F0100086F0100084D0700086F0100086C
:1000D0006F0100086F0100086F0100086F01000840
:1000E0006F0100086F0100086F0100086F01000830
:1000F0006F0100086F0100086F0100086F01000820
:100100006F0100086F0100086F0100086F0100080F
:100110006F0100086F0100086F0100086F010008FF
:100120006F0100086F0100086F0100086F010008EF
:100130006F0100086F0100086F010008DFF810D0A0
:1001400000F02CF800480047E5090008AFF30080F4
:10015000380500200648804706480047FEE7FEE7CE
:10016000FEE7FEE7FEE7FEE7FEE7FEE7FEE7FEE767
:10017000910800083D010008D2B201E000F8012B0F
:10018000491EFBD270470022F6E710B513460A4617
:1001900004461946FFF7F0FF204610BD064C074DF8
:1001A00006E0E06840F0010394E807009847103447
:1001B000AC42F6D3FFF7C6FF400A0008600A000809
:1001C0000248016841F04001016070470030014081
:1001D00010B507E003780C78A34201D0012010BDD0
:1001E000401C491C521ED2B2F4D2002010BDFEE7C2
:1001F00070470000044910200A68904303D1102082
:10020000086000F079BB70470C080058FEE700005A
:10021000064C054601206169884301F0010140EA6E
:100220000140A061284600F091F9F3E7000400487E
:1002300008B54FF0B041CA6C0243CA64C96C0140B2
:10024000009108BDF0B54D4A4C4C077A103200269B
:10025000251F131F0168002F71D091B1477A3FB35A
:10026000012F2DD0022F2ED00126857A4DB1434982
:1002700080390C1F012D2ED0022D35D0032D39D001
:1002800001264168002967D0447A8CB3012C42D002
:10029000022C43D00126837A5BB3384960390A1FA8
:1002A000012B43D0022B4BD0032B4DD0012653E022
:1002B00027688F43276001682C680C432C60D4E7C3
:1002C0002F688F4301E02F680F432F600168256876
:1002D0000D432560C9E705680F68AF430F600168EB
:1002E00025680D432560CCE705682768AF4304E027
:1002F00009E031E0056827682F43276004680D682E
:1003000025430D60BDE714688C43146041681A688A
:100310000A431A60BFE71C688C4301E01C680C4369
:100320001C60416813680B431360B4E743680C68B2
:100330009C430C6040681168014311600CE00DE0C3
:10034000436814689C4302E0436814681C431460CB
:1003500040680A6802430A603046F0BD2F688F4348
:100360002F60016825688D43256041681C688C43B7
:100370001C60406811688143DFE700008408005872
:10038000F0B50A680F2692FAA2F2B2FA82F30324B9
:100390008AE001279F4015EA07027DD04D68012DB4
:1003A00001D0022D1BD18D68876892FAA2FCBCFA9D
:1003B0008CFC4FEA4C0C04FA0CFC27EA0C0792FA6E
:1003C000A2FCBCFA8CFC4FEA4C0C05FA0CF52F434E
:1003D0008760CD684768554397432F4347600F694F
:1003E000D0F80CC092FAA2F5B5FA85F54FEA450EA1
:1003F00004FA0EF52CEA050C92FAA2F5B5FA85F589
:100400006D00AF404CEA070CC0F80CC04D68022DDF
:1004100033D192FAA2F5B5FA85F5082D15D2D1F8A7
:1004200014C0056A92FAA2F7B7FA87F7BF0006FA76
:1004300007F7BD4392FAA2F7B7FA87F7BF000CFAA5
:1004400007FC45EA0C05056217E0D1F814E0476A9D
:10045000150A95FAA5FCBCFA8CFC4FEA8C0C06FA3E
:100460000CFC95FAA5F5B5FA85F5AD0027EA0C0761
:100470000EFA05FE47EA0E0747624D68076892FAD2
:10048000A2FCBCFA8CFC4FEA4C0C04FA0CFE27EAE6
:100490000E0792FAA2F200E005E0B2FA82F25200F0
:1004A00095402F4307605B1C0A681546DA407FF4CD
:1004B00070AF0020F0BD4FF47A71B0FBF1F14FF056
:1004C000E020491E416100218161052101617047E1
:1004D00010B503680122C3F3801373BBD1E9002375
:1004E0001A43D1E9033423431A434B691A438B69F6
:1004F0001A43CB691A430B6A1A4303684FF6BF7459
:10050000A3431A430260426840F604739A434B695E
:1005100042EA13428B681A4342608A68B2F5006F60
:1005200003D2426842F4805242600A6AB2F5005F28
:1005300002D1898C89B201610022104610BD0000F1
:100540000149086070470000A000002008B54FF086
:10055000E0210A690092421C00D0401C0A69D203C3
:1005600000D5401E0028F9D108BD0000F0B589B0C3
:10057000002406940794182168460894FFF703FEA8
:100580000120FFF755FE0420FFF752FE0220FFF77F
:100590004FFE2F4F0120B8622E49022001268A68A3
:1005A0000F2393FAA3F3B3FA83F303F00F0322F0BC
:1005B0000F02984002438A6010258DF82060CDE933
:1005C00006548DF8214002208DF8220006A8FFF77E
:1005D00039FE2148C26895FAA5F1B1FA81F14B00C4
:1005E000032101FA03F39A4395FAA5F3B3FA83F3CF
:1005F0005B0006FA03F31A43C260026895FAA5F39A
:10060000B3FA83F35B0099408A4395FAA5F1B1FAF6
:1006100081F1490004FA01F10A4302600096CDE934
:1006200001640394694638460494FFF7A9FE0B4819
:1006300000680022C0F30220114600F06DF8014668
:100640000A2000F0B0F90A2000F0A0F909B0F0BDCE
:100650000004004804000140000800480CED00E0E0
:1006600030B591B028216846FFF78DFD18210AA802
:10067000FFF789FD4FF0B040016E41F480510166F3
:10068000006E00F4805010900120FFF7D1FD02248D
:10069000E020CDE90A040520CDE90E400025CDE992
:1006A0000C450AA94FF09040FFF76AFE1748006812
:1006B0000022C0F30220114600F02EF8014622204D
:1006C00000F071F9222000F061F94FF48270CDE959
:1006D00000504FF4E060CDE9020401200490400294
:1006E00005903820CDE906050720CDE90850084CD3
:1006F00069462046FFF7ECFE606820F0100060605D
:10070000606820F00800606011B030BD0CED00E0C2
:1007100000300140FEE7704730B500F00703C3F139
:100720000704042C00D90424181D072801D2002333
:1007300000E0DB1E012505FA04F0401E0840984049
:100740009D406D1E1540284330BD70470A488168A2
:1007500011F0010F01D000F011B88168C1F3400120
:1007600009B100F02BB88068C0F38010002801D0D8
:1007700000F014B870470000003001400448027BCC
:1007800004490879044B0344401C08711A707047EF
:100790000030014008000020A40000200648416805
:1007A00021F040014160416821F0800141604FF437
:1007B0007A70FFF72DFD0000003001400549044A22
:1007C00088784B1D0344401C88701878107370475C
:1007D000003001400800002070477047284810B5DD
:1007E000016821F0070141F0030101604FF0B040C2
:1007F000016841F0010101600168C1F34001002975
:10080000FAD02049C268204B1A401143C1600168E8
:1008100041F080710160C16841F08051C1600168A0
:10082000C1F340610029FAD0816821F0F0018160B4
:10083000D0F8081121F0F00141F08001C0F8081152
:10084000816841F003018160816801F00C010C298D
:10085000FAD1D0F8081121F00F01C0F80811816811
:1008600021F4E0618160816821F460518160074C6E
:100870002046FFF720FE2046BDE81040FFF760BE8F
:1008800000400058012000208C80FF1F0090D00302
:1008900015480021016014488030026842F470025B
:1008A00002604FF0B040026842F0010202604FF473
:1008B000E022826002680D4B1A400260D0F894205A
:1008C00022F00502C0F89420D0F8982022F001020E
:1008D000C0F89820064AC2600261026822F48022B1
:1008E000026081617047000008ED00E0FBFEF6FA4F
:1008F00000100422FEE70000014901200870704743
:1009000008000020104910B54A788B789342FCD13A
:100910000E48436823F080034360CB780C79A342F0
:10092000FCD8416821F04001416007480849401D5A
:10093000FFF74EFC18B14FF47A70FFF769FC0549D8
:100940000120886110BD0000080000200030014037
:10095000A40000200004004870B50A4C0A4D0AE0CB
:1009600060690121814300F0010041EA0040A0617B
:10097000C820FFF7EBFD28780028F1D00120A06205
:1009800070BD00000004004808000020002809DBBA
:1009900000F01F02012191404009800000F1E02099
:1009A000C0F8001170470907090E002804DB00F1A8
:1009B000E02080F80014704700F00F0000F1E02004
:1009C00080F8141D704702E008C8121F08C1002AF1
:1009D000FAD170477047002001E001C1121F002AC0
:1009E000FBD17047134908684FF6FF021040124AC6
:1009F00040F4407010430860FFF7F0FEFFF7B6FDCB
:100A0000FFF72EFE0D48416841F480514160416876
:100A100041F080014160416841F04001416041681E
:100A200041F020014160FFF797FFFFF7C9FBFFF797
:100A300069FFFEE70CED00E00000FA050030014020
:100A4000600A0008080000209C000000C609000899
:100A5000FC0A0008A400002094040000D609000845
:100A600000920092002A2A2A2A205350495F547784
:100A70006F426F617264735F46756C6C4475706C25
:100A800065785F495420636F6D6D756E696361743D
:100A9000696F6E202A2A2A2A205350495F54776FA3
:100AA000426F617264735F46756C6C4475706C65FF
:100AB000785F495420636F6D6D756E696361746909
:100AC0006F6E202A2A2A2A205350495F54776F429A
:100AD0006F617264735F46756C6C4475706C657899
:100AE0005F495420636F6D6D756E69636174696FE2
:0C0AF0006E202A2A2A2A000000093D007E
:040000050800013DB1
:00000001FF
