:020000040800F2
:10000000C8040020550100087B08000831020008E0
:1000100079080008C1010008A90B000800000000D1
:10002000000000000000000000000000E1090008DE
:10003000C301000800000000AF080008390A0008EA
:100040006F0100086F0100086F0100086F010008D0
:100050006F0100086F0100086F0100086F010008C0
:100060006F0100086F010008C50100086F0100085A
:100070006F0100086F0100086F0100086F010008A0
:100080006F0100086F0100086F0100086F01000890
:100090006F0100086F0100086F0100086F01000880
:1000A0006F0100086F0100086F0100086F01000870
:1000B0006F0100086F0100086F0100086F01000860
:1000C0006F0100086F0100086F0100086F01000850
:1000D000550B00086F0100086F0100086F01000850
:1000E0006F0100086F0100086F0100086F01000830
:1000F0006F0100086F0100086F0100086F01000820
:100100006F0100086F0100086F0100086F0100080F
:100110006F0100086F0100086F0100086F010008FF
:100120006F0100086F0100086F0100086F010008EF
:100130006F0100086F0100086F010008DFF810D0A0
:1001400000F02CF800480047810C0008AFF3008055
:10015000C80400200648804706480047FEE7FEE73F
:10016000FEE7FEE7FEE7FEE7FEE7FEE7FEE7FEE767
:10017000F10A00083D010008D2B201E000F8012BAD
:10018000491EFBD270470022F6E710B513460A4617
:1001900004461946FFF7F0FF204610BD064C074DF8
:1001A00006E0E06840F0010394E807009847103447
:1001B000AC42F6D3FFF7C6FF940D0008B40D00085B
:1001C000FEE77047044910200A68904303D11020CD
:1001D000086000F0EBBC70470C0800580B4A08B5EB
:1001E00004201021C2F88011BFF34F8FBFF36F8F2F
:1001F000074909680091490703D505491C39086278
:1002000008BD4FF47A7000F015F8000004E000E03B
:100210001C38014005488168002905D00021816013
:100220000C21C06800F0C8BC704700000800002026
:10023000FEE70000064C054601206169884301F095
:10024000010140EA0140A061284600F00BFAF3E703
:100250000004004808B54FF0B041CA6C0243CA64BC
:10026000C96C0140009108BDF0B54D4A4C4C077A6D
:1002700010320026251F131F0168002F71D091B185
:10028000477A3FB3012F2DD0022F2ED00126857A39
:100290004DB1434980390C1F012D2ED0022D35D090
:1002A000032D39D001264168002967D0447A8CB3E8
:1002B000012C42D0022C43D00126837A5BB338490B
:1002C00060390A1F012B43D0022B4BD0032B4DD09A
:1002D000012653E027688F43276001682C680C4390
:1002E0002C60D4E72F688F4301E02F680F432F6005
:1002F000016825680D432560C9E705680F68AF43AD
:100300000F60016825680D432560CCE70568276804
:10031000AF4304E009E031E0056827682F43276018
:1003200004680D6825430D60BDE714688C431460B4
:1003300041681A680A431A60BFE71C688C4301E0F1
:100340001C680C431C60416813680B431360B4E7DE
:1003500043680C689C430C6040681168014311605D
:100360000CE00DE0436814689C4302E043681468A5
:100370001C43146040680A6802430A603046F0BDBE
:100380002F688F432F60016825688D432560416881
:100390001C688C431C60406811688143DFE70000E3
:1003A00084080058F0B50A680F2692FAA2F2B2FA51
:1003B00082F303248AE001279F4015EA07027DD0DB
:1003C0004D68012D01D0022D1BD18D68876892FAEE
:1003D000A2FCBCFA8CFC4FEA4C0C04FA0CFC27EA99
:1003E0000C0792FAA2FCBCFA8CFC4FEA4C0C05FA02
:1003F0000CF52F438760CD684768554397432F43DB
:1004000047600F69D0F80CC092FAA2F5B5FA85F5ED
:100410004FEA450E04FA0EF52CEA050C92FAA2F505
:10042000B5FA85F56D00AF404CEA070CC0F80CC07A
:100430004D68022D33D192FAA2F5B5FA85F5082D53
:1004400015D2D1F814C0056A92FAA2F7B7FA87F765
:10045000BF0006FA07F7BD4392FAA2F7B7FA87F78B
:10046000BF000CFA07FC45EA0C05056217E0D1F85D
:1004700014E0476A150A95FAA5FCBCFA8CFC4FEA11
:100480008C0C06FA0CFC95FAA5F5B5FA85F5AD00CD
:1004900027EA0C070EFA05FE47EA0E0747624D6889
:1004A000076892FAA2FCBCFA8CFC4FEA4C0C04FAE6
:1004B0000CFE27EA0E0792FAA2F200E005E0B2FA7B
:1004C00082F2520095402F4307605B1C0A68154674
:1004D000DA407FF470AF0020F0BD4FF47A71B0FBCA
:1004E000F1F14FF0E020491E4161002181610521B9
:1004F0000161704710B54FF0B0410024D1F8881069
:10050000014001290AD002290CD0032910D000F0A3
:1005100005FA00F0E5F900F0F1F901E000F0FEF96C
:1005200004460AE000F014F8012806D1044C04E067
:1005300000F014F8012800D1C403204610BD0000CB
:100540000024F4004FF0B0400068C0F30050704742
:100550004FF0B0400068C0F3802070474FF0B040CB
:10056000D0F89000C0F3400070474FF0B0400068F2
:1005700000F0F000B02800D9B02070474FF0B04034
:10058000C06800F0700070474FF0B040C06800F0E5
:10059000030070474FF0B040C068C0F306207047BA
:1005A0000149086070470000AC0000202DE9F041CF
:1005B000044600680D46012610F0010F3AD1296962
:1005C000A868EA6908436969114308432168224A17
:1005D000114008432060E868616821F440510143FC
:1005E0006160A869A16821F440710143A1601B48C2
:1005F000844218D10320FFF77DFF010013D0686803
:1006000088B12A68164F92B2EB6937F8122000269B
:10061000B1FBF2F1B3F5004F0FD001EB5001B1FB8C
:10062000F0F080B2E0602888E16A80B221F00F012A
:100630000143E1623046BDE8F081490001EB500121
:10064000B1FBF0F081B24FF6F07201EA0200C1F3A3
:1006500042010843E6E70000F369FFEF003801407C
:10066000DC0C000808B54FF0E0210A690092421C3A
:1006700000D0401C0A69D20300D5401E0028F9D1E1
:1006800008BD0000F0B589B0002406940794182135
:1006900068460894FFF777FD0120FFF7DBFD042093
:1006A000FFF7D8FD0220FFF7D5FD2F4F0120B862DC
:1006B0002E49022001268A680F2393FAA3F3B3FA86
:1006C00083F303F00F0322F00F02984002438A6085
:1006D00010258DF82060CDE906548DF821400220C8
:1006E0008DF8220006A8FFF7BFFD2148C26895FAE1
:1006F000A5F1B1FA81F14B00032101FA03F39A430A
:1007000095FAA5F3B3FA83F35B0006FA03F31A43F1
:10071000C260026895FAA5F3B3FA83F35B009940CF
:100720008A4395FAA5F1B1FA81F1490004FA01F181
:100730000A4302600096CDE9016403946946384695
:100740000494FFF72FFE0B4800680022C0F302203C
:100750000F2100F093F801460A2000F072FA0A20F7
:1007600000F062FA09B0F0BD000400480400014046
:10077000000800480CED00E010B590B0202168465C
:10078000FFF701FD182108A8FFF7FDFC4FF0B0406E
:10079000016E41F480410166006E00F480400E90CD
:1007A0000120FFF757FD4FF4C0600890022000249D
:1007B000CDE90A04099001200C9007200D9008A9AA
:1007C0004FF09040FFF7EEFD294800680022C0F38B
:1007D0000220114600F052F80146242000F031FAC0
:1007E000242000F021FA4FF4E130CDE900400C2044
:1007F000CDE9044002940394069407941D4C694685
:100800002046FFF7D3FE002204F1080050E8001F45
:1008100062F35F7140E80013002BF7D1002104F16F
:10082000080000BF50E8002F22F0606242EA4162F7
:1008300040E80023002BF5D1206820F00050206014
:10084000606820F490406060A06820F02A00A060FA
:10085000206840F001002060E069C0F340500028AB
:10086000FAD0E069C0F380500028F5D010B010BD78
:100870000CED00E000380140FEE7704730B500F0B5
:100880000703C3F10704042C00D90424181D07280A
:1008900001D2002300E0DB1E012505FA04F0401E12
:1008A000084098409D406D1E1540284330BD70475C
:1008B00010B50022094B08E0DC69C4F3C014002C19
:1008C000FAD010F8014B9C62521C8A42F4D3D869CA
:1008D000C0F380100028FAD010BD0000003801409D
:1008E0004FF0B0418968044A01F0F00102EB910138
:1008F0000968B0FBF1F07047F40C00084FF0B0410C
:100900008968054A01F4605102EB5121097801F030
:100910001F01C84070470000740D000810B54FF06B
:10092000B04080680F4C10F00C0005D004280BD0AC
:1009300008280BD00C2811D0FFF717FE00F0F000AC
:1009400004EB9000006810BD074810BDFFF7FAFDEA
:10095000012801D0054810BD054810BDBDE8104074
:1009600000F008B8340D00080024F40000127A00EA
:1009700000093D0010B5FFF707FE154C012803D014
:1009800002281BD003281BD0FFF7EFFD00F0F0007A
:1009900004EB9000D0F80040FFF7FCFD4443FFF764
:1009A000EDFD012101EB1010B4FBF0F24FF0B0406F
:1009B000C06801EB5070B2FBF0F010BD054CEBE7E6
:1009C000FFF7C0FD012801D0034CE5E7034CE3E746
:1009D000340D00080024F40000127A0000093D00E4
:1009E00070470000124800B5104901610C31C16028
:1009F00000214160816040211430FFF759FF0D480C
:100A00000821016250E8001F41F0200140E8001376
:100A1000002BF7D110F1080050E8001F41F0010150
:100A200040E80012002AF7D100BD0000B00000200D
:100A3000080000200038014070470000284810B529
:100A4000016821F0070141F0030101604FF0B0405F
:100A5000016841F0010101600168C1F34001002912
:100A6000FAD02049C268204B1A401143C160016886
:100A700041F080710160C16841F08051C16001683E
:100A8000C1F340610029FAD0816821F0F001816052
:100A9000D0F8081121F0F00141F08001C0F80811F0
:100AA000816841F003018160816801F00C010C292B
:100AB000FAD1D0F8081121F00F01C0F808118168AF
:100AC00021F4E0618160816821F460518160074C0C
:100AD0002046FFF702FD2046BDE81040FFF760BD4D
:100AE00000400058012000208C80FF1F0090D003A0
:100AF00015480021016014488030026842F47002F9
:100B000002604FF0B040026842F0010202604FF410
:100B1000E022826002680D4B1A400260D0F89420F7
:100B200022F00502C0F89420D0F8982022F00102AB
:100B3000C0F89820064AC2600261026822F480224E
:100B4000026081617047000008ED00E0FBFEF6FAEC
:100B5000001004220648C169C1F3401129B10068A0
:100B6000C0F3401008B100F005B8FFF737BB000034
:100B7000003801400A4810B5436A0A4841680269D2
:100B80005418491C4160237041680C2906D3012187
:100B90008160C168C0E903210021416010BD0000EF
:100BA0000038014008000020FEE700000149012054
:100BB000087070470800002030B50C46054621211A
:100BC0000A48FFF775FE21462846FFF771FE0748E1
:100BD0002F212130FFF76CFE054A0120516988431F
:100BE00001F0010140EA0140906130BD5C0000204D
:100BF0000004004870B50A4C0A4D0AE06069012102
:100C0000814300F0010041EA0040A061C820FFF7E5
:100C100029FD28780028F1D00120A06270BD0000D5
:100C20000004004808000020002809DB00F01F0233
:100C3000012191404009800000F1E020C0F800113E
:100C400070470907090E002804DB00F1E02080F856
:100C50000014704700F00F0000F1E02080F8141D30
:100C6000704702E008C8121F08C1002AFAD1704775
:100C70007047002001E001C1121F002AFBD170471C
:100C8000124908684FF6FF021040114A40F44070C4
:100C900010430860FFF7D2FEFFF7F4FCFFF76CFD8E
:100CA0000C48C169C1F340510029FAD0C169C1F3B0
:100CB00080510029F5D0084901208862FFF79AFF8A
:100CC000FFF790FEFFF7A6FAFCE700000CED00E04E
:100CD0000000FA050038014000040048010002004D
:100CE0000400060008000A000C001000200040006C
:100CF000800000010100000003000000050000006A
:100D00000100000001000000060000000A000000D1
:100D100020000000020000000400000008000000A5
:100D200010000000400000008000000000010000F2
:100D300000020000A0860100400D0300801A06009A
:100D400000350C0040420F0080841E0000093D0069
:100D500000127A000024F40000366E010048E80119
:100D6000006CDC0200000000000000000000000039
:100D70000000000000000000000000000000000073
:100D8000000000000100000002000000030000005D
:100D900004000000B40D000808000020A8000000B6
:100DA000620C00085C0E0008B0000020180400006F
:100DB000720C0008000000000000000000000000AD
:100DC00000000000000000000D0A5553415254205D
:100DD0004578616D706C65203A20456E74657220AF
:100DE0006368617261637465727320746F206669F1
:100DF0006C6C20726563657074696F6E20627566D5
:100E0000666572732E0D0A000D0A2D2043757272ED
:100E1000656E74205258206275666665722069732B
:100E20002066756C6C203A20000D0A2D20526563F7
:100E3000657074696F6E2077696C6C20676F206FC6
:100E40006E20696E20616C7465726E6174652062DB
:0C0E500075666665720D0A0000093D0021
:040000050800013DB1
:00000001FF
