:020000040800F2
:10000000C804002055010008051300080312000869
:10001000610100086301000865010008000000009C
:10002000000000000000000000000000E5130008D0
:10003000690100080000000007130008E71300082A
:100040006F0100086F0100086F0100086F010008D0
:100050006F0100086F0100086F0100086F010008C0
:100060006F0100086F0100086F0100086F010008B0
:100070006F0100086F0100086F0100086F010008A0
:100080006F0100086F0100086F0100086F01000890
:100090006F0100086F0100086F0100086F01000880
:1000A0006F0100086F0100086F0100086F01000870
:1000B0006F0100086F0100086F0100086F01000860
:1000C0006F0100086F0100086F0100086F01000850
:1000D0006F0100086F0100086F0100086F01000840
:1000E0006F0100086F0100086F0100086F01000830
:1000F0006F0100086F0100086F0100086F01000820
:100100006F0100086F0100086F0100086F0100080F
:100110006F0100086F0100086F0100086F010008FF
:100120006F0100086F0100086F0100086F010008EF
:100130006F0100086F0100086F010008DFF810D0A0
:1001400000F07CF800480047CD190008AFF30080AC
:10015000C80400200648804706480047FEE7FEE73F
:10016000FEE7FEE7FEE7FEE7FEE7FEE7FEE7FEE767
:10017000751400083D0100082DE9F05F05460020D8
:1001800092469B4688460646814640241BE0284608
:1001900041464746224600F041F853465A46C01AA7
:1001A000914110D311461846224600F028F82D1A26
:1001B00067EB01084F4622460120002100F01FF89E
:1001C00017EB00094E41201EA4F10104DFDC484674
:1001D00031462A464346BDE8F09FD2B201E000F81E
:1001E000012B491EFBD270470022F6E710B51346DB
:1001F0000A4604461946FFF7F0FF204610BD202AA4
:1002000004DB203A00FA02F1002070479140C2F16D
:10021000200320FA03F3194390407047202A04DB9F
:10022000203A21FA02F00021704721FA02F3D0406F
:10023000C2F120029140084319467047064C074D11
:1002400006E0E06840F0010394E8070098471034A6
:10025000AC42F6D3FFF776FF5C1C00087C1C00085C
:1002600070B586B0044614216846FFF7BDFF022032
:1002700000F0C8FF0C4E0D4D694636F81400009092
:1002800001200190002002900220039055F82400E4
:1002900000F020F836F8141055F82400002200F081
:1002A00019F906B070BD0000B81A00080800002057
:1002B0000449054A31F8101052F82000012200F0DC
:1002C00009B90000B81A0008080000200220FFF752
:1002D000EFFFFEE72DE9F04FDFF8E0B1DFF8DC914A
:1002E0000023012503240BF1800B85B00F2709F1B2
:1002F000040A0BF1040ED9E005FA03FC12EA0C0221
:100300007ED00E7906F00306012E01D0022E20D1F8
:10031000866800965E0004FA06F80496009E26EAB7
:1003200008060096D1F80C80049E08FA06F8009E94
:1003300048EA0608C0F80880466826EA0C0691F8E4
:1003400004C0CCF3001C0CFA03FC4CEA060CC0F809
:1003500004C00E79F643B6070DD0D0F80CC04FEAB2
:10036000430804FA08F62CEA060C8E6806FA08F62A
:1003700046EA0C06C6600E7906F00306022E15D179
:10038000DE0800EB86060296366A4FEA437C4FEAA7
:10039000DC6807FA08FC26EA0C06D1F810C00CFA53
:1003A00008FC4CEA060C029EC6F820C0D0F800C03B
:1003B0004FEA430804FA08F62CEA060C0E7906F018
:1003C000030606FA08F646EA0C0606604E6816F4BE
:1003D000403F6AD03A4E23F0030C66440296B6685A
:1003E0004FEA837C4FEA1C7807FA08FC26EA0C06E1
:1003F000B0F1904F08D0DFF8CCC0604507D100E0E5
:1004000053E04FF0010C19E04FF0000C16E0DFF85C
:10041000B8C0604502D14FF0020C0FE0DFF8ACC06D
:10042000604502D14FF0030C08E0DFF8A4C060453E
:1004300002D14FF0040C01E04FF0070C0CFA08FC5D
:100440004CEA060C029EC6F808C0D9F80060CC46FB
:10045000D1F8048096435FEAC82800D51643CCF84B
:100460000060DAF80060D446D1F8048096435FEA71
:10047000882800D51643CCF80060DBF80060DC4625
:10048000D1F8048096435FEAC83800D51643CCF80B
:100490000060DEF80060F446D1F8048096435FEA1D
:1004A000883800D51643CCF800605B1C0A6832FA25
:1004B00003F67FF421AF05B0BDE8F08F00080058C7
:1004C000000001400004004800080048000C0048FB
:1004D000001000480AB181617047816270470000D6
:1004E00001488068704700002000002001484068F3
:1004F0007047000020000020024881680278114403
:100500008160704720000020094810B50168002470
:1005100041F480710160032000F04EF8002000F0EB
:1005200009F808B1012401E000F024F8204610BDCC
:100530000040005870B50E4E054600243078A0B13A
:1005400000F058F931784FF47A72B2FBF1F1B0FB58
:10055000F1F000F095FC40B9102D06D2002229469A
:10056000501E00F009F8756000E00124204670BDBF
:100570002000002070470000F0B40E4B1B680C46B2
:10058000C3F30223C3F10705042D00D90425191D67
:10059000072901D2002300E0DB1E012606FA05F13F
:1005A000491E214099409E40761E16403143F0BCC2
:1005B00001F0B4B90CED00E0064900F0070208684C
:1005C0004FF6FF03184040EA0220034A1043086038
:1005D000704700000CED00E00000FA0502480068DA
:1005E00000F4C06070470000000400580248016831
:1005F00041F4807101607047000400582DE9F0411A
:100600000F46050077D0794E306800F00700B842F9
:1006100012D2306820F0070038433060FFF760FFE7
:10062000044604E0FFF75CFF001B02287DD8306819
:1006300000F00700B842F5D128784FF0B0448007A9
:1006400015D5A868A16821F0F0010143A160FFF76A
:1006500047FF804606E000BFFFF742FFA0EB08001F
:10066000022862D8A068C0F300400028F4D028789F
:10067000800617D56869D4F8081121F0F00101430C
:10068000C4F80811FFF72CFF804605E0FFF728FFAC
:10069000A0EB0800022848D8D4F80801C0F3404075
:1006A0000028F3D02878400618D5A869D4F8081196
:1006B00021F00F0141EA1010C4F80801FFF710FF04
:1006C000804605E0FFF70CFFA0EB080002287CD86D
:1006D000D4F80801C0F300400028F3D02878400780
:1006E00015D5E868A16821F4E0610143A160FFF736
:1006F000F7FE804606E046E0FFF7F2FEA0EB0800BA
:10070000022862D8A068C0F340400028F4D02878BE
:10071000000716D52869A16821F4605141EAC0019B
:10072000A160FFF7DDFE804606E04EE0FFF7D8FE51
:10073000A0EB0800022848D8A068C0F38040002839
:10074000F4D02878C0072CD06868022805D0032888
:1007500006D0A8B100F06CFD05E000F063FD02E0FA
:100760002068C0F3406070B16868A16821F003019F
:100770000143A160FFF7B4FE044641F288380AE065
:1007800000F075FDEFE70120BDE8F081FFF7A8FE5E
:10079000011B414519D800F03FFD6968B0EB810F9E
:1007A000F4D1306800F00700B84215D9306820F065
:1007B000070038433060FFF793FE044607E000BFB0
:1007C000FFF78EFE001B022801D90320DCE730680A
:1007D00000F00700B842F3D100F00CF804490860BB
:1007E000FFF784FEBDE8F041FFF7A4BE00400058CB
:1007F0002C00002010B500F033F84FF0B0418968AC
:10080000044A01F0F00102EB91010968B0FBF1F03C
:1008100010BD0000181B000810B5FFF7EBFF4FF0EC
:10082000B0418968044A01F4E06102EB9111097852
:1008300001F01F01C84010BD981B000810B5FFF75C
:10084000D9FF4FF0B0418968044A01F4605102EBCE
:100850005121097801F01F01C84010BD981B000804
:100860002DE9F04100F0D8FC224F48B3224C042877
:100870002ED0A6104FEA64084FF0B045082829D0C2
:1008800000F00CFD022808D003282BD000F0E6FC75
:1008900000F0F00007EB90000468E868E968C0F336
:1008A0000620604301F07002012101EB1212B0FB3F
:1008B000F2F2E86801EB5070B2FBF0F0BDE8F081B5
:1008C00000F0CCFC00F0F00007EB90000068F5E7CA
:1008D0002046F3E72868C0F3005008B13046EDE742
:1008E0004046EBE72868C0F3005008B13446D4E72F
:1008F0004446D2E7581B00080024F4002DE9F041DB
:1009000004007DD020784FF0B045800661D500F01E
:1009100083FC064600F0C2FC76B10C2E01D1012802
:100920000AD0E0690028286842D040F00100286021
:10093000FFF7D6FD064630E000F099FC10B1E06903
:100940000028DED000F08AFC0146606A81420AD2AB
:1009500000F022FD002853D1606A00F097FC206A65
:1009600000F08BFC09E000F091FC206A00F085FCAF
:10097000606A00F011FD0028EDD1FFF73BFFF74959
:100980000860F7480068FFF7D5FD0028E3D120E0B4
:10099000FFF7A6FD801B022874D800F068FC002831
:1009A000F6D0606A00F072FC206A00F066FC10E08D
:1009B00020F001002860FFF793FD064605E000BF28
:1009C000FFF78EFD801B0228E6D800F050FC0028BF
:1009D000F6D12078C0073CD000F01EFC064600F09F
:1009E0005DFC082E13D00C2E01D103280FD06068B7
:1009F000B0F5803F286811D020F48030286000E0F6
:100A000008E26068C0B1FFF76BFD06460FE000F03A
:100A100009FCF0B16068002893D01AE040F48030FF
:100A2000ECE700BFFFF75CFD801B6428B4D800F042
:100A3000F9FB0028F6D00CE0FFF752FD064604E073
:100A4000FFF74EFD801B6428A6D800F0EBFB0028C2
:100A5000F6D1207880073CD500F0DEFB064600F09A
:100A60001DFC042E0FD00C2E01D102280BD0E06803
:100A7000002828681CD040F480702860FFF730FD03
:100A8000064610E03AE100F0D3FB10B1E068002820
:100A9000C2D0206900F0D2FB1BE000BFFFF720FDB1
:100AA000801B022890D800F0C3FB0028F6D0F0E7A6
:100AB00020F480702860FFF713FD064605E000BFB4
:100AC000FFF70EFD801B0228B0D800F0B1FB002814
:100AD000F6D12068010701D4C1064ED56169E1B3A2
:100AE000C0064BD500F0B3FB98B9D5F8940040F0A0
:100AF0000100C5F89400FFF7F3FC064605E000BFCF
:100B0000FFF7EEFC801B022890D800F0A0FB002825
:100B1000F6D0D5F8940040F00400C5F89400FFF733
:100B2000DFFC064605E000BFFFF7DAFC801B032868
:100B30008AD8D5F89400C0F3C0000028F4D0A0698A
:100B4000D5F8941021F4706141EA0020C5F89400B2
:100B5000D5F8940020F0010000E035E0C5F89400DD
:100B6000FFF7BEFC064604E0FFF7BAFC801B022834
:100B700098D800F06CFB0028F6D14EE0D5F8940030
:100B800040F00100C5F89400FFF7AAFC064604E017
:100B9000FFF7A6FC801B022884D800F058FB002831
:100BA000F6D0D5F8940020F00400C5F8940004E0D5
:100BB000FFF796FC801B032886D8D5F89400C0F375
:100BC000C0000028F4D128E0D5F8940020F00400FB
:100BD000C5F89400FFF784FC064604E0FFF780FCAC
:100BE000801B032890D8D5F89400C0F3C0000028DB
:100BF000F4D1D5F8940020F00100C5F89400FFF777
:100C00006FFC064605E000BFFFF76AFC801B022868
:100C100074D800F01CFB0028F6D12078400750D58E
:100C2000504F3868C0050DD4FFF7E0FCFFF758FCC3
:100C3000064604E0FFF754FC801B02285ED83868A3
:100C4000C005F7D5A068012816D00528D5F8900072
:100C500017D020F00100C5F89000D5F8900020F0E2
:100C6000040000BFC5F89000A06841F28836C8B102
:100C7000FFF736FC07460EE0D5F8900040F0010083
:100C8000F0E740F00400C5F89000F5E7FFF728FC16
:100C9000C01BB04232D8D5F89000C0F34000002805
:100CA000F4D00EE0FFF71CFC074604E0FFF718FC49
:100CB000C01BB04222D8D5F89000C0F340000028F5
:100CC000F4D1207840062ED5A06A0028D5F89800E7
:100CD00015D040F00100C5F89800FFF701FC06466A
:100CE00005E000BFFFF7FCFB801B022806D8D5F803
:100CF0009800C0F340000028F4D014E089E020F010
:100D00000100C5F89800FFF7EBFB064605E000BFC1
:100D1000FFF7E6FB801B02287BD8D5F89800C0F3CC
:100D200040000028F4D1E06AF0B300F075FA014603
:100D3000E868E26A022A19D00C296BD0286820F0F2
:100D400080702860E86820F00300E860E8680649E1
:100D50000840E860FFF7C4FB044687E02C00002051
:100D60002400002000040058FFFFFEEE236B00F07B
:100D700003029A421AD1636B00F070029A4215D1B5
:100D8000A26BC0F306239A4210D1E36B00F47812F1
:100D90009A420BD1236C00F060629A4206D1626CD9
:100DA00000F06040904200E056E03ED00C2962D056
:100DB000286840015FD4286820F080702860FFF721
:100DC0008FFB064605E000BFFFF78AFB801B022869
:100DD00049D828688001F7D4D4E90C010843D4E944
:100DE0000E2141EA02210843216C0843616C08434B
:100DF000E968224A11400843E860286840F08070A2
:100E00002860E86840F08050E860FFF769FB04461E
:100E100007E028E02FE000BFFFF762FB001B02287D
:100E200021D828688001F7D523E02868800120D4E4
:100E3000286840F080702860E86840F08050E860E2
:100E4000FFF74EFB044604E0FFF74AFB001B0228B5
:100E500009D828688001F7D50BE000BFFFF740FBF9
:100E6000001B022802D90320BDE8F0812868800118
:100E7000F4D40020F8E70120F6E700008C80C111CF
:100E800010B5401EB0F1807F01D3012010BD4FF09E
:100E9000E02460610F21601700F040FD0020A06198
:100EA00007202061002010BD90F88010012918D083
:100EB000012180F880102421C0F8841050F8641BB0
:100EC0000A680B6823F001030B6022F00051002236
:100ED000026050F8643C19602021016202771046DC
:100EE00070470220704770B5044690F880000128D2
:100EF0001DD0012084F880002420C4F884002068DC
:100F00000568026822F0010202602068826822F00F
:100F100060620A438260204600F0DEFA20680560C5
:100F20002020C4F88400002084F8800070BD0220D6
:100F300070BD70B5044690F8800001281DD00120D6
:100F400084F880002420C4F88400206805680268C2
:100F500022F0010202602068826822F060420A43A7
:100F60008260204600F0B8FA206805602020C4F8AE
:100F70008400002084F8800070BD022070BD10B590
:100F8000040003D0D4F8840010B107E0012010BDA4
:100F9000002084F88000204600F026F82420C4F8C1
:100FA00084002068016821F001010160204600F002
:100FB00049FB0128EBD0A06A10B1204600F0AEFA40
:100FC0002068416821F4904141602068816821F0E7
:100FD0002A0181602068016841F00101016020461A
:100FE000BDE8104000F0FEBA10B586B004461421EA
:100FF0006846FFF7F9F81349206888421FD14FF07F
:10100000B040016E41F480410166016E01F48041FF
:101010000591C16C41F00201C164C06C694600F0E9
:1010200002000590C0200090022001900120029053
:1010300000200390072004900348FFF74BF906B007
:1010400010BD000000380140000400482DE9F84FB1
:101050000446D0F888009A4616460D46202870D1DE
:101060000DB306B394F8800001286AD0012084F8FB
:1010700080004FF00008C4F88C802221C4F888104A
:10108000C4F86C802034FFF72BFAA6878146E687E8
:1010900054F8180C4FF48053FF21203C984208D19B
:1010A00022691AB11BE00120BDE8F88F40F2FF1160
:1010B00015E07F2288B1B0F1805F13D0A4F8608082
:1010C000B4F86070984201D1206990B12E46002595
:1010D00084F8808007F0FF0825E0266936B9A4F877
:1010E0006010EDE7216909B13F21F8E7A4F860201D
:1010F000E6E70026ECE74B46002220212046CDF80B
:1011000000A000F09FFB08B10320CDE72068406AF3
:1011100096B100EA080006F8010B00BFB4F85E00C3
:10112000401EA4F85E00B4F85E000028E3D1202041
:10113000C4F888000020B7E7384025F8020BEDE737
:10114000FFE70220B0E72DE9F8430446D0F8840019
:101150001F4616460D46202851D1DDB1D6B194F870
:10116000800001284BD0012084F880004FF0000857
:10117000C4F88C802120C4F884001834FFF7B0F93B
:10118000A6878146E68754F8100C183CB0F5805FBE
:1011900003D004E00120BDE8F883206920B12E4689
:1011A000002584F8808010E00026FAE780212046A0
:1011B00000F048FBB8B9C6B116F8010B2168886287
:1011C000B4F85600401EA4F85600B4F856004B463A
:1011D0004FF0000200970028E8D14FF04001204670
:1011E00000F030FB30B10320D5E735F8020BC0F337
:1011F0000800E3E72020C4F884000020CBE70220A9
:10120000C9E7FEE708B54FF0B041CA6C0243CA64B3
:10121000C96C0140009108BD4FF0B040806800F0FB
:101220000C0070474FF0B0400068C0F3404070477A
:101230004FF0B0400068C0F3802070474FF0B041DD
:101240004A6822F0FE4242EA0060486070474FF070
:10125000B040D0F89400C0F3400070474FF0B04069
:10126000006800F0F000B02800D9B02070474FF0BF
:10127000B0400068C0F3400070474FF0B0414A688A
:1012800022F47F4242EA0020486070474FF0B041AC
:101290000A6822F0F00202430A6070474FF0B04043
:1012A000C06800F003007047154810B5134901608D
:1012B0004FF4E131416000214FF4C0628160C0E928
:1012C00003120C22C0E90521C16101624162816201
:1012D000FFF755FE70B900210948FFF72AFE48B90B
:1012E00000210748FFF7FFFD20B90548FFF7DCFDA7
:1012F000002801D0FEF7EAFF10BD000000380140D1
:1013000038000020FEE7704770B5214A8EB00DF11D
:10131000100C78CA8CE8780038CA08AE86E8380025
:101320003CCA8DE83C000024B1F5007F6A462146A6
:1013300007D008AB53F8215085420BD352F8214017
:101340000BE004AB53F821508542F7D2491C042925
:10135000F8D302E0491C0329ECD30E4E306820F08C
:10136000070020433060FFF7BBF8054608E000BFE8
:10137000FFF7B6F8401B022802D903200EB070BD5B
:10138000306800F00700A042F2D10020F6E700002C
:10139000EC1A00080040005810B50F49B02801D9D8
:1013A000C86A03E03C2202EA900008584FF0B041BE
:1013B000D1F80811094A01F00F0152F82110B0FBD1
:1013C000F1F4FFF70BF901460548B4FBF0F0BDE876
:1013D0001040FFF799BF0000581B0008181B0008B9
:1013E00040420F007047FFF787B8000010B59AB071
:1013F00048216846FEF7F8FE1C2112A8FEF7F4FE0D
:101400001B48016821F4C06141F40071016000686B
:101410000024602200F4C060CDE908421990202029
:10142000012107910090CDE90D4080030F908002CB
:1014300011904FF0C06010900222CDE90B21684658
:10144000FFF75CFA78B96F2012900320CDE91304FE
:101450008020CDE916401594032112A81894FFF7B7
:10146000CDF8002801D0FEF731FF1AB010BD000002
:1014700000040058154800210160144880300268BB
:1014800042F4700202604FF0B040026842F0010284
:1014900002604FF4E022826002680D4B1A40026045
:1014A000D0F8942022F00502C0F89420D0F89820BB
:1014B00022F00102C0F89820064AC2600261026868
:1014C00022F48022026081617047000008ED00E094
:1014D000FBFEF6FA0010042230B5416EB9B1026885
:1014E00091689268C1F342610B4B520F9C5CE5001E
:1014F00003F10804A25CB5FBF2F2A0F86A205A5C82
:10150000615CD200B2FBF1F1A0F8681030BD01219E
:10151000A0F86A10F8E70000DC1A000890F828101C
:10152000C90706D001684A68C36A22F400321A4328
:101530004A6090F82810890706D501684A68036B4D
:1015400022F480321A434A6090F82810490706D5E1
:1015500001684A68436B22F480221A434A6090F87B
:101560002810090706D501684A68836B22F40042F7
:101570001A434A6090F82810C90606D501688A689F
:10158000C36B22F480521A438A6090F828108906AF
:1015900006D501688A68036C22F400521A438A60F7
:1015A00090F82810490611D501684A68436C22F466
:1015B00080121A434A60416CB1F5801F06D1016860
:1015C0004A68836C22F4C0021A434A6090F82810DB
:1015D000090606D501684A68C06C22F4002202435D
:1015E0004A607047F8B500260446C0F88C60FEF7E4
:1015F00077FF0546206800686FF07E47000708D532
:101600002B4600224FF400112046009700F01AF9F3
:1016100060B92068006840070AD52B4600224FF4C5
:1016200080012046009700F00DF908B10320F8BDB5
:101630002020C4F88400C4F8880044F86C6F0020AF
:101640002675F8BD2DE9F041044600682269A168BD
:10165000E66911436269002532431143724B026807
:10166000724E32400A43026020684168E26821F409
:101670004051114341602168A069994201D0226A1A
:1016800010438A686A4E324002438A602068C16A09
:10169000626A21F00F011143C1626649D4F800C0AB
:1016A0004FF0B0408C450DD1D0F8880010F0030009
:1016B00006D001281DD0022819D003281BD112E022
:1016C000012119E09C4516D1D0F888004FF4406103
:1016D00010F4406009D0B0F5806F0AD0B0F5006F0B
:1016E00005D0884207D1082106E0002104E002214C
:1016F00002E0042100E010214F4A504F00264FF431
:1017000000409C4531D131B1022907D0042907D0CE
:1017100008297AD107E0FFF77FF803E0104602E0DE
:10172000FFF79EF878B3616A37F811206768B0FB5D
:10173000F2F107EB47038B4267D8B1EB073F64D860
:1017400000231946FEF718FD090241EA1061020262
:101750007808101871413A460023FEF70DFD384A0B
:10176000A0F54071914252D94FE0E3694FF6EF780E
:1017700083422AD1012907D0022908D0042908D0A0
:10178000082942D108E041E0FFF758F803E010468D
:1017900002E0FFF765F8C8B3616A37F81110B0FBD3
:1017A000F1F04100606801EB5001B1FBF0F080B254
:1017B000A0F11001414528D84FF6F0710140C0F367
:1017C000420001432068C16023E0012906D00229BC
:1017D00007D0042907D0082917D107E0FFF72EF812
:1017E00003E0104602E0FFF73BF878B1616A37F892
:1017F0001110B0FBF1F1606801EB5001B1FBF0F0AA
:1018000080B2A0F11001414501D9012501E0216814
:10181000C8600120A4F86A0024F8680F2846A66072
:10182000E660BDE8F081000000800040F369FFCF72
:10183000FFF4FF11003801400024F400C41A00082E
:10184000FFFC0F002DE9F0479A4617460E46044666
:101850004FF000094FF02008089D4AE0681C48D06E
:10186000FEF73EFEA0EB0A00A8422AD84DB320683E
:10187000016849073DD5C069C043000539D42168D6
:101880004FF400600862206850E8001F21F4D07116
:1018900040E80012002AF6D12068083050E8001F06
:1018A00021F0010140E80012002AF5D144F8848FAC
:1018B000C4F80480C4F8088004F8049C0320BDE840
:1018C000F087216851E8000F20F4D07041E8000251
:1018D000002AF6D12068083050E8001F21F00101ED
:1018E00040E80012002AF5D144F8848FC4F804803F
:1018F000E2E72068C06936EA000004D00020B84260
:10190000ACD00020DBE70120F9E70000014A0249E2
:1019100000F023B8B5190008340000200907090EAB
:10192000002804DB00F1E02080F80014704700F08C
:101930000F0000F1E02080F8141D704702E008C895
:10194000121F08C1002AFAD170477047002001E039
:1019500001C1121F002AFBD170472DE9F041164644
:101960000F460446002503E03946B047641C6D1C51
:1019700020780028F8D12846BDE8F08138B50C4918
:1019800000208DF800000968082008624FF6FF74F7
:101990002346012269460648FFF758FB23460122E9
:1019A00069460348FFF7CFFB9DF8000038BD0000F3
:1019B0003800002013B54FF6FF7301226946024834
:1019C000FFF7C1FB00981CBD3800002008B5FEF7EA
:1019D0009BFDFFF70BFD0220FEF742FC4FF0B040ED
:1019E000C16C41F00201C164C06C00F002000090C3
:1019F000FFF75AFC0E48FFF789FF0EA0FFF786FF9E
:101A00001B48FFF783FF1BA0FFF780FF2248002041
:101A100000BF2248FFF7B2FFC0B20A2801D00D284C
:101A2000F7D11FA0FFF772FF1B48002000BFFEE7A1
:101A3000B81B00082A2A2054686973206D657373E7
:101A4000616765206973207072696E7465642075C2
:101A500073696E67207072696E74662829206675D6
:101A60006E6374696F6E2E202A2A200A0D00000012
:101A7000081C0008456E74657220612073747269D9
:101A80006E67207468656E20707265737320454EB2
:101A9000544552200A0D0000340000203000002080
:101AA0000A0D456E64206F66206578616D706C6507
:101AB0000A0D00000A0607002000010002001000C5
:101AC00001000200010002000400060008000A00F4
:101AD0000C00100020004000800000010101010303
:101AE00007010000080402040801010112000000BF
:101AF0002400000036000000400000000600000046
:101B00000C000000100000000000000001000000B8
:101B100002000000030000000100000003000000BC
:101B200005000000010000000100000006000000A8
:101B30000A00000020000000020000000400000075
:101B400008000000100000004000000080000000BD
:101B50000001000000020000A0860100400D03000B
:101B6000801A060000350C0040420F0080841E00E1
:101B700000093D0000127A000024F40000366E01D6
:101B80000048E801006CDC020000000000000000DA
:101B90000000000000000000000000000000000045
:101BA0000000000000000000010000000200000032
:101BB00003000000040000000A0D2055415254208B
:101BC0005072696E7466204578616D706C653A205C
:101BD0007265746172676574207468652043206C57
:101BE000696272617279207072696E7466206675BE
:101BF0006E6374696F6E20746F2074686520554140
:101C000052540A0D000000000A0D20554152542084
:101C100047657463686172204578616D706C653AE0
:101C20002072657461726765742055415254206951
:101C30006E70757420746F207468652043206C6921
:101C4000627261727920676574636861722066757B
:101C50006E6374696F6E0A0D000000007C1C000842
:101C600008000020300000003C190008AC1C0008EF
:101C700038000020900400004C19000800040048BF
:101C8000000400480004004800080048000C004818
:101C9000000C0048010000001000000000000000DF
:0C1CA00000093D000000000000000000F2
:040000050800013DB1
:00000001FF
